{
  "address": "0xA7bbe67A12df1A38c7baDCCf7a7Cd20CAB728865",
  "abi": [
    {
      "inputs": [
        {
          "internalType": "address",
          "name": "timelockAddress",
          "type": "address"
        }
      ],
      "stateMutability": "nonpayable",
      "type": "constructor"
    },
    {
      "inputs": [],
      "name": "AccessControlBadConfirmation",
      "type": "error"
    },
    {
      "inputs": [
        {
          "internalType": "address",
          "name": "account",
          "type": "address"
        },
        {
          "internalType": "bytes32",
          "name": "neededRole",
          "type": "bytes32"
        }
      ],
      "name": "AccessControlUnauthorizedAccount",
      "type": "error"
    },
    {
      "inputs": [
        {
          "internalType": "address",
          "name": "target",
          "type": "address"
        }
      ],
      "name": "AddressEmptyCode",
      "type": "error"
    },
    {
      "inputs": [
        {
          "internalType": "address",
          "name": "account",
          "type": "address"
        }
      ],
      "name": "AddressInsufficientBalance",
      "type": "error"
    },
    {
      "inputs": [
        {
          "internalType": "address",
          "name": "implementation",
          "type": "address"
        }
      ],
      "name": "ERC1967InvalidImplementation",
      "type": "error"
    },
    {
      "inputs": [],
      "name": "ERC1967NonPayable",
      "type": "error"
    },
    {
      "inputs": [],
      "name": "EnforcedPause",
      "type": "error"
    },
    {
      "inputs": [],
      "name": "ExpectedPause",
      "type": "error"
    },
    {
      "inputs": [],
      "name": "FailedInnerCall",
      "type": "error"
    },
    {
      "inputs": [],
      "name": "InvalidInitialization",
      "type": "error"
    },
    {
      "inputs": [],
      "name": "NotInitializing",
      "type": "error"
    },
    {
      "inputs": [],
      "name": "ReentrancyGuardReentrantCall",
      "type": "error"
    },
    {
      "inputs": [
        {
          "internalType": "address",
          "name": "token",
          "type": "address"
        }
      ],
      "name": "SafeERC20FailedOperation",
      "type": "error"
    },
    {
      "inputs": [],
      "name": "UUPSUnauthorizedCallContext",
      "type": "error"
    },
    {
      "inputs": [
        {
          "internalType": "bytes32",
          "name": "slot",
          "type": "bytes32"
        }
      ],
      "name": "UUPSUnsupportedProxiableUUID",
      "type": "error"
    },
    {
      "anonymous": false,
      "inputs": [
        {
          "indexed": false,
          "internalType": "uint64",
          "name": "version",
          "type": "uint64"
        }
      ],
      "name": "Initialized",
      "type": "event"
    },
    {
      "anonymous": false,
      "inputs": [
        {
          "indexed": false,
          "internalType": "address",
          "name": "account",
          "type": "address"
        }
      ],
      "name": "Paused",
      "type": "event"
    },
    {
      "anonymous": false,
      "inputs": [
        {
          "indexed": true,
          "internalType": "address",
          "name": "from",
          "type": "address"
        },
        {
          "indexed": true,
          "internalType": "address",
          "name": "to",
          "type": "address"
        },
        {
          "indexed": false,
          "internalType": "uint256",
          "name": "amount",
          "type": "uint256"
        }
      ],
      "name": "ReceiveETH",
      "type": "event"
    },
    {
      "anonymous": false,
      "inputs": [
        {
          "indexed": true,
          "internalType": "bytes32",
          "name": "role",
          "type": "bytes32"
        },
        {
          "indexed": true,
          "internalType": "bytes32",
          "name": "previousAdminRole",
          "type": "bytes32"
        },
        {
          "indexed": true,
          "internalType": "bytes32",
          "name": "newAdminRole",
          "type": "bytes32"
        }
      ],
      "name": "RoleAdminChanged",
      "type": "event"
    },
    {
      "anonymous": false,
      "inputs": [
        {
          "indexed": true,
          "internalType": "bytes32",
          "name": "role",
          "type": "bytes32"
        },
        {
          "indexed": true,
          "internalType": "address",
          "name": "account",
          "type": "address"
        },
        {
          "indexed": true,
          "internalType": "address",
          "name": "sender",
          "type": "address"
        }
      ],
      "name": "RoleGranted",
      "type": "event"
    },
    {
      "anonymous": false,
      "inputs": [
        {
          "indexed": true,
          "internalType": "bytes32",
          "name": "role",
          "type": "bytes32"
        },
        {
          "indexed": true,
          "internalType": "address",
          "name": "account",
          "type": "address"
        },
        {
          "indexed": true,
          "internalType": "address",
          "name": "sender",
          "type": "address"
        }
      ],
      "name": "RoleRevoked",
      "type": "event"
    },
    {
      "anonymous": false,
      "inputs": [
        {
          "indexed": false,
          "internalType": "address",
          "name": "receipt",
          "type": "address"
        },
        {
          "indexed": false,
          "internalType": "address",
          "name": "token",
          "type": "address"
        },
        {
          "indexed": false,
          "internalType": "uint256",
          "name": "amount",
          "type": "uint256"
        }
      ],
      "name": "Transfer",
      "type": "event"
    },
    {
      "anonymous": false,
      "inputs": [
        {
          "indexed": false,
          "internalType": "address",
          "name": "receipt",
          "type": "address"
        },
        {
          "indexed": false,
          "internalType": "uint256",
          "name": "amount",
          "type": "uint256"
        }
      ],
      "name": "TransferNative",
      "type": "event"
    },
    {
      "anonymous": false,
      "inputs": [
        {
          "indexed": false,
          "internalType": "address",
          "name": "account",
          "type": "address"
        }
      ],
      "name": "Unpaused",
      "type": "event"
    },
    {
      "anonymous": false,
      "inputs": [
        {
          "indexed": true,
          "internalType": "address",
          "name": "implementation",
          "type": "address"
        }
      ],
      "name": "Upgraded",
      "type": "event"
    },
    {
      "inputs": [],
      "name": "ADMIN_ROLE",
      "outputs": [
        {
          "internalType": "bytes32",
          "name": "",
          "type": "bytes32"
        }
      ],
      "stateMutability": "view",
      "type": "function"
    },
    {
      "inputs": [],
      "name": "DEFAULT_ADMIN_ROLE",
      "outputs": [
        {
          "internalType": "bytes32",
          "name": "",
          "type": "bytes32"
        }
      ],
      "stateMutability": "view",
      "type": "function"
    },
    {
      "inputs": [],
      "name": "PAUSE_ROLE",
      "outputs": [
        {
          "internalType": "bytes32",
          "name": "",
          "type": "bytes32"
        }
      ],
      "stateMutability": "view",
      "type": "function"
    },
    {
      "inputs": [],
      "name": "TIMELOCK_ADDRESS",
      "outputs": [
        {
          "internalType": "address",
          "name": "",
          "type": "address"
        }
      ],
      "stateMutability": "view",
      "type": "function"
    },
    {
      "inputs": [],
      "name": "TRANSFER_ROLE",
      "outputs": [
        {
          "internalType": "bytes32",
          "name": "",
          "type": "bytes32"
        }
      ],
      "stateMutability": "view",
      "type": "function"
    },
    {
      "inputs": [],
      "name": "UPGRADE_INTERFACE_VERSION",
      "outputs": [
        {
          "internalType": "string",
          "name": "",
          "type": "string"
        }
      ],
      "stateMutability": "view",
      "type": "function"
    },
    {
      "inputs": [
        {
          "internalType": "address",
          "name": "currency",
          "type": "address"
        }
      ],
      "name": "balance",
      "outputs": [
        {
          "internalType": "uint256",
          "name": "",
          "type": "uint256"
        }
      ],
      "stateMutability": "view",
      "type": "function"
    },
    {
      "inputs": [
        {
          "internalType": "bytes32",
          "name": "role",
          "type": "bytes32"
        }
      ],
      "name": "getRoleAdmin",
      "outputs": [
        {
          "internalType": "bytes32",
          "name": "",
          "type": "bytes32"
        }
      ],
      "stateMutability": "view",
      "type": "function"
    },
    {
      "inputs": [
        {
          "internalType": "bytes32",
          "name": "role",
          "type": "bytes32"
        },
        {
          "internalType": "uint256",
          "name": "index",
          "type": "uint256"
        }
      ],
      "name": "getRoleMember",
      "outputs": [
        {
          "internalType": "address",
          "name": "",
          "type": "address"
        }
      ],
      "stateMutability": "view",
      "type": "function"
    },
    {
      "inputs": [
        {
          "internalType": "bytes32",
          "name": "role",
          "type": "bytes32"
        }
      ],
      "name": "getRoleMemberCount",
      "outputs": [
        {
          "internalType": "uint256",
          "name": "",
          "type": "uint256"
        }
      ],
      "stateMutability": "view",
      "type": "function"
    },
    {
      "inputs": [
        {
          "internalType": "bytes32",
          "name": "role",
          "type": "bytes32"
        },
        {
          "internalType": "address",
          "name": "account",
          "type": "address"
        }
      ],
      "name": "grantRole",
      "outputs": [],
      "stateMutability": "nonpayable",
      "type": "function"
    },
    {
      "inputs": [
        {
          "internalType": "bytes32",
          "name": "role",
          "type": "bytes32"
        },
        {
          "internalType": "address",
          "name": "account",
          "type": "address"
        }
      ],
      "name": "hasRole",
      "outputs": [
        {
          "internalType": "bool",
          "name": "",
          "type": "bool"
        }
      ],
      "stateMutability": "view",
      "type": "function"
    },
    {
      "inputs": [
        {
          "internalType": "address",
          "name": "defaultAdmin",
          "type": "address"
        }
      ],
      "name": "initialize",
      "outputs": [],
      "stateMutability": "nonpayable",
      "type": "function"
    },
    {
      "inputs": [],
      "name": "pause",
      "outputs": [],
      "stateMutability": "nonpayable",
      "type": "function"
    },
    {
      "inputs": [],
      "name": "paused",
      "outputs": [
        {
          "internalType": "bool",
          "name": "",
          "type": "bool"
        }
      ],
      "stateMutability": "view",
      "type": "function"
    },
    {
      "inputs": [],
      "name": "proxiableUUID",
      "outputs": [
        {
          "internalType": "bytes32",
          "name": "",
          "type": "bytes32"
        }
      ],
      "stateMutability": "view",
      "type": "function"
    },
    {
      "inputs": [
        {
          "internalType": "bytes32",
          "name": "role",
          "type": "bytes32"
        },
        {
          "internalType": "address",
          "name": "callerConfirmation",
          "type": "address"
        }
      ],
      "name": "renounceRole",
      "outputs": [],
      "stateMutability": "nonpayable",
      "type": "function"
    },
    {
      "inputs": [
        {
          "internalType": "bytes32",
          "name": "role",
          "type": "bytes32"
        },
        {
          "internalType": "address",
          "name": "account",
          "type": "address"
        }
      ],
      "name": "revokeRole",
      "outputs": [],
      "stateMutability": "nonpayable",
      "type": "function"
    },
    {
      "inputs": [
        {
          "internalType": "bytes4",
          "name": "interfaceId",
          "type": "bytes4"
        }
      ],
      "name": "supportsInterface",
      "outputs": [
        {
          "internalType": "bool",
          "name": "",
          "type": "bool"
        }
      ],
      "stateMutability": "view",
      "type": "function"
    },
    {
      "inputs": [
        {
          "internalType": "address",
          "name": "receipt",
          "type": "address"
        },
        {
          "internalType": "address",
          "name": "token",
          "type": "address"
        },
        {
          "internalType": "uint256",
          "name": "amount",
          "type": "uint256"
        }
      ],
      "name": "transfer",
      "outputs": [],
      "stateMutability": "nonpayable",
      "type": "function"
    },
    {
      "inputs": [
        {
          "internalType": "address",
          "name": "receipt",
          "type": "address"
        },
        {
          "internalType": "uint256",
          "name": "amount",
          "type": "uint256"
        }
      ],
      "name": "transferNative",
      "outputs": [],
      "stateMutability": "nonpayable",
      "type": "function"
    },
    {
      "inputs": [],
      "name": "unpause",
      "outputs": [],
      "stateMutability": "nonpayable",
      "type": "function"
    },
    {
      "inputs": [
        {
          "internalType": "address",
          "name": "newImplementation",
          "type": "address"
        },
        {
          "internalType": "bytes",
          "name": "data",
          "type": "bytes"
        }
      ],
      "name": "upgradeToAndCall",
      "outputs": [],
      "stateMutability": "payable",
      "type": "function"
    },
    {
      "stateMutability": "payable",
      "type": "receive"
    }
  ],
  "transactionHash": "0xbe56d789024bfe89104c114b32c56907ea0c8f9656f85f93c9f051b002b6f86b",
  "args": [
    "0xFF6a70f71F7a6fe8C4c757E49667A81B1A4b7D29"
  ],
  "numDeployments": 1,
  "solcInputHash": "7da395c13d2effb9c9dcf2b0d73d7d97",
  "bytecode": "0x60c06040523060805234801561001457600080fd5b50604051611c02380380611c0283398101604081905261003391610100565b6001600160a01b03811660a05261004861004e565b50610130565b7ff0c57e16840df040f15088dc2f81fe391c3923bec73e23a9662efc9c229c6a00805468010000000000000000900460ff161561009e5760405163f92ee8a960e01b815260040160405180910390fd5b80546001600160401b03908116146100fd5780546001600160401b0319166001600160401b0390811782556040519081527fc7f505b2f371ae2175ee4913f4499e1f2633a7b5936321eed1cdaeb6115181d29060200160405180910390a15b50565b60006020828403121561011257600080fd5b81516001600160a01b038116811461012957600080fd5b9392505050565b60805160a051611a9861016a600039600081816102c00152610d06015260008181610c5f01528181610c880152610e2b0152611a986000f3fe6080604052600436106101445760003560e01c806375b238fc116100b6578063ad3cb1cc1161006f578063ad3cb1cc14610405578063beabacc814610443578063c4d66de814610463578063ca15c87314610483578063d547741f146104a3578063e3d670d7146104c357600080fd5b806375b238fc146103475780637d2e90c21461037b5780638456cb591461039b5780639010d07c146103b057806391d14854146103d0578063a217fddf146103f057600080fd5b8063389ed26711610108578063389ed267146102655780633f4ba83a14610299578063431c1830146102ae5780634f1ef286146102fa57806352d1902d1461030d5780635c975abb1461032257600080fd5b806301ffc9a71461018e578063206b60f9146101c3578063248a9ca3146102055780632f2ff15d1461022557806336568abe1461024557600080fd5b3661018957341561018757604051348152309033907f1a5f279a9c22a4ad34f4070b85334882f8a945656329d87746c0f2c8806ba00e9060200160405180910390a35b005b600080fd5b34801561019a57600080fd5b506101ae6101a93660046116c1565b6104e3565b60405190151581526020015b60405180910390f35b3480156101cf57600080fd5b506101f77f8502233096d909befbda0999bb8ea2f3a6be3c138b9fbf003752a4c8bce86f6c81565b6040519081526020016101ba565b34801561021157600080fd5b506101f76102203660046116eb565b61050e565b34801561023157600080fd5b50610187610240366004611720565b610530565b34801561025157600080fd5b50610187610260366004611720565b610552565b34801561027157600080fd5b506101f77f139c2898040ef16910dc9f44dc697df79363da767d8bc92f2e310312b816e46d81565b3480156102a557600080fd5b5061018761058a565b3480156102ba57600080fd5b506102e27f000000000000000000000000000000000000000000000000000000000000000081565b6040516001600160a01b0390911681526020016101ba565b610187610308366004611762565b6105bf565b34801561031957600080fd5b506101f76105de565b34801561032e57600080fd5b50600080516020611a238339815191525460ff166101ae565b34801561035357600080fd5b506101f77fa49807205ce4d355092ef5a8a18f56e8913cf4a201fbe287825b095693c2177581565b34801561038757600080fd5b50610187610396366004611824565b6105fb565b3480156103a757600080fd5b506101876106e8565b3480156103bc57600080fd5b506102e26103cb36600461184e565b61071a565b3480156103dc57600080fd5b506101ae6103eb366004611720565b610749565b3480156103fc57600080fd5b506101f7600081565b34801561041157600080fd5b50610436604051806040016040528060058152602001640352e302e360dc1b81525081565b6040516101ba9190611894565b34801561044f57600080fd5b5061018761045e3660046118c7565b610781565b34801561046f57600080fd5b5061018761047e366004611903565b610922565b34801561048f57600080fd5b506101f761049e3660046116eb565b610a80565b3480156104af57600080fd5b506101876104be366004611720565b610aad565b3480156104cf57600080fd5b506101f76104de366004611903565b610ac9565b60006001600160e01b03198216635a05180f60e01b1480610508575061050882610b34565b92915050565b6000908152600080516020611a03833981519152602052604090206001015490565b6105398261050e565b61054281610b69565b61054c8383610b73565b50505050565b6001600160a01b038116331461057b5760405163334bd91960e11b815260040160405180910390fd5b6105858282610bb8565b505050565b7f139c2898040ef16910dc9f44dc697df79363da767d8bc92f2e310312b816e46d6105b481610b69565b6105bc610bf4565b50565b6105c7610c54565b6105d082610cfb565b6105da8282610d63565b5050565b60006105e8610e20565b506000805160206119e383398151915290565b610603610e69565b61060b610ea1565b7f8502233096d909befbda0999bb8ea2f3a6be3c138b9fbf003752a4c8bce86f6c61063581610b69565b6000821161067b5760405162461bcd60e51b815260206004820152600e60248201526d1a5b9d985b1a5908185b5bdd5b9d60921b60448201526064015b60405180910390fd5b61068e6001600160a01b03841683610ed2565b604080516001600160a01b0385168152602081018490527faaa330f73f343ed3da9c3ff8366ebc8dc13ab7f7c9edcf6d2a1774a81f717349910160405180910390a1506105da6001600080516020611a4383398151915255565b7f139c2898040ef16910dc9f44dc697df79363da767d8bc92f2e310312b816e46d61071281610b69565b6105bc610f7d565b60008281526000805160206119c38339815191526020819052604082206107419084610fc6565b949350505050565b6000918252600080516020611a03833981519152602090815260408084206001600160a01b0393909316845291905290205460ff1690565b610789610e69565b610791610ea1565b7f8502233096d909befbda0999bb8ea2f3a6be3c138b9fbf003752a4c8bce86f6c6107bb81610b69565b600082116107fc5760405162461bcd60e51b815260206004820152600e60248201526d1a5b9d985b1a5908185b5bdd5b9d60921b6044820152606401610672565b6040516370a0823160e01b815230600482015282906001600160a01b038516906370a0823190602401602060405180830381865afa158015610842573d6000803e3d6000fd5b505050506040513d601f19601f82011682018060405250810190610866919061191e565b10156108ab5760405162461bcd60e51b8152602060048201526014602482015273696e73756666696369656e742062616c616e636560601b6044820152606401610672565b6108bf6001600160a01b0384168584610fd2565b604080516001600160a01b038087168252851660208201529081018390527fddf252ad1be2c89b69c2b068fc378daa952ba7f163c4a11628f55a4df523b3ef9060600160405180910390a1506105856001600080516020611a4383398151915255565b7ff0c57e16840df040f15088dc2f81fe391c3923bec73e23a9662efc9c229c6a008054600160401b810460ff16159067ffffffffffffffff166000811580156109685750825b905060008267ffffffffffffffff1660011480156109855750303b155b905081158015610993575080155b156109b15760405163f92ee8a960e01b815260040160405180910390fd5b845467ffffffffffffffff1916600117855583156109db57845460ff60401b1916600160401b1785555b6109e3611024565b6109eb611034565b6109f3611034565b6109fb61103c565b610a06600087610b73565b50610a317fa49807205ce4d355092ef5a8a18f56e8913cf4a201fbe287825b095693c2177587610b73565b508315610a7857845460ff60401b19168555604051600181527fc7f505b2f371ae2175ee4913f4499e1f2633a7b5936321eed1cdaeb6115181d29060200160405180910390a15b505050505050565b60008181526000805160206119c3833981519152602081905260408220610aa69061104c565b9392505050565b610ab68261050e565b610abf81610b69565b61054c8383610bb8565b6040516370a0823160e01b81523060048201526000906001600160a01b038316906370a0823190602401602060405180830381865afa158015610b10573d6000803e3d6000fd5b505050506040513d601f19601f82011682018060405250810190610508919061191e565b60006001600160e01b03198216637965db0b60e01b148061050857506301ffc9a760e01b6001600160e01b0319831614610508565b6105bc8133611056565b60006000805160206119c383398151915281610b8f858561108f565b90508015610741576000858152602083905260409020610baf9085611134565b50949350505050565b60006000805160206119c383398151915281610bd48585611149565b90508015610741576000858152602083905260409020610baf90856111c5565b610bfc6111da565b600080516020611a23833981519152805460ff191681557f5db9ee0a495bf2e6ff9c91a7834c1ba4fdd244a5e8aa4e537bd38aeae4b073aa335b6040516001600160a01b03909116815260200160405180910390a150565b306001600160a01b037f0000000000000000000000000000000000000000000000000000000000000000161480610cdb57507f00000000000000000000000000000000000000000000000000000000000000006001600160a01b0316610ccf6000805160206119e3833981519152546001600160a01b031690565b6001600160a01b031614155b15610cf95760405163703e46dd60e11b815260040160405180910390fd5b565b336001600160a01b037f000000000000000000000000000000000000000000000000000000000000000016146105bc5760405162461bcd60e51b815260206004820152600d60248201526c6f6e6c792074696d656c6f636b60981b6044820152606401610672565b816001600160a01b03166352d1902d6040518163ffffffff1660e01b8152600401602060405180830381865afa925050508015610dbd575060408051601f3d908101601f19168201909252610dba9181019061191e565b60015b610de557604051634c9c8ce360e01b81526001600160a01b0383166004820152602401610672565b6000805160206119e38339815191528114610e1657604051632a87526960e21b815260048101829052602401610672565b610585838361120a565b306001600160a01b037f00000000000000000000000000000000000000000000000000000000000000001614610cf95760405163703e46dd60e11b815260040160405180910390fd5b600080516020611a43833981519152805460011901610e9b57604051633ee5aeb560e01b815260040160405180910390fd5b60029055565b600080516020611a238339815191525460ff1615610cf95760405163d93c066560e01b815260040160405180910390fd5b80471015610ef55760405163cd78605960e01b8152306004820152602401610672565b6000826001600160a01b03168260405160006040518083038185875af1925050503d8060008114610f42576040519150601f19603f3d011682016040523d82523d6000602084013e610f47565b606091505b505090508061058557604051630a12f52160e11b815260040160405180910390fd5b6001600080516020611a4383398151915255565b610f85610ea1565b600080516020611a23833981519152805460ff191660011781557f62e78cea01bee320cd4e420270b5ea74000d11b0c9f74754ebdbfc544b05a25833610c36565b6000610aa68383611260565b604080516001600160a01b038416602482015260448082018490528251808303909101815260649091019091526020810180516001600160e01b031663a9059cbb60e01b17905261058590849061128a565b61102c6112ed565b610cf9611336565b610cf96112ed565b6110446112ed565b610cf9611357565b6000610508825490565b6110608282610749565b6105da5760405163e2517d3f60e01b81526001600160a01b038216600482015260248101839052604401610672565b6000600080516020611a038339815191526110aa8484610749565b61112a576000848152602082815260408083206001600160a01b03871684529091529020805460ff191660011790556110e03390565b6001600160a01b0316836001600160a01b0316857f2f8788117e7eff1d82e926ec794901d17c78024a50270940304540a733656f0d60405160405180910390a46001915050610508565b6000915050610508565b6000610aa6836001600160a01b03841661135f565b6000600080516020611a038339815191526111648484610749565b1561112a576000848152602082815260408083206001600160a01b0387168085529252808320805460ff1916905551339287917ff6391f5c32d9c69d2a47ea670b442974b53935d1edc7fd64eb21e047a839171b9190a46001915050610508565b6000610aa6836001600160a01b0384166113ae565b600080516020611a238339815191525460ff16610cf957604051638dfc202b60e01b815260040160405180910390fd5b61121382611497565b6040516001600160a01b038316907fbc7cd75a20ee27fd9adebab32041f755214dbc6bffa90cc0225b39da2e5c2d3b90600090a28051156112585761058582826114fc565b6105da611572565b600082600001828154811061127757611277611937565b9060005260206000200154905092915050565b600061129f6001600160a01b03841683611591565b905080516000141580156112c45750808060200190518101906112c2919061194d565b155b1561058557604051635274afe760e01b81526001600160a01b0384166004820152602401610672565b7ff0c57e16840df040f15088dc2f81fe391c3923bec73e23a9662efc9c229c6a0054600160401b900460ff16610cf957604051631afcd79f60e31b815260040160405180910390fd5b61133e6112ed565b600080516020611a23833981519152805460ff19169055565b610f696112ed565b60008181526001830160205260408120546113a657508154600181810184556000848152602080822090930184905584548482528286019093526040902091909155610508565b506000610508565b6000818152600183016020526040812054801561112a5760006113d260018361196f565b85549091506000906113e69060019061196f565b905080821461144b57600086600001828154811061140657611406611937565b906000526020600020015490508087600001848154811061142957611429611937565b6000918252602080832090910192909255918252600188019052604090208390555b855486908061145c5761145c611990565b600190038181906000526020600020016000905590558560010160008681526020019081526020016000206000905560019350505050610508565b806001600160a01b03163b6000036114cd57604051634c9c8ce360e01b81526001600160a01b0382166004820152602401610672565b6000805160206119e383398151915280546001600160a01b0319166001600160a01b0392909216919091179055565b6060600080846001600160a01b03168460405161151991906119a6565b600060405180830381855af49150503d8060008114611554576040519150601f19603f3d011682016040523d82523d6000602084013e611559565b606091505b509150915061156985838361159f565b95945050505050565b3415610cf95760405163b398979f60e01b815260040160405180910390fd5b6060610aa6838360006115fb565b6060826115b4576115af82611698565b610aa6565b81511580156115cb57506001600160a01b0384163b155b156115f457604051639996b31560e01b81526001600160a01b0385166004820152602401610672565b5092915050565b6060814710156116205760405163cd78605960e01b8152306004820152602401610672565b600080856001600160a01b0316848660405161163c91906119a6565b60006040518083038185875af1925050503d8060008114611679576040519150601f19603f3d011682016040523d82523d6000602084013e61167e565b606091505b509150915061168e86838361159f565b9695505050505050565b8051156116a85780518082602001fd5b604051630a12f52160e11b815260040160405180910390fd5b6000602082840312156116d357600080fd5b81356001600160e01b031981168114610aa657600080fd5b6000602082840312156116fd57600080fd5b5035919050565b80356001600160a01b038116811461171b57600080fd5b919050565b6000806040838503121561173357600080fd5b8235915061174360208401611704565b90509250929050565b634e487b7160e01b600052604160045260246000fd5b6000806040838503121561177557600080fd5b61177e83611704565b9150602083013567ffffffffffffffff8082111561179b57600080fd5b818501915085601f8301126117af57600080fd5b8135818111156117c1576117c161174c565b604051601f8201601f19908116603f011681019083821181831017156117e9576117e961174c565b8160405282815288602084870101111561180257600080fd5b8260208601602083013760006020848301015280955050505050509250929050565b6000806040838503121561183757600080fd5b61184083611704565b946020939093013593505050565b6000806040838503121561186157600080fd5b50508035926020909101359150565b60005b8381101561188b578181015183820152602001611873565b50506000910152565b60208152600082518060208401526118b3816040850160208701611870565b601f01601f19169190910160400192915050565b6000806000606084860312156118dc57600080fd5b6118e584611704565b92506118f360208501611704565b9150604084013590509250925092565b60006020828403121561191557600080fd5b610aa682611704565b60006020828403121561193057600080fd5b5051919050565b634e487b7160e01b600052603260045260246000fd5b60006020828403121561195f57600080fd5b81518015158114610aa657600080fd5b8181038181111561050857634e487b7160e01b600052601160045260246000fd5b634e487b7160e01b600052603160045260246000fd5b600082516119b8818460208701611870565b919091019291505056fec1f6fe24621ce81ec5827caf0253cadb74709b061630e6b55e82371705932000360894a13ba1a3210667c828492db98dca3e2076cc3735a920a3ca505d382bbc02dd7bc7dec4dceedda775e58dd541e08a116c6c53815c0bd028192f7b626800cd5ed15c6e187e77e9aee88184c21f4f2182ab5827cb3b7e07fbedcd63f033009b779b17422d0df92223018b32b4d1fa46e071723d6817e2486d003becc55f00a2646970667358221220e88176b5840c84ba7a5d4ba89363227165d8cebc2250728a255fc445de2a569e64736f6c63430008190033",
  "devdoc": {
    "errors": {
      "AccessControlBadConfirmation()": [
        {
          "details": "The caller of a function is not the expected one. NOTE: Don't confuse with {AccessControlUnauthorizedAccount}."
        }
      ],
      "AccessControlUnauthorizedAccount(address,bytes32)": [
        {
          "details": "The `account` is missing a role."
        }
      ],
      "AddressEmptyCode(address)": [
        {
          "details": "There's no code at `target` (it is not a contract)."
        }
      ],
      "AddressInsufficientBalance(address)": [
        {
          "details": "The ETH balance of the account is not enough to perform the operation."
        }
      ],
      "ERC1967InvalidImplementation(address)": [
        {
          "details": "The `implementation` of the proxy is invalid."
        }
      ],
      "ERC1967NonPayable()": [
        {
          "details": "An upgrade function sees `msg.value > 0` that may be lost."
        }
      ],
      "EnforcedPause()": [
        {
          "details": "The operation failed because the contract is paused."
        }
      ],
      "ExpectedPause()": [
        {
          "details": "The operation failed because the contract is not paused."
        }
      ],
      "FailedInnerCall()": [
        {
          "details": "A call to an address target failed. The target may have reverted."
        }
      ],
      "InvalidInitialization()": [
        {
          "details": "The contract is already initialized."
        }
      ],
      "NotInitializing()": [
        {
          "details": "The contract is not initializing."
        }
      ],
      "ReentrancyGuardReentrantCall()": [
        {
          "details": "Unauthorized reentrant call."
        }
      ],
      "SafeERC20FailedOperation(address)": [
        {
          "details": "An operation with an ERC20 token failed."
        }
      ],
      "UUPSUnauthorizedCallContext()": [
        {
          "details": "The call is from an unauthorized context."
        }
      ],
      "UUPSUnsupportedProxiableUUID(bytes32)": [
        {
          "details": "The storage `slot` is unsupported as a UUID."
        }
      ]
    },
    "events": {
      "Initialized(uint64)": {
        "details": "Triggered when the contract has been initialized or reinitialized."
      },
      "Paused(address)": {
        "details": "Emitted when the pause is triggered by `account`."
      },
      "RoleAdminChanged(bytes32,bytes32,bytes32)": {
        "details": "Emitted when `newAdminRole` is set as ``role``'s admin role, replacing `previousAdminRole` `DEFAULT_ADMIN_ROLE` is the starting admin for all roles, despite {RoleAdminChanged} not being emitted signaling this."
      },
      "RoleGranted(bytes32,address,address)": {
        "details": "Emitted when `account` is granted `role`. `sender` is the account that originated the contract call, an admin role bearer except when using {AccessControl-_setupRole}."
      },
      "RoleRevoked(bytes32,address,address)": {
        "details": "Emitted when `account` is revoked `role`. `sender` is the account that originated the contract call:   - if using `revokeRole`, it is the admin role bearer   - if using `renounceRole`, it is the role bearer (i.e. `account`)"
      },
      "Unpaused(address)": {
        "details": "Emitted when the pause is lifted by `account`."
      },
      "Upgraded(address)": {
        "details": "Emitted when the implementation is upgraded."
      }
    },
    "kind": "dev",
    "methods": {
      "constructor": {
        "custom:oz-upgrades-unsafe-allow": "constructor"
      },
      "getRoleAdmin(bytes32)": {
        "details": "Returns the admin role that controls `role`. See {grantRole} and {revokeRole}. To change a role's admin, use {_setRoleAdmin}."
      },
      "getRoleMember(bytes32,uint256)": {
        "details": "Returns one of the accounts that have `role`. `index` must be a value between 0 and {getRoleMemberCount}, non-inclusive. Role bearers are not sorted in any particular way, and their ordering may change at any point. WARNING: When using {getRoleMember} and {getRoleMemberCount}, make sure you perform all queries on the same block. See the following https://forum.openzeppelin.com/t/iterating-over-elements-on-enumerableset-in-openzeppelin-contracts/2296[forum post] for more information."
      },
      "getRoleMemberCount(bytes32)": {
        "details": "Returns the number of accounts that have `role`. Can be used together with {getRoleMember} to enumerate all bearers of a role."
      },
      "grantRole(bytes32,address)": {
        "details": "Grants `role` to `account`. If `account` had not been already granted `role`, emits a {RoleGranted} event. Requirements: - the caller must have ``role``'s admin role. May emit a {RoleGranted} event."
      },
      "hasRole(bytes32,address)": {
        "details": "Returns `true` if `account` has been granted `role`."
      },
      "paused()": {
        "details": "Returns true if the contract is paused, and false otherwise."
      },
      "proxiableUUID()": {
        "details": "Implementation of the ERC1822 {proxiableUUID} function. This returns the storage slot used by the implementation. It is used to validate the implementation's compatibility when performing an upgrade. IMPORTANT: A proxy pointing at a proxiable contract should not be considered proxiable itself, because this risks bricking a proxy that upgrades to it, by delegating to itself until out of gas. Thus it is critical that this function revert if invoked through a proxy. This is guaranteed by the `notDelegated` modifier."
      },
      "renounceRole(bytes32,address)": {
        "details": "Revokes `role` from the calling account. Roles are often managed via {grantRole} and {revokeRole}: this function's purpose is to provide a mechanism for accounts to lose their privileges if they are compromised (such as when a trusted device is misplaced). If the calling account had been revoked `role`, emits a {RoleRevoked} event. Requirements: - the caller must be `callerConfirmation`. May emit a {RoleRevoked} event."
      },
      "revokeRole(bytes32,address)": {
        "details": "Revokes `role` from `account`. If `account` had been granted `role`, emits a {RoleRevoked} event. Requirements: - the caller must have ``role``'s admin role. May emit a {RoleRevoked} event."
      },
      "supportsInterface(bytes4)": {
        "details": "See {IERC165-supportsInterface}."
      },
      "upgradeToAndCall(address,bytes)": {
        "custom:oz-upgrades-unsafe-allow-reachable": "delegatecall",
        "details": "Upgrade the implementation of the proxy to `newImplementation`, and subsequently execute the function call encoded in `data`. Calls {_authorizeUpgrade}. Emits an {Upgraded} event."
      }
    },
    "version": 1
  },
  "userdoc": {
    "kind": "user",
    "methods": {},
    "version": 1
  },
  "storageLayout": {
    "storage": [],
    "types": null
  }
}