{
  "address": "0x151aFB360D3aD6a8b56Bbcf1495945a9278bA404",
  "abi": [
    {
      "inputs": [
        {
          "internalType": "address",
          "name": "nativeWrapped",
          "type": "address"
        }
      ],
      "stateMutability": "nonpayable",
      "type": "constructor"
    },
    {
      "inputs": [],
      "name": "AccessControlBadConfirmation",
      "type": "error"
    },
    {
      "inputs": [
        {
          "internalType": "address",
          "name": "account",
          "type": "address"
        },
        {
          "internalType": "bytes32",
          "name": "neededRole",
          "type": "bytes32"
        }
      ],
      "name": "AccessControlUnauthorizedAccount",
      "type": "error"
    },
    {
      "inputs": [
        {
          "internalType": "address",
          "name": "target",
          "type": "address"
        }
      ],
      "name": "AddressEmptyCode",
      "type": "error"
    },
    {
      "inputs": [
        {
          "internalType": "address",
          "name": "account",
          "type": "address"
        }
      ],
      "name": "AddressInsufficientBalance",
      "type": "error"
    },
    {
      "inputs": [
        {
          "internalType": "address",
          "name": "implementation",
          "type": "address"
        }
      ],
      "name": "ERC1967InvalidImplementation",
      "type": "error"
    },
    {
      "inputs": [],
      "name": "ERC1967NonPayable",
      "type": "error"
    },
    {
      "inputs": [],
      "name": "EnforcedPause",
      "type": "error"
    },
    {
      "inputs": [],
      "name": "ExpectedPause",
      "type": "error"
    },
    {
      "inputs": [],
      "name": "FailedInnerCall",
      "type": "error"
    },
    {
      "inputs": [],
      "name": "InvalidInitialization",
      "type": "error"
    },
    {
      "inputs": [],
      "name": "NotInitializing",
      "type": "error"
    },
    {
      "inputs": [
        {
          "internalType": "address",
          "name": "token",
          "type": "address"
        }
      ],
      "name": "SafeERC20FailedOperation",
      "type": "error"
    },
    {
      "inputs": [],
      "name": "UUPSUnauthorizedCallContext",
      "type": "error"
    },
    {
      "inputs": [
        {
          "internalType": "bytes32",
          "name": "slot",
          "type": "bytes32"
        }
      ],
      "name": "UUPSUnsupportedProxiableUUID",
      "type": "error"
    },
    {
      "inputs": [],
      "name": "ZeroAddress",
      "type": "error"
    },
    {
      "inputs": [],
      "name": "ZeroAmount",
      "type": "error"
    },
    {
      "anonymous": false,
      "inputs": [
        {
          "indexed": true,
          "internalType": "address",
          "name": "currency",
          "type": "address"
        }
      ],
      "name": "AddToken",
      "type": "event"
    },
    {
      "anonymous": false,
      "inputs": [
        {
          "indexed": false,
          "internalType": "uint64",
          "name": "version",
          "type": "uint64"
        }
      ],
      "name": "Initialized",
      "type": "event"
    },
    {
      "anonymous": false,
      "inputs": [
        {
          "indexed": true,
          "internalType": "address",
          "name": "sender",
          "type": "address"
        },
        {
          "indexed": true,
          "internalType": "address",
          "name": "sourceTokenAddress",
          "type": "address"
        },
        {
          "indexed": false,
          "internalType": "uint256",
          "name": "amountIn",
          "type": "uint256"
        },
        {
          "indexed": false,
          "internalType": "uint256",
          "name": "assXXXAmount",
          "type": "uint256"
        }
      ],
      "name": "MintAssXXX",
      "type": "event"
    },
    {
      "anonymous": false,
      "inputs": [
        {
          "indexed": false,
          "internalType": "address",
          "name": "oldSigner",
          "type": "address"
        },
        {
          "indexed": false,
          "internalType": "address",
          "name": "newSigner",
          "type": "address"
        }
      ],
      "name": "NewSigner",
      "type": "event"
    },
    {
      "anonymous": false,
      "inputs": [
        {
          "indexed": false,
          "internalType": "address",
          "name": "account",
          "type": "address"
        }
      ],
      "name": "Paused",
      "type": "event"
    },
    {
      "anonymous": false,
      "inputs": [
        {
          "indexed": true,
          "internalType": "address",
          "name": "currency",
          "type": "address"
        }
      ],
      "name": "RemoveToken",
      "type": "event"
    },
    {
      "anonymous": false,
      "inputs": [
        {
          "indexed": true,
          "internalType": "bytes32",
          "name": "role",
          "type": "bytes32"
        },
        {
          "indexed": true,
          "internalType": "bytes32",
          "name": "previousAdminRole",
          "type": "bytes32"
        },
        {
          "indexed": true,
          "internalType": "bytes32",
          "name": "newAdminRole",
          "type": "bytes32"
        }
      ],
      "name": "RoleAdminChanged",
      "type": "event"
    },
    {
      "anonymous": false,
      "inputs": [
        {
          "indexed": true,
          "internalType": "bytes32",
          "name": "role",
          "type": "bytes32"
        },
        {
          "indexed": true,
          "internalType": "address",
          "name": "account",
          "type": "address"
        },
        {
          "indexed": true,
          "internalType": "address",
          "name": "sender",
          "type": "address"
        }
      ],
      "name": "RoleGranted",
      "type": "event"
    },
    {
      "anonymous": false,
      "inputs": [
        {
          "indexed": true,
          "internalType": "bytes32",
          "name": "role",
          "type": "bytes32"
        },
        {
          "indexed": true,
          "internalType": "address",
          "name": "account",
          "type": "address"
        },
        {
          "indexed": true,
          "internalType": "address",
          "name": "sender",
          "type": "address"
        }
      ],
      "name": "RoleRevoked",
      "type": "event"
    },
    {
      "anonymous": false,
      "inputs": [
        {
          "indexed": false,
          "internalType": "address",
          "name": "account",
          "type": "address"
        }
      ],
      "name": "Unpaused",
      "type": "event"
    },
    {
      "anonymous": false,
      "inputs": [
        {
          "indexed": true,
          "internalType": "address",
          "name": "currency",
          "type": "address"
        }
      ],
      "name": "UpdateDepositEnabled",
      "type": "event"
    },
    {
      "anonymous": false,
      "inputs": [
        {
          "indexed": true,
          "internalType": "address",
          "name": "currency",
          "type": "address"
        }
      ],
      "name": "UpdateWithdrawEnabled",
      "type": "event"
    },
    {
      "anonymous": false,
      "inputs": [
        {
          "indexed": true,
          "internalType": "address",
          "name": "implementation",
          "type": "address"
        }
      ],
      "name": "Upgraded",
      "type": "event"
    },
    {
      "inputs": [],
      "name": "ADMIN_ROLE",
      "outputs": [
        {
          "internalType": "bytes32",
          "name": "",
          "type": "bytes32"
        }
      ],
      "stateMutability": "view",
      "type": "function"
    },
    {
      "inputs": [],
      "name": "DEFAULT_ADMIN_ROLE",
      "outputs": [
        {
          "internalType": "bytes32",
          "name": "",
          "type": "bytes32"
        }
      ],
      "stateMutability": "view",
      "type": "function"
    },
    {
      "inputs": [],
      "name": "NATIVE_WRAPPED",
      "outputs": [
        {
          "internalType": "address",
          "name": "",
          "type": "address"
        }
      ],
      "stateMutability": "view",
      "type": "function"
    },
    {
      "inputs": [],
      "name": "PAUSE_ROLE",
      "outputs": [
        {
          "internalType": "bytes32",
          "name": "",
          "type": "bytes32"
        }
      ],
      "stateMutability": "view",
      "type": "function"
    },
    {
      "inputs": [],
      "name": "TIMELOCK_ADDRESS",
      "outputs": [
        {
          "internalType": "address",
          "name": "",
          "type": "address"
        }
      ],
      "stateMutability": "view",
      "type": "function"
    },
    {
      "inputs": [],
      "name": "UPGRADER_ROLE",
      "outputs": [
        {
          "internalType": "bytes32",
          "name": "",
          "type": "bytes32"
        }
      ],
      "stateMutability": "view",
      "type": "function"
    },
    {
      "inputs": [],
      "name": "UPGRADE_INTERFACE_VERSION",
      "outputs": [
        {
          "internalType": "string",
          "name": "",
          "type": "string"
        }
      ],
      "stateMutability": "view",
      "type": "function"
    },
    {
      "inputs": [
        {
          "internalType": "address",
          "name": "assTokenAddress",
          "type": "address"
        },
        {
          "internalType": "address",
          "name": "sourceTokenAddress",
          "type": "address"
        },
        {
          "internalType": "uint256",
          "name": "exchangeRateTimestamp",
          "type": "uint256"
        },
        {
          "internalType": "bool",
          "name": "depositEnabled",
          "type": "bool"
        },
        {
          "internalType": "bool",
          "name": "withdrawEnabled",
          "type": "bool"
        }
      ],
      "name": "addToken",
      "outputs": [],
      "stateMutability": "nonpayable",
      "type": "function"
    },
    {
      "inputs": [
        {
          "internalType": "address",
          "name": "currency",
          "type": "address"
        }
      ],
      "name": "balance",
      "outputs": [
        {
          "internalType": "uint256",
          "name": "",
          "type": "uint256"
        }
      ],
      "stateMutability": "view",
      "type": "function"
    },
    {
      "inputs": [
        {
          "internalType": "address",
          "name": "newSigner",
          "type": "address"
        }
      ],
      "name": "changeSigner",
      "outputs": [],
      "stateMutability": "nonpayable",
      "type": "function"
    },
    {
      "inputs": [
        {
          "internalType": "address",
          "name": "sourceTokenAddress",
          "type": "address"
        },
        {
          "internalType": "uint256",
          "name": "amountIn",
          "type": "uint256"
        }
      ],
      "name": "deposit",
      "outputs": [],
      "stateMutability": "nonpayable",
      "type": "function"
    },
    {
      "inputs": [],
      "name": "depositNative",
      "outputs": [],
      "stateMutability": "payable",
      "type": "function"
    },
    {
      "inputs": [
        {
          "internalType": "bytes32",
          "name": "role",
          "type": "bytes32"
        }
      ],
      "name": "getRoleAdmin",
      "outputs": [
        {
          "internalType": "bytes32",
          "name": "",
          "type": "bytes32"
        }
      ],
      "stateMutability": "view",
      "type": "function"
    },
    {
      "inputs": [
        {
          "internalType": "bytes32",
          "name": "role",
          "type": "bytes32"
        },
        {
          "internalType": "uint256",
          "name": "index",
          "type": "uint256"
        }
      ],
      "name": "getRoleMember",
      "outputs": [
        {
          "internalType": "address",
          "name": "",
          "type": "address"
        }
      ],
      "stateMutability": "view",
      "type": "function"
    },
    {
      "inputs": [
        {
          "internalType": "bytes32",
          "name": "role",
          "type": "bytes32"
        }
      ],
      "name": "getRoleMemberCount",
      "outputs": [
        {
          "internalType": "uint256",
          "name": "",
          "type": "uint256"
        }
      ],
      "stateMutability": "view",
      "type": "function"
    },
    {
      "inputs": [
        {
          "internalType": "bytes32",
          "name": "role",
          "type": "bytes32"
        },
        {
          "internalType": "address",
          "name": "account",
          "type": "address"
        }
      ],
      "name": "grantRole",
      "outputs": [],
      "stateMutability": "nonpayable",
      "type": "function"
    },
    {
      "inputs": [
        {
          "internalType": "bytes32",
          "name": "role",
          "type": "bytes32"
        },
        {
          "internalType": "address",
          "name": "account",
          "type": "address"
        }
      ],
      "name": "hasRole",
      "outputs": [
        {
          "internalType": "bool",
          "name": "",
          "type": "bool"
        }
      ],
      "stateMutability": "view",
      "type": "function"
    },
    {
      "inputs": [
        {
          "internalType": "address",
          "name": "defaultAdmin",
          "type": "address"
        }
      ],
      "name": "initialize",
      "outputs": [],
      "stateMutability": "nonpayable",
      "type": "function"
    },
    {
      "inputs": [
        {
          "internalType": "address",
          "name": "",
          "type": "address"
        }
      ],
      "name": "lastMintedAt",
      "outputs": [
        {
          "internalType": "uint256",
          "name": "",
          "type": "uint256"
        }
      ],
      "stateMutability": "view",
      "type": "function"
    },
    {
      "inputs": [],
      "name": "pause",
      "outputs": [],
      "stateMutability": "nonpayable",
      "type": "function"
    },
    {
      "inputs": [],
      "name": "paused",
      "outputs": [
        {
          "internalType": "bool",
          "name": "",
          "type": "bool"
        }
      ],
      "stateMutability": "view",
      "type": "function"
    },
    {
      "inputs": [],
      "name": "proxiableUUID",
      "outputs": [
        {
          "internalType": "bytes32",
          "name": "",
          "type": "bytes32"
        }
      ],
      "stateMutability": "view",
      "type": "function"
    },
    {
      "inputs": [
        {
          "internalType": "bytes32",
          "name": "role",
          "type": "bytes32"
        },
        {
          "internalType": "address",
          "name": "callerConfirmation",
          "type": "address"
        }
      ],
      "name": "renounceRole",
      "outputs": [],
      "stateMutability": "nonpayable",
      "type": "function"
    },
    {
      "inputs": [
        {
          "internalType": "bytes32",
          "name": "role",
          "type": "bytes32"
        },
        {
          "internalType": "address",
          "name": "account",
          "type": "address"
        }
      ],
      "name": "revokeRole",
      "outputs": [],
      "stateMutability": "nonpayable",
      "type": "function"
    },
    {
      "inputs": [],
      "name": "signer",
      "outputs": [
        {
          "internalType": "address",
          "name": "",
          "type": "address"
        }
      ],
      "stateMutability": "view",
      "type": "function"
    },
    {
      "inputs": [
        {
          "internalType": "address",
          "name": "",
          "type": "address"
        }
      ],
      "name": "supportAssToken",
      "outputs": [
        {
          "internalType": "address",
          "name": "assTokenAddress",
          "type": "address"
        },
        {
          "internalType": "address",
          "name": "sourceTokenAddress",
          "type": "address"
        },
        {
          "internalType": "uint8",
          "name": "sourceTokenDecimals",
          "type": "uint8"
        },
        {
          "internalType": "uint256",
          "name": "exchangeRate",
          "type": "uint256"
        },
        {
          "internalType": "uint256",
          "name": "exchangeRateTimestamp",
          "type": "uint256"
        },
        {
          "internalType": "bool",
          "name": "depositEnabled",
          "type": "bool"
        },
        {
          "internalType": "bool",
          "name": "withdrawEnabled",
          "type": "bool"
        }
      ],
      "stateMutability": "view",
      "type": "function"
    },
    {
      "inputs": [
        {
          "internalType": "address",
          "name": "",
          "type": "address"
        }
      ],
      "name": "supportSourceToken",
      "outputs": [
        {
          "internalType": "address",
          "name": "",
          "type": "address"
        }
      ],
      "stateMutability": "view",
      "type": "function"
    },
    {
      "inputs": [
        {
          "internalType": "bytes4",
          "name": "interfaceId",
          "type": "bytes4"
        }
      ],
      "name": "supportsInterface",
      "outputs": [
        {
          "internalType": "bool",
          "name": "",
          "type": "bool"
        }
      ],
      "stateMutability": "view",
      "type": "function"
    },
    {
      "inputs": [
        {
          "internalType": "address",
          "name": "",
          "type": "address"
        }
      ],
      "name": "treasury",
      "outputs": [
        {
          "internalType": "uint256",
          "name": "",
          "type": "uint256"
        }
      ],
      "stateMutability": "view",
      "type": "function"
    },
    {
      "inputs": [],
      "name": "unpause",
      "outputs": [],
      "stateMutability": "nonpayable",
      "type": "function"
    },
    {
      "inputs": [
        {
          "internalType": "address",
          "name": "assTokenAddress",
          "type": "address"
        },
        {
          "internalType": "bool",
          "name": "enabled",
          "type": "bool"
        }
      ],
      "name": "updateDepositEnabled",
      "outputs": [],
      "stateMutability": "nonpayable",
      "type": "function"
    },
    {
      "inputs": [
        {
          "internalType": "address",
          "name": "assTokenAddress",
          "type": "address"
        },
        {
          "internalType": "bool",
          "name": "enabled",
          "type": "bool"
        }
      ],
      "name": "updateWithdrawEnabled",
      "outputs": [],
      "stateMutability": "nonpayable",
      "type": "function"
    },
    {
      "inputs": [
        {
          "internalType": "address",
          "name": "newImplementation",
          "type": "address"
        },
        {
          "internalType": "bytes",
          "name": "data",
          "type": "bytes"
        }
      ],
      "name": "upgradeToAndCall",
      "outputs": [],
      "stateMutability": "payable",
      "type": "function"
    }
  ],
  "transactionHash": "0x850b35fe681f215615fd65a7385cb411ae7866fabc30bc78d2a58da0851c38a6",
  "args": [
    "0xae13d989daC2f0dEbFf460aC112a837C89BAa7cd"
  ],
  "numDeployments": 11,
  "solcInputHash": "7c4574cd703346697fb78d853b5cbb3b",
  "bytecode": "0x60e0604052306080523480156200001557600080fd5b50604051620025203803806200252083398101604081905262000038916200010a565b6001600160a01b03811660c0526200004f62000056565b506200013c565b7ff0c57e16840df040f15088dc2f81fe391c3923bec73e23a9662efc9c229c6a00805468010000000000000000900460ff1615620000a75760405163f92ee8a960e01b815260040160405180910390fd5b80546001600160401b0390811614620001075780546001600160401b0319166001600160401b0390811782556040519081527fc7f505b2f371ae2175ee4913f4499e1f2633a7b5936321eed1cdaeb6115181d29060200160405180910390a15b50565b6000602082840312156200011d57600080fd5b81516001600160a01b03811681146200013557600080fd5b9392505050565b60805160a05160c051612398620001886000396000818161033c01528181610cb801526117f80152600061040f0152600081816114010152818161142a015261158d01526123986000f3fe6080604052600436106101ee5760003560e01c80635c975abb1161010d578063c4d66de8116100a0578063e3d670d71161006f578063e3d670d7146105f0578063e5facdf914610610578063e616095214610630578063f72c0d8b146106e8578063fea4db361461071c57600080fd5b8063c4d66de814610588578063ca15c873146105a8578063d547741f146105c8578063db6b5246146105e857600080fd5b806391d14854116100dc57806391d14854146104f5578063a217fddf14610515578063aad2b7231461052a578063ad3cb1cc1461054a57600080fd5b80635c975abb1461047957806375b238fc1461049e5780638456cb59146104c05780639010d07c146104d557600080fd5b806336568abe11610185578063431c183011610154578063431c1830146103fd57806347e7ef24146104315780634f1ef2861461045157806352d1902d1461046457600080fd5b806336568abe1461035e578063389ed2671461037e5780633e110bb1146103b25780633f4ba83a146103e857600080fd5b80632852cce6116101c15780632852cce6146102bb5780632d809cb6146102dd5780632f2ff15d1461030a578063362b67951461032a57600080fd5b806301ffc9a7146101f35780631dfe565914610228578063238ac93314610263578063248a9ca31461029b575b600080fd5b3480156101ff57600080fd5b5061021361020e366004611def565b61073c565b60405190151581526020015b60405180910390f35b34801561023457600080fd5b50610255610243366004611e35565b60046020526000908152604090205481565b60405190815260200161021f565b34801561026f57600080fd5b50600054610283906001600160a01b031681565b6040516001600160a01b03909116815260200161021f565b3480156102a757600080fd5b506102556102b6366004611e50565b610767565b3480156102c757600080fd5b506102db6102d6366004611e77565b610789565b005b3480156102e957600080fd5b506102556102f8366004611e35565b60036020526000908152604090205481565b34801561031657600080fd5b506102db610325366004611eae565b61086d565b34801561033657600080fd5b506102837f000000000000000000000000000000000000000000000000000000000000000081565b34801561036a57600080fd5b506102db610379366004611eae565b61088f565b34801561038a57600080fd5b506102557f139c2898040ef16910dc9f44dc697df79363da767d8bc92f2e310312b816e46d81565b3480156103be57600080fd5b506102836103cd366004611e35565b6002602052600090815260409020546001600160a01b031681565b3480156103f457600080fd5b506102db6108c7565b34801561040957600080fd5b506102837f000000000000000000000000000000000000000000000000000000000000000081565b34801561043d57600080fd5b506102db61044c366004611eda565b6108fc565b6102db61045f366004611f1a565b61095f565b34801561047057600080fd5b5061025561097e565b34801561048557600080fd5b506000805160206123238339815191525460ff16610213565b3480156104aa57600080fd5b5061025560008051602061234383398151915281565b3480156104cc57600080fd5b506102db61099b565b3480156104e157600080fd5b506102836104f0366004611fdc565b6109cd565b34801561050157600080fd5b50610213610510366004611eae565b6109fc565b34801561052157600080fd5b50610255600081565b34801561053657600080fd5b506102db610545366004611e35565b610a34565b34801561055657600080fd5b5061057b604051806040016040528060058152602001640352e302e360dc1b81525081565b60405161021f9190612022565b34801561059457600080fd5b506102db6105a3366004611e35565b610ad5565b3480156105b457600080fd5b506102556105c3366004611e50565b610c19565b3480156105d457600080fd5b506102db6105e3366004611eae565b610c46565b6102db610c62565b3480156105fc57600080fd5b5061025561060b366004611e35565b610ce5565b34801561061c57600080fd5b506102db61062b366004611e77565b610d50565b34801561063c57600080fd5b5061069e61064b366004611e35565b6001602081905260009182526040909120805491810154600282015460038301546004909301546001600160a01b039485169483169360ff600160a01b9094048416939091808216916101009091041687565b604080516001600160a01b03988916815297909616602088015260ff909416948601949094526060850191909152608084015290151560a0830152151560c082015260e00161021f565b3480156106f457600080fd5b506102557f189ab7a9244df0848122154315af71fe140f3db0fe014031783b0946b8c9d2e381565b34801561072857600080fd5b506102db610737366004612055565b610e34565b60006001600160e01b03198216635a05180f60e01b148061076157506107618261100b565b92915050565b6000908152600080516020612303833981519152602052604090206001015490565b6000805160206123438339815191526107a181611040565b6001600160a01b0383166107c85760405163d92e233d60e01b815260040160405180910390fd5b6001600160a01b03808416600090815260016020526040902080549091166108235760405162461bcd60e51b8152602060048201526009602482015268139bdd08195e1a5cdd60ba1b60448201526064015b60405180910390fd5b60048101805460ff19168415151790556040516001600160a01b038516907f94db39dd027bad24ab9d3bb3f2380fc18cba5d18b7b504015c1241108f6b0f9690600090a250505050565b61087682610767565b61087f81611040565b610889838361104a565b50505050565b6001600160a01b03811633146108b85760405163334bd91960e11b815260040160405180910390fd5b6108c2828261108f565b505050565b7f139c2898040ef16910dc9f44dc697df79363da767d8bc92f2e310312b816e46d6108f181611040565b6108f96110cb565b50565b60026005540361093f5760405162461bcd60e51b815260206004820152600e60248201526d1c99595b9d1c985b9d0818d85b1b60921b604482015260640161081a565b600260055561094c61112b565b610956828261115e565b50506001600555565b6109676113f6565b6109708261149b565b61097a82826114c5565b5050565b6000610988611582565b506000805160206122e383398151915290565b7f139c2898040ef16910dc9f44dc697df79363da767d8bc92f2e310312b816e46d6109c581611040565b6108f96115cb565b60008281526000805160206122c38339815191526020819052604082206109f49084611614565b949350505050565b6000918252600080516020612303833981519152602090815260408084206001600160a01b0393909316845291905290205460ff1690565b600080516020612343833981519152610a4c81611040565b6001600160a01b038216610a735760405163d92e233d60e01b815260040160405180910390fd5b600080546001600160a01b038481166001600160a01b031983168117909355604080519190921680825260208201939093527fd8566abab13c9e93c8e191dfb69d3c03ec14adb9eb4ec142617e76169db44e3d910160405180910390a1505050565b7ff0c57e16840df040f15088dc2f81fe391c3923bec73e23a9662efc9c229c6a008054600160401b810460ff16159067ffffffffffffffff16600081158015610b1b5750825b905060008267ffffffffffffffff166001148015610b385750303b155b905081158015610b46575080155b15610b645760405163f92ee8a960e01b815260040160405180910390fd5b845467ffffffffffffffff191660011785558315610b8e57845460ff60401b1916600160401b1785555b610b96611620565b610b9e611630565b610ba6611630565b610bb160008761104a565b50610bca6000805160206123438339815191528761104a565b508315610c1157845460ff60401b19168555604051600181527fc7f505b2f371ae2175ee4913f4499e1f2633a7b5936321eed1cdaeb6115181d29060200160405180910390a15b505050505050565b60008181526000805160206122c3833981519152602081905260408220610c3f90611638565b9392505050565b610c4f82610767565b610c5881611040565b610889838361108f565b600260055403610ca55760405162461bcd60e51b815260206004820152600e60248201526d1c99595b9d1c985b9d0818d85b1b60921b604482015260640161081a565b6002600555610cb261112b565b34610cdd7f00000000000000000000000000000000000000000000000000000000000000008261115e565b506001600555565b6040516370a0823160e01b81523060048201526000906001600160a01b038316906370a0823190602401602060405180830381865afa158015610d2c573d6000803e3d6000fd5b505050506040513d601f19601f8201168201806040525081019061076191906120b9565b600080516020612343833981519152610d6881611040565b6001600160a01b038316610d8f5760405163d92e233d60e01b815260040160405180910390fd5b6001600160a01b0380841660009081526001602052604090208054909116610de55760405162461bcd60e51b8152602060048201526009602482015268139bdd08195e1a5cdd60ba1b604482015260640161081a565b60048101805461ff001916610100851515021790556040516001600160a01b038516907f0d18d132623149877ad3779b389ee3d24fd6adf9d7e5e0f0db1856fc45f09b3790600090a250505050565b600080516020612343833981519152610e4c81611040565b6001600160a01b0386161580610e6957506001600160a01b038516155b15610e875760405163d92e233d60e01b815260040160405180910390fd5b6000856001600160a01b031663313ce5676040518163ffffffff1660e01b8152600401602060405180830381865afa158015610ec7573d6000803e3d6000fd5b505050506040513d601f19601f82011682018060405250810190610eeb91906120d2565b6001600160a01b0380891660009081526001602052604090208054929350911615610f485760405162461bcd60e51b815260206004820152600d60248201526c111d5c1b1a58d85d1948185919609a1b604482015260640161081a565b80546001600160a01b03199081166001600160a01b038a811691821784556001840180548b83166001600160a81b031990911617600160a01b60ff88160217908190556305f5e100600280870191909155600386018b905560048601805461ffff19168b151561ff001916176101008b15150217905591166000908152602091909152604080822080549094168317909355915190917fe473c74f34be27c1464d6624f14a0d7fd4e301cbfa29c3eba425d378c8a7ebe091a25050505050505050565b60006001600160e01b03198216637965db0b60e01b148061076157506301ffc9a760e01b6001600160e01b0319831614610761565b6108f98133611642565b60006000805160206122c383398151915281611066858561167b565b905080156109f45760008581526020839052604090206110869085611720565b50949350505050565b60006000805160206122c3833981519152816110ab8585611735565b905080156109f457600085815260208390526040902061108690856117b1565b6110d36117c6565b600080516020612323833981519152805460ff191681557f5db9ee0a495bf2e6ff9c91a7834c1ba4fdd244a5e8aa4e537bd38aeae4b073aa335b6040516001600160a01b03909116815260200160405180910390a150565b6000805160206123238339815191525460ff161561115c5760405163d93c066560e01b815260040160405180910390fd5b565b6001600160a01b0382166111855760405163d92e233d60e01b815260040160405180910390fd5b806000036111a657604051631f2a200560e01b815260040160405180910390fd5b6001600160a01b0380831660009081526002602052604090205416806112055760405162461bcd60e51b815260206004820152601460248201527318dd5c9c995b98de481b9bdd081cdd5c1c1bdc9d60621b604482015260640161081a565b6001600160a01b03811660009081526001602081905260409091206004810154909160ff90911615151461126b5760405162461bcd60e51b815260206004820152600d60248201526c14185d5cd94819195c1bdcda5d609a1b604482015260640161081a565b806003015442106112ae5760405162461bcd60e51b815260206004820152600d60248201526c141c9a58d948195e1c1a5c9959609a1b604482015260640161081a565b60018101546000906112cb90600160a01b900460ff16600a6121ef565b82600201546112da91906121fe565b6112ef856a52b7d2dcc80cd2e40000006121fe565b6112f99190612215565b90506113068533866117f6565b6001600160a01b0385166000908152600360205260408120805486929061132e908490612237565b90915550503360008181526004602081905260409182902042905590516340c10f1960e01b815290810191909152602481018290526001600160a01b038416906340c10f1990604401600060405180830381600087803b15801561139157600080fd5b505af11580156113a5573d6000803e3d6000fd5b505060408051878152602081018590526001600160a01b03891693503392507fe71cb8240476607856e71df1e75b2ab6b0e3dd0b9b81248ae56be06c98dfe4de910160405180910390a35050505050565b306001600160a01b037f000000000000000000000000000000000000000000000000000000000000000016148061147d57507f00000000000000000000000000000000000000000000000000000000000000006001600160a01b03166114716000805160206122e3833981519152546001600160a01b031690565b6001600160a01b031614155b1561115c5760405163703e46dd60e11b815260040160405180910390fd5b7f189ab7a9244df0848122154315af71fe140f3db0fe014031783b0946b8c9d2e361097a81611040565b816001600160a01b03166352d1902d6040518163ffffffff1660e01b8152600401602060405180830381865afa92505050801561151f575060408051601f3d908101601f1916820190925261151c918101906120b9565b60015b61154757604051634c9c8ce360e01b81526001600160a01b038316600482015260240161081a565b6000805160206122e3833981519152811461157857604051632a87526960e21b81526004810182905260240161081a565b6108c283836118e6565b306001600160a01b037f0000000000000000000000000000000000000000000000000000000000000000161461115c5760405163703e46dd60e11b815260040160405180910390fd5b6115d361112b565b600080516020612323833981519152805460ff191660011781557f62e78cea01bee320cd4e420270b5ea74000d11b0c9f74754ebdbfc544b05a2583361110d565b6000610c3f838361193c565b611628611966565b61115c6119af565b61115c611966565b6000610761825490565b61164c82826109fc565b61097a5760405163e2517d3f60e01b81526001600160a01b03821660048201526024810183905260440161081a565b600060008051602061230383398151915261169684846109fc565b611716576000848152602082815260408083206001600160a01b03871684529091529020805460ff191660011790556116cc3390565b6001600160a01b0316836001600160a01b0316857f2f8788117e7eff1d82e926ec794901d17c78024a50270940304540a733656f0d60405160405180910390a46001915050610761565b6000915050610761565b6000610c3f836001600160a01b0384166119d0565b600060008051602061230383398151915261175084846109fc565b15611716576000848152602082815260408083206001600160a01b0387168085529252808320805460ff1916905551339287917ff6391f5c32d9c69d2a47ea670b442974b53935d1edc7fd64eb21e047a839171b9190a46001915050610761565b6000610c3f836001600160a01b038416611a1f565b6000805160206123238339815191525460ff1661115c57604051638dfc202b60e01b815260040160405180910390fd5b7f00000000000000000000000000000000000000000000000000000000000000006001600160a01b0316836001600160a01b031614611844576108c26001600160a01b038416833084611b08565b8034101561188d5760405162461bcd60e51b8152602060048201526016602482015275696e73756666696369656e74207472616e736665727360501b604482015260640161081a565b826001600160a01b031663d0e30db0826040518263ffffffff1660e01b81526004016000604051808303818588803b1580156118c857600080fd5b505af11580156118dc573d6000803e3d6000fd5b5050505050505050565b6118ef82611b62565b6040516001600160a01b038316907fbc7cd75a20ee27fd9adebab32041f755214dbc6bffa90cc0225b39da2e5c2d3b90600090a2805115611934576108c28282611bc7565b61097a611c3d565b60008260000182815481106119535761195361224a565b9060005260206000200154905092915050565b7ff0c57e16840df040f15088dc2f81fe391c3923bec73e23a9662efc9c229c6a0054600160401b900460ff1661115c57604051631afcd79f60e31b815260040160405180910390fd5b6119b7611966565b600080516020612323833981519152805460ff19169055565b6000818152600183016020526040812054611a1757508154600181810184556000848152602080822090930184905584548482528286019093526040902091909155610761565b506000610761565b60008181526001830160205260408120548015611716576000611a43600183612260565b8554909150600090611a5790600190612260565b9050808214611abc576000866000018281548110611a7757611a7761224a565b9060005260206000200154905080876000018481548110611a9a57611a9a61224a565b6000918252602080832090910192909255918252600188019052604090208390555b8554869080611acd57611acd612273565b600190038181906000526020600020016000905590558560010160008681526020019081526020016000206000905560019350505050610761565b604080516001600160a01b0385811660248301528416604482015260648082018490528251808303909101815260849091019091526020810180516001600160e01b03166323b872dd60e01b179052610889908590611c5c565b806001600160a01b03163b600003611b9857604051634c9c8ce360e01b81526001600160a01b038216600482015260240161081a565b6000805160206122e383398151915280546001600160a01b0319166001600160a01b0392909216919091179055565b6060600080846001600160a01b031684604051611be49190612289565b600060405180830381855af49150503d8060008114611c1f576040519150601f19603f3d011682016040523d82523d6000602084013e611c24565b606091505b5091509150611c34858383611cbf565b95945050505050565b341561115c5760405163b398979f60e01b815260040160405180910390fd5b6000611c716001600160a01b03841683611d1b565b90508051600014158015611c96575080806020019051810190611c9491906122a5565b155b156108c257604051635274afe760e01b81526001600160a01b038416600482015260240161081a565b606082611cd457611ccf82611d29565b610c3f565b8151158015611ceb57506001600160a01b0384163b155b15611d1457604051639996b31560e01b81526001600160a01b038516600482015260240161081a565b5092915050565b6060610c3f83836000611d52565b805115611d395780518082602001fd5b604051630a12f52160e11b815260040160405180910390fd5b606081471015611d775760405163cd78605960e01b815230600482015260240161081a565b600080856001600160a01b03168486604051611d939190612289565b60006040518083038185875af1925050503d8060008114611dd0576040519150601f19603f3d011682016040523d82523d6000602084013e611dd5565b606091505b5091509150611de5868383611cbf565b9695505050505050565b600060208284031215611e0157600080fd5b81356001600160e01b031981168114610c3f57600080fd5b80356001600160a01b0381168114611e3057600080fd5b919050565b600060208284031215611e4757600080fd5b610c3f82611e19565b600060208284031215611e6257600080fd5b5035919050565b80151581146108f957600080fd5b60008060408385031215611e8a57600080fd5b611e9383611e19565b91506020830135611ea381611e69565b809150509250929050565b60008060408385031215611ec157600080fd5b82359150611ed160208401611e19565b90509250929050565b60008060408385031215611eed57600080fd5b611ef683611e19565b946020939093013593505050565b634e487b7160e01b600052604160045260246000fd5b60008060408385031215611f2d57600080fd5b611f3683611e19565b9150602083013567ffffffffffffffff80821115611f5357600080fd5b818501915085601f830112611f6757600080fd5b813581811115611f7957611f79611f04565b604051601f8201601f19908116603f01168101908382118183101715611fa157611fa1611f04565b81604052828152886020848701011115611fba57600080fd5b8260208601602083013760006020848301015280955050505050509250929050565b60008060408385031215611fef57600080fd5b50508035926020909101359150565b60005b83811015612019578181015183820152602001612001565b50506000910152565b6020815260008251806020840152612041816040850160208701611ffe565b601f01601f19169190910160400192915050565b600080600080600060a0868803121561206d57600080fd5b61207686611e19565b945061208460208701611e19565b935060408601359250606086013561209b81611e69565b915060808601356120ab81611e69565b809150509295509295909350565b6000602082840312156120cb57600080fd5b5051919050565b6000602082840312156120e457600080fd5b815160ff81168114610c3f57600080fd5b634e487b7160e01b600052601160045260246000fd5b600181815b8085111561214657816000190482111561212c5761212c6120f5565b8085161561213957918102915b93841c9390800290612110565b509250929050565b60008261215d57506001610761565b8161216a57506000610761565b8160018114612180576002811461218a576121a6565b6001915050610761565b60ff84111561219b5761219b6120f5565b50506001821b610761565b5060208310610133831016604e8410600b84101617156121c9575081810a610761565b6121d3838361210b565b80600019048211156121e7576121e76120f5565b029392505050565b6000610c3f60ff84168361214e565b8082028115828204841417610761576107616120f5565b60008261223257634e487b7160e01b600052601260045260246000fd5b500490565b80820180821115610761576107616120f5565b634e487b7160e01b600052603260045260246000fd5b81810381811115610761576107616120f5565b634e487b7160e01b600052603160045260246000fd5b6000825161229b818460208701611ffe565b9190910192915050565b6000602082840312156122b757600080fd5b8151610c3f81611e6956fec1f6fe24621ce81ec5827caf0253cadb74709b061630e6b55e82371705932000360894a13ba1a3210667c828492db98dca3e2076cc3735a920a3ca505d382bbc02dd7bc7dec4dceedda775e58dd541e08a116c6c53815c0bd028192f7b626800cd5ed15c6e187e77e9aee88184c21f4f2182ab5827cb3b7e07fbedcd63f03300a49807205ce4d355092ef5a8a18f56e8913cf4a201fbe287825b095693c21775a26469706673582212207485379924041be46964dc9cfd6563fb2d86b0c89eb752ff71bad48ca7c4c6ad64736f6c63430008160033",
  "devdoc": {
    "errors": {
      "AccessControlBadConfirmation()": [
        {
          "details": "The caller of a function is not the expected one. NOTE: Don't confuse with {AccessControlUnauthorizedAccount}."
        }
      ],
      "AccessControlUnauthorizedAccount(address,bytes32)": [
        {
          "details": "The `account` is missing a role."
        }
      ],
      "AddressEmptyCode(address)": [
        {
          "details": "There's no code at `target` (it is not a contract)."
        }
      ],
      "AddressInsufficientBalance(address)": [
        {
          "details": "The ETH balance of the account is not enough to perform the operation."
        }
      ],
      "ERC1967InvalidImplementation(address)": [
        {
          "details": "The `implementation` of the proxy is invalid."
        }
      ],
      "ERC1967NonPayable()": [
        {
          "details": "An upgrade function sees `msg.value > 0` that may be lost."
        }
      ],
      "EnforcedPause()": [
        {
          "details": "The operation failed because the contract is paused."
        }
      ],
      "ExpectedPause()": [
        {
          "details": "The operation failed because the contract is not paused."
        }
      ],
      "FailedInnerCall()": [
        {
          "details": "A call to an address target failed. The target may have reverted."
        }
      ],
      "InvalidInitialization()": [
        {
          "details": "The contract is already initialized."
        }
      ],
      "NotInitializing()": [
        {
          "details": "The contract is not initializing."
        }
      ],
      "SafeERC20FailedOperation(address)": [
        {
          "details": "An operation with an ERC20 token failed."
        }
      ],
      "UUPSUnauthorizedCallContext()": [
        {
          "details": "The call is from an unauthorized context."
        }
      ],
      "UUPSUnsupportedProxiableUUID(bytes32)": [
        {
          "details": "The storage `slot` is unsupported as a UUID."
        }
      ]
    },
    "events": {
      "Initialized(uint64)": {
        "details": "Triggered when the contract has been initialized or reinitialized."
      },
      "Paused(address)": {
        "details": "Emitted when the pause is triggered by `account`."
      },
      "RoleAdminChanged(bytes32,bytes32,bytes32)": {
        "details": "Emitted when `newAdminRole` is set as ``role``'s admin role, replacing `previousAdminRole` `DEFAULT_ADMIN_ROLE` is the starting admin for all roles, despite {RoleAdminChanged} not being emitted signaling this."
      },
      "RoleGranted(bytes32,address,address)": {
        "details": "Emitted when `account` is granted `role`. `sender` is the account that originated the contract call, an admin role bearer except when using {AccessControl-_setupRole}."
      },
      "RoleRevoked(bytes32,address,address)": {
        "details": "Emitted when `account` is revoked `role`. `sender` is the account that originated the contract call:   - if using `revokeRole`, it is the admin role bearer   - if using `renounceRole`, it is the role bearer (i.e. `account`)"
      },
      "Unpaused(address)": {
        "details": "Emitted when the pause is lifted by `account`."
      },
      "Upgraded(address)": {
        "details": "Emitted when the implementation is upgraded."
      }
    },
    "kind": "dev",
    "methods": {
      "constructor": {
        "custom:oz-upgrades-unsafe-allow": "constructor"
      },
      "getRoleAdmin(bytes32)": {
        "details": "Returns the admin role that controls `role`. See {grantRole} and {revokeRole}. To change a role's admin, use {_setRoleAdmin}."
      },
      "getRoleMember(bytes32,uint256)": {
        "details": "Returns one of the accounts that have `role`. `index` must be a value between 0 and {getRoleMemberCount}, non-inclusive. Role bearers are not sorted in any particular way, and their ordering may change at any point. WARNING: When using {getRoleMember} and {getRoleMemberCount}, make sure you perform all queries on the same block. See the following https://forum.openzeppelin.com/t/iterating-over-elements-on-enumerableset-in-openzeppelin-contracts/2296[forum post] for more information."
      },
      "getRoleMemberCount(bytes32)": {
        "details": "Returns the number of accounts that have `role`. Can be used together with {getRoleMember} to enumerate all bearers of a role."
      },
      "grantRole(bytes32,address)": {
        "details": "Grants `role` to `account`. If `account` had not been already granted `role`, emits a {RoleGranted} event. Requirements: - the caller must have ``role``'s admin role. May emit a {RoleGranted} event."
      },
      "hasRole(bytes32,address)": {
        "details": "Returns `true` if `account` has been granted `role`."
      },
      "paused()": {
        "details": "Returns true if the contract is paused, and false otherwise."
      },
      "proxiableUUID()": {
        "details": "Implementation of the ERC1822 {proxiableUUID} function. This returns the storage slot used by the implementation. It is used to validate the implementation's compatibility when performing an upgrade. IMPORTANT: A proxy pointing at a proxiable contract should not be considered proxiable itself, because this risks bricking a proxy that upgrades to it, by delegating to itself until out of gas. Thus it is critical that this function revert if invoked through a proxy. This is guaranteed by the `notDelegated` modifier."
      },
      "renounceRole(bytes32,address)": {
        "details": "Revokes `role` from the calling account. Roles are often managed via {grantRole} and {revokeRole}: this function's purpose is to provide a mechanism for accounts to lose their privileges if they are compromised (such as when a trusted device is misplaced). If the calling account had been revoked `role`, emits a {RoleRevoked} event. Requirements: - the caller must be `callerConfirmation`. May emit a {RoleRevoked} event."
      },
      "revokeRole(bytes32,address)": {
        "details": "Revokes `role` from `account`. If `account` had been granted `role`, emits a {RoleRevoked} event. Requirements: - the caller must have ``role``'s admin role. May emit a {RoleRevoked} event."
      },
      "supportsInterface(bytes4)": {
        "details": "See {IERC165-supportsInterface}."
      },
      "upgradeToAndCall(address,bytes)": {
        "custom:oz-upgrades-unsafe-allow-reachable": "delegatecall",
        "details": "Upgrade the implementation of the proxy to `newImplementation`, and subsequently execute the function call encoded in `data`. Calls {_authorizeUpgrade}. Emits an {Upgraded} event."
      }
    },
    "version": 1
  },
  "userdoc": {
    "kind": "user",
    "methods": {},
    "version": 1
  },
  "storageLayout": {
    "storage": [
      {
        "astId": 3704,
        "contract": "contracts/AstherusEarnVault.sol:AstherusEarnVault",
        "label": "signer",
        "offset": 0,
        "slot": "0",
        "type": "t_address"
      },
      {
        "astId": 3709,
        "contract": "contracts/AstherusEarnVault.sol:AstherusEarnVault",
        "label": "supportAssToken",
        "offset": 0,
        "slot": "1",
        "type": "t_mapping(t_address,t_struct(Token)3698_storage)"
      },
      {
        "astId": 3713,
        "contract": "contracts/AstherusEarnVault.sol:AstherusEarnVault",
        "label": "supportSourceToken",
        "offset": 0,
        "slot": "2",
        "type": "t_mapping(t_address,t_address)"
      },
      {
        "astId": 3717,
        "contract": "contracts/AstherusEarnVault.sol:AstherusEarnVault",
        "label": "treasury",
        "offset": 0,
        "slot": "3",
        "type": "t_mapping(t_address,t_uint256)"
      },
      {
        "astId": 3721,
        "contract": "contracts/AstherusEarnVault.sol:AstherusEarnVault",
        "label": "lastMintedAt",
        "offset": 0,
        "slot": "4",
        "type": "t_mapping(t_address,t_uint256)"
      },
      {
        "astId": 3723,
        "contract": "contracts/AstherusEarnVault.sol:AstherusEarnVault",
        "label": "status",
        "offset": 0,
        "slot": "5",
        "type": "t_uint256"
      }
    ],
    "types": {
      "t_address": {
        "encoding": "inplace",
        "label": "address",
        "numberOfBytes": "20"
      },
      "t_bool": {
        "encoding": "inplace",
        "label": "bool",
        "numberOfBytes": "1"
      },
      "t_mapping(t_address,t_address)": {
        "encoding": "mapping",
        "key": "t_address",
        "label": "mapping(address => address)",
        "numberOfBytes": "32",
        "value": "t_address"
      },
      "t_mapping(t_address,t_struct(Token)3698_storage)": {
        "encoding": "mapping",
        "key": "t_address",
        "label": "mapping(address => struct AstherusEarnVault.Token)",
        "numberOfBytes": "32",
        "value": "t_struct(Token)3698_storage"
      },
      "t_mapping(t_address,t_uint256)": {
        "encoding": "mapping",
        "key": "t_address",
        "label": "mapping(address => uint256)",
        "numberOfBytes": "32",
        "value": "t_uint256"
      },
      "t_struct(Token)3698_storage": {
        "encoding": "inplace",
        "label": "struct AstherusEarnVault.Token",
        "members": [
          {
            "astId": 3685,
            "contract": "contracts/AstherusEarnVault.sol:AstherusEarnVault",
            "label": "assTokenAddress",
            "offset": 0,
            "slot": "0",
            "type": "t_address"
          },
          {
            "astId": 3687,
            "contract": "contracts/AstherusEarnVault.sol:AstherusEarnVault",
            "label": "sourceTokenAddress",
            "offset": 0,
            "slot": "1",
            "type": "t_address"
          },
          {
            "astId": 3689,
            "contract": "contracts/AstherusEarnVault.sol:AstherusEarnVault",
            "label": "sourceTokenDecimals",
            "offset": 20,
            "slot": "1",
            "type": "t_uint8"
          },
          {
            "astId": 3691,
            "contract": "contracts/AstherusEarnVault.sol:AstherusEarnVault",
            "label": "exchangeRate",
            "offset": 0,
            "slot": "2",
            "type": "t_uint256"
          },
          {
            "astId": 3693,
            "contract": "contracts/AstherusEarnVault.sol:AstherusEarnVault",
            "label": "exchangeRateTimestamp",
            "offset": 0,
            "slot": "3",
            "type": "t_uint256"
          },
          {
            "astId": 3695,
            "contract": "contracts/AstherusEarnVault.sol:AstherusEarnVault",
            "label": "depositEnabled",
            "offset": 0,
            "slot": "4",
            "type": "t_bool"
          },
          {
            "astId": 3697,
            "contract": "contracts/AstherusEarnVault.sol:AstherusEarnVault",
            "label": "withdrawEnabled",
            "offset": 1,
            "slot": "4",
            "type": "t_bool"
          }
        ],
        "numberOfBytes": "160"
      },
      "t_uint256": {
        "encoding": "inplace",
        "label": "uint256",
        "numberOfBytes": "32"
      },
      "t_uint8": {
        "encoding": "inplace",
        "label": "uint8",
        "numberOfBytes": "1"
      }
    }
  }
}