{
  "address": "0x7735263626caC11E15527c1C6E8e393aaA4e3B0e",
  "abi": [
    {
      "inputs": [
        {
          "internalType": "address",
          "name": "nativeWrapped",
          "type": "address"
        },
        {
          "internalType": "address",
          "name": "timelockAddress",
          "type": "address"
        }
      ],
      "stateMutability": "nonpayable",
      "type": "constructor"
    },
    {
      "inputs": [],
      "name": "AccessControlBadConfirmation",
      "type": "error"
    },
    {
      "inputs": [
        {
          "internalType": "address",
          "name": "account",
          "type": "address"
        },
        {
          "internalType": "bytes32",
          "name": "neededRole",
          "type": "bytes32"
        }
      ],
      "name": "AccessControlUnauthorizedAccount",
      "type": "error"
    },
    {
      "inputs": [
        {
          "internalType": "address",
          "name": "target",
          "type": "address"
        }
      ],
      "name": "AddressEmptyCode",
      "type": "error"
    },
    {
      "inputs": [
        {
          "internalType": "address",
          "name": "account",
          "type": "address"
        }
      ],
      "name": "AddressInsufficientBalance",
      "type": "error"
    },
    {
      "inputs": [
        {
          "internalType": "address",
          "name": "implementation",
          "type": "address"
        }
      ],
      "name": "ERC1967InvalidImplementation",
      "type": "error"
    },
    {
      "inputs": [],
      "name": "ERC1967NonPayable",
      "type": "error"
    },
    {
      "inputs": [],
      "name": "EnforcedPause",
      "type": "error"
    },
    {
      "inputs": [],
      "name": "ExpectedPause",
      "type": "error"
    },
    {
      "inputs": [],
      "name": "FailedInnerCall",
      "type": "error"
    },
    {
      "inputs": [],
      "name": "InvalidInitialization",
      "type": "error"
    },
    {
      "inputs": [],
      "name": "NotInitializing",
      "type": "error"
    },
    {
      "inputs": [
        {
          "internalType": "address",
          "name": "token",
          "type": "address"
        }
      ],
      "name": "SafeERC20FailedOperation",
      "type": "error"
    },
    {
      "inputs": [],
      "name": "UUPSUnauthorizedCallContext",
      "type": "error"
    },
    {
      "inputs": [
        {
          "internalType": "bytes32",
          "name": "slot",
          "type": "bytes32"
        }
      ],
      "name": "UUPSUnsupportedProxiableUUID",
      "type": "error"
    },
    {
      "inputs": [],
      "name": "ZeroAddress",
      "type": "error"
    },
    {
      "inputs": [],
      "name": "ZeroAmount",
      "type": "error"
    },
    {
      "anonymous": false,
      "inputs": [
        {
          "indexed": true,
          "internalType": "address",
          "name": "currency",
          "type": "address"
        }
      ],
      "name": "AddToken",
      "type": "event"
    },
    {
      "anonymous": false,
      "inputs": [
        {
          "indexed": false,
          "internalType": "uint64",
          "name": "version",
          "type": "uint64"
        }
      ],
      "name": "Initialized",
      "type": "event"
    },
    {
      "anonymous": false,
      "inputs": [
        {
          "indexed": true,
          "internalType": "address",
          "name": "sender",
          "type": "address"
        },
        {
          "indexed": true,
          "internalType": "address",
          "name": "sourceTokenAddress",
          "type": "address"
        },
        {
          "indexed": false,
          "internalType": "uint256",
          "name": "amountIn",
          "type": "uint256"
        },
        {
          "indexed": false,
          "internalType": "uint256",
          "name": "assXXXAmount",
          "type": "uint256"
        }
      ],
      "name": "MintAssXXX",
      "type": "event"
    },
    {
      "anonymous": false,
      "inputs": [
        {
          "indexed": false,
          "internalType": "address",
          "name": "oldSigner",
          "type": "address"
        },
        {
          "indexed": false,
          "internalType": "address",
          "name": "newSigner",
          "type": "address"
        }
      ],
      "name": "NewSigner",
      "type": "event"
    },
    {
      "anonymous": false,
      "inputs": [
        {
          "indexed": false,
          "internalType": "address",
          "name": "account",
          "type": "address"
        }
      ],
      "name": "Paused",
      "type": "event"
    },
    {
      "anonymous": false,
      "inputs": [
        {
          "indexed": true,
          "internalType": "bytes32",
          "name": "role",
          "type": "bytes32"
        },
        {
          "indexed": true,
          "internalType": "bytes32",
          "name": "previousAdminRole",
          "type": "bytes32"
        },
        {
          "indexed": true,
          "internalType": "bytes32",
          "name": "newAdminRole",
          "type": "bytes32"
        }
      ],
      "name": "RoleAdminChanged",
      "type": "event"
    },
    {
      "anonymous": false,
      "inputs": [
        {
          "indexed": true,
          "internalType": "bytes32",
          "name": "role",
          "type": "bytes32"
        },
        {
          "indexed": true,
          "internalType": "address",
          "name": "account",
          "type": "address"
        },
        {
          "indexed": true,
          "internalType": "address",
          "name": "sender",
          "type": "address"
        }
      ],
      "name": "RoleGranted",
      "type": "event"
    },
    {
      "anonymous": false,
      "inputs": [
        {
          "indexed": true,
          "internalType": "bytes32",
          "name": "role",
          "type": "bytes32"
        },
        {
          "indexed": true,
          "internalType": "address",
          "name": "account",
          "type": "address"
        },
        {
          "indexed": true,
          "internalType": "address",
          "name": "sender",
          "type": "address"
        }
      ],
      "name": "RoleRevoked",
      "type": "event"
    },
    {
      "anonymous": false,
      "inputs": [
        {
          "indexed": false,
          "internalType": "address",
          "name": "account",
          "type": "address"
        }
      ],
      "name": "Unpaused",
      "type": "event"
    },
    {
      "anonymous": false,
      "inputs": [
        {
          "indexed": true,
          "internalType": "address",
          "name": "currency",
          "type": "address"
        }
      ],
      "name": "UpdateDepositEnabled",
      "type": "event"
    },
    {
      "anonymous": false,
      "inputs": [
        {
          "indexed": true,
          "internalType": "address",
          "name": "currency",
          "type": "address"
        }
      ],
      "name": "UpdateWithdrawEnabled",
      "type": "event"
    },
    {
      "anonymous": false,
      "inputs": [
        {
          "indexed": true,
          "internalType": "address",
          "name": "implementation",
          "type": "address"
        }
      ],
      "name": "Upgraded",
      "type": "event"
    },
    {
      "inputs": [],
      "name": "ADMIN_ROLE",
      "outputs": [
        {
          "internalType": "bytes32",
          "name": "",
          "type": "bytes32"
        }
      ],
      "stateMutability": "view",
      "type": "function"
    },
    {
      "inputs": [],
      "name": "DEFAULT_ADMIN_ROLE",
      "outputs": [
        {
          "internalType": "bytes32",
          "name": "",
          "type": "bytes32"
        }
      ],
      "stateMutability": "view",
      "type": "function"
    },
    {
      "inputs": [],
      "name": "NATIVE_WRAPPED",
      "outputs": [
        {
          "internalType": "address",
          "name": "",
          "type": "address"
        }
      ],
      "stateMutability": "view",
      "type": "function"
    },
    {
      "inputs": [],
      "name": "PAUSE_ROLE",
      "outputs": [
        {
          "internalType": "bytes32",
          "name": "",
          "type": "bytes32"
        }
      ],
      "stateMutability": "view",
      "type": "function"
    },
    {
      "inputs": [],
      "name": "TIMELOCK_ADDRESS",
      "outputs": [
        {
          "internalType": "address",
          "name": "",
          "type": "address"
        }
      ],
      "stateMutability": "view",
      "type": "function"
    },
    {
      "inputs": [],
      "name": "UPGRADE_INTERFACE_VERSION",
      "outputs": [
        {
          "internalType": "string",
          "name": "",
          "type": "string"
        }
      ],
      "stateMutability": "view",
      "type": "function"
    },
    {
      "inputs": [
        {
          "internalType": "address",
          "name": "assTokenAddress",
          "type": "address"
        },
        {
          "internalType": "address",
          "name": "sourceTokenAddress",
          "type": "address"
        },
        {
          "internalType": "uint256",
          "name": "exchangeRateTimestamp",
          "type": "uint256"
        },
        {
          "internalType": "bool",
          "name": "depositEnabled",
          "type": "bool"
        },
        {
          "internalType": "bool",
          "name": "withdrawEnabled",
          "type": "bool"
        }
      ],
      "name": "addToken",
      "outputs": [],
      "stateMutability": "nonpayable",
      "type": "function"
    },
    {
      "inputs": [
        {
          "internalType": "address",
          "name": "currency",
          "type": "address"
        }
      ],
      "name": "balance",
      "outputs": [
        {
          "internalType": "uint256",
          "name": "",
          "type": "uint256"
        }
      ],
      "stateMutability": "view",
      "type": "function"
    },
    {
      "inputs": [
        {
          "internalType": "address",
          "name": "newSigner",
          "type": "address"
        }
      ],
      "name": "changeSigner",
      "outputs": [],
      "stateMutability": "nonpayable",
      "type": "function"
    },
    {
      "inputs": [
        {
          "internalType": "address",
          "name": "sourceTokenAddress",
          "type": "address"
        },
        {
          "internalType": "uint256",
          "name": "amountIn",
          "type": "uint256"
        }
      ],
      "name": "deposit",
      "outputs": [],
      "stateMutability": "nonpayable",
      "type": "function"
    },
    {
      "inputs": [],
      "name": "depositNative",
      "outputs": [],
      "stateMutability": "payable",
      "type": "function"
    },
    {
      "inputs": [
        {
          "internalType": "bytes32",
          "name": "role",
          "type": "bytes32"
        }
      ],
      "name": "getRoleAdmin",
      "outputs": [
        {
          "internalType": "bytes32",
          "name": "",
          "type": "bytes32"
        }
      ],
      "stateMutability": "view",
      "type": "function"
    },
    {
      "inputs": [
        {
          "internalType": "bytes32",
          "name": "role",
          "type": "bytes32"
        },
        {
          "internalType": "uint256",
          "name": "index",
          "type": "uint256"
        }
      ],
      "name": "getRoleMember",
      "outputs": [
        {
          "internalType": "address",
          "name": "",
          "type": "address"
        }
      ],
      "stateMutability": "view",
      "type": "function"
    },
    {
      "inputs": [
        {
          "internalType": "bytes32",
          "name": "role",
          "type": "bytes32"
        }
      ],
      "name": "getRoleMemberCount",
      "outputs": [
        {
          "internalType": "uint256",
          "name": "",
          "type": "uint256"
        }
      ],
      "stateMutability": "view",
      "type": "function"
    },
    {
      "inputs": [
        {
          "internalType": "bytes32",
          "name": "role",
          "type": "bytes32"
        },
        {
          "internalType": "address",
          "name": "account",
          "type": "address"
        }
      ],
      "name": "grantRole",
      "outputs": [],
      "stateMutability": "nonpayable",
      "type": "function"
    },
    {
      "inputs": [
        {
          "internalType": "bytes32",
          "name": "role",
          "type": "bytes32"
        },
        {
          "internalType": "address",
          "name": "account",
          "type": "address"
        }
      ],
      "name": "hasRole",
      "outputs": [
        {
          "internalType": "bool",
          "name": "",
          "type": "bool"
        }
      ],
      "stateMutability": "view",
      "type": "function"
    },
    {
      "inputs": [
        {
          "internalType": "address",
          "name": "defaultAdmin",
          "type": "address"
        }
      ],
      "name": "initialize",
      "outputs": [],
      "stateMutability": "nonpayable",
      "type": "function"
    },
    {
      "inputs": [
        {
          "internalType": "address",
          "name": "",
          "type": "address"
        }
      ],
      "name": "lastMintedAt",
      "outputs": [
        {
          "internalType": "uint256",
          "name": "",
          "type": "uint256"
        }
      ],
      "stateMutability": "view",
      "type": "function"
    },
    {
      "inputs": [],
      "name": "pause",
      "outputs": [],
      "stateMutability": "nonpayable",
      "type": "function"
    },
    {
      "inputs": [],
      "name": "paused",
      "outputs": [
        {
          "internalType": "bool",
          "name": "",
          "type": "bool"
        }
      ],
      "stateMutability": "view",
      "type": "function"
    },
    {
      "inputs": [],
      "name": "proxiableUUID",
      "outputs": [
        {
          "internalType": "bytes32",
          "name": "",
          "type": "bytes32"
        }
      ],
      "stateMutability": "view",
      "type": "function"
    },
    {
      "inputs": [
        {
          "internalType": "bytes32",
          "name": "role",
          "type": "bytes32"
        },
        {
          "internalType": "address",
          "name": "callerConfirmation",
          "type": "address"
        }
      ],
      "name": "renounceRole",
      "outputs": [],
      "stateMutability": "nonpayable",
      "type": "function"
    },
    {
      "inputs": [
        {
          "internalType": "bytes32",
          "name": "role",
          "type": "bytes32"
        },
        {
          "internalType": "address",
          "name": "account",
          "type": "address"
        }
      ],
      "name": "revokeRole",
      "outputs": [],
      "stateMutability": "nonpayable",
      "type": "function"
    },
    {
      "inputs": [],
      "name": "signer",
      "outputs": [
        {
          "internalType": "address",
          "name": "",
          "type": "address"
        }
      ],
      "stateMutability": "view",
      "type": "function"
    },
    {
      "inputs": [
        {
          "internalType": "address",
          "name": "",
          "type": "address"
        }
      ],
      "name": "supportAssToken",
      "outputs": [
        {
          "internalType": "address",
          "name": "assTokenAddress",
          "type": "address"
        },
        {
          "internalType": "address",
          "name": "sourceTokenAddress",
          "type": "address"
        },
        {
          "internalType": "uint8",
          "name": "sourceTokenDecimals",
          "type": "uint8"
        },
        {
          "internalType": "uint256",
          "name": "assToSourceExchangeRate",
          "type": "uint256"
        },
        {
          "internalType": "uint256",
          "name": "exchangeRateTimestamp",
          "type": "uint256"
        },
        {
          "internalType": "bool",
          "name": "depositEnabled",
          "type": "bool"
        },
        {
          "internalType": "bool",
          "name": "withdrawEnabled",
          "type": "bool"
        }
      ],
      "stateMutability": "view",
      "type": "function"
    },
    {
      "inputs": [
        {
          "internalType": "address",
          "name": "",
          "type": "address"
        }
      ],
      "name": "supportSourceToken",
      "outputs": [
        {
          "internalType": "address",
          "name": "",
          "type": "address"
        }
      ],
      "stateMutability": "view",
      "type": "function"
    },
    {
      "inputs": [
        {
          "internalType": "bytes4",
          "name": "interfaceId",
          "type": "bytes4"
        }
      ],
      "name": "supportsInterface",
      "outputs": [
        {
          "internalType": "bool",
          "name": "",
          "type": "bool"
        }
      ],
      "stateMutability": "view",
      "type": "function"
    },
    {
      "inputs": [
        {
          "internalType": "address",
          "name": "",
          "type": "address"
        }
      ],
      "name": "treasury",
      "outputs": [
        {
          "internalType": "uint256",
          "name": "",
          "type": "uint256"
        }
      ],
      "stateMutability": "view",
      "type": "function"
    },
    {
      "inputs": [],
      "name": "unpause",
      "outputs": [],
      "stateMutability": "nonpayable",
      "type": "function"
    },
    {
      "inputs": [
        {
          "internalType": "address",
          "name": "assTokenAddress",
          "type": "address"
        },
        {
          "internalType": "bool",
          "name": "enabled",
          "type": "bool"
        }
      ],
      "name": "updateDepositEnabled",
      "outputs": [],
      "stateMutability": "nonpayable",
      "type": "function"
    },
    {
      "inputs": [
        {
          "internalType": "address",
          "name": "assTokenAddress",
          "type": "address"
        },
        {
          "internalType": "bool",
          "name": "enabled",
          "type": "bool"
        }
      ],
      "name": "updateWithdrawEnabled",
      "outputs": [],
      "stateMutability": "nonpayable",
      "type": "function"
    },
    {
      "inputs": [
        {
          "internalType": "address",
          "name": "newImplementation",
          "type": "address"
        },
        {
          "internalType": "bytes",
          "name": "data",
          "type": "bytes"
        }
      ],
      "name": "upgradeToAndCall",
      "outputs": [],
      "stateMutability": "payable",
      "type": "function"
    }
  ],
  "transactionHash": "0x7617a6662a06a77e64a434368d1e95251ce90b61203511a8cdfef43534d31258",
  "args": [
    "0xae13d989daC2f0dEbFf460aC112a837C89BAa7cd",
    "0x2c4D4ee842E6A778B59437F0A5007C07c5B5726d"
  ],
  "numDeployments": 1,
  "solcInputHash": "e1edaeb22a4a3229e0cd07496a48aad7",
  "bytecode": "0x60e0604052306080523480156200001557600080fd5b50604051620025503803806200255083398101604081905262000038916200012e565b6001600160a01b0380831660c052811660a052620000556200005d565b505062000166565b7ff0c57e16840df040f15088dc2f81fe391c3923bec73e23a9662efc9c229c6a00805468010000000000000000900460ff1615620000ae5760405163f92ee8a960e01b815260040160405180910390fd5b80546001600160401b03908116146200010e5780546001600160401b0319166001600160401b0390811782556040519081527fc7f505b2f371ae2175ee4913f4499e1f2633a7b5936321eed1cdaeb6115181d29060200160405180910390a15b50565b80516001600160a01b03811681146200012957600080fd5b919050565b600080604083850312156200014257600080fd5b6200014d8362000111565b91506200015d6020840162000111565b90509250929050565b60805160a05160c051612397620001b96000396000818161033101528181610c7901526117f701526000818161040401526114670152600081816113c2015281816113eb015261158c01526123976000f3fe6080604052600436106101e35760003560e01c80635c975abb11610102578063c4d66de811610095578063e3d670d711610064578063e3d670d7146105e5578063e5facdf914610605578063e616095214610625578063fea4db36146106dd57600080fd5b8063c4d66de81461057d578063ca15c8731461059d578063d547741f146105bd578063db6b5246146105dd57600080fd5b806391d14854116100d157806391d14854146104ea578063a217fddf1461050a578063aad2b7231461051f578063ad3cb1cc1461053f57600080fd5b80635c975abb1461046e57806375b238fc146104935780638456cb59146104b55780639010d07c146104ca57600080fd5b806336568abe1161017a578063431c183011610149578063431c1830146103f257806347e7ef24146104265780634f1ef2861461044657806352d1902d1461045957600080fd5b806336568abe14610353578063389ed267146103735780633e110bb1146103a75780633f4ba83a146103dd57600080fd5b80632852cce6116101b65780632852cce6146102b05780632d809cb6146102d25780632f2ff15d146102ff578063362b67951461031f57600080fd5b806301ffc9a7146101e85780631dfe56591461021d578063238ac93314610258578063248a9ca314610290575b600080fd5b3480156101f457600080fd5b50610208610203366004611dee565b6106fd565b60405190151581526020015b60405180910390f35b34801561022957600080fd5b5061024a610238366004611e34565b60046020526000908152604090205481565b604051908152602001610214565b34801561026457600080fd5b50600054610278906001600160a01b031681565b6040516001600160a01b039091168152602001610214565b34801561029c57600080fd5b5061024a6102ab366004611e4f565b610728565b3480156102bc57600080fd5b506102d06102cb366004611e76565b61074a565b005b3480156102de57600080fd5b5061024a6102ed366004611e34565b60036020526000908152604090205481565b34801561030b57600080fd5b506102d061031a366004611ead565b61082e565b34801561032b57600080fd5b506102787f000000000000000000000000000000000000000000000000000000000000000081565b34801561035f57600080fd5b506102d061036e366004611ead565b610850565b34801561037f57600080fd5b5061024a7f139c2898040ef16910dc9f44dc697df79363da767d8bc92f2e310312b816e46d81565b3480156103b357600080fd5b506102786103c2366004611e34565b6002602052600090815260409020546001600160a01b031681565b3480156103e957600080fd5b506102d0610888565b3480156103fe57600080fd5b506102787f000000000000000000000000000000000000000000000000000000000000000081565b34801561043257600080fd5b506102d0610441366004611ed9565b6108bd565b6102d0610454366004611f19565b610920565b34801561046557600080fd5b5061024a61093f565b34801561047a57600080fd5b506000805160206123228339815191525460ff16610208565b34801561049f57600080fd5b5061024a60008051602061234283398151915281565b3480156104c157600080fd5b506102d061095c565b3480156104d657600080fd5b506102786104e5366004611fdb565b61098e565b3480156104f657600080fd5b50610208610505366004611ead565b6109bd565b34801561051657600080fd5b5061024a600081565b34801561052b57600080fd5b506102d061053a366004611e34565b6109f5565b34801561054b57600080fd5b50610570604051806040016040528060058152602001640352e302e360dc1b81525081565b6040516102149190612021565b34801561058957600080fd5b506102d0610598366004611e34565b610a96565b3480156105a957600080fd5b5061024a6105b8366004611e4f565b610bda565b3480156105c957600080fd5b506102d06105d8366004611ead565b610c07565b6102d0610c23565b3480156105f157600080fd5b5061024a610600366004611e34565b610ca6565b34801561061157600080fd5b506102d0610620366004611e76565b610d11565b34801561063157600080fd5b50610693610640366004611e34565b6001602081905260009182526040909120805491810154600282015460038301546004909301546001600160a01b039485169483169360ff600160a01b9094048416939091808216916101009091041687565b604080516001600160a01b03988916815297909616602088015260ff909416948601949094526060850191909152608084015290151560a0830152151560c082015260e001610214565b3480156106e957600080fd5b506102d06106f8366004612054565b610df5565b60006001600160e01b03198216635a05180f60e01b1480610722575061072282610fcc565b92915050565b6000908152600080516020612302833981519152602052604090206001015490565b60008051602061234283398151915261076281611001565b6001600160a01b0383166107895760405163d92e233d60e01b815260040160405180910390fd5b6001600160a01b03808416600090815260016020526040902080549091166107e45760405162461bcd60e51b8152602060048201526009602482015268139bdd08195e1a5cdd60ba1b60448201526064015b60405180910390fd5b60048101805460ff19168415151790556040516001600160a01b038516907f94db39dd027bad24ab9d3bb3f2380fc18cba5d18b7b504015c1241108f6b0f9690600090a250505050565b61083782610728565b61084081611001565b61084a838361100b565b50505050565b6001600160a01b03811633146108795760405163334bd91960e11b815260040160405180910390fd5b6108838282611050565b505050565b7f139c2898040ef16910dc9f44dc697df79363da767d8bc92f2e310312b816e46d6108b281611001565b6108ba61108c565b50565b6002600554036109005760405162461bcd60e51b815260206004820152600e60248201526d1c99595b9d1c985b9d0818d85b1b60921b60448201526064016107db565b600260055561090d6110ec565b610917828261111f565b50506001600555565b6109286113b7565b6109318261145c565b61093b82826114c4565b5050565b6000610949611581565b506000805160206122e283398151915290565b7f139c2898040ef16910dc9f44dc697df79363da767d8bc92f2e310312b816e46d61098681611001565b6108ba6115ca565b60008281526000805160206122c28339815191526020819052604082206109b59084611613565b949350505050565b6000918252600080516020612302833981519152602090815260408084206001600160a01b0393909316845291905290205460ff1690565b600080516020612342833981519152610a0d81611001565b6001600160a01b038216610a345760405163d92e233d60e01b815260040160405180910390fd5b600080546001600160a01b038481166001600160a01b031983168117909355604080519190921680825260208201939093527fd8566abab13c9e93c8e191dfb69d3c03ec14adb9eb4ec142617e76169db44e3d910160405180910390a1505050565b7ff0c57e16840df040f15088dc2f81fe391c3923bec73e23a9662efc9c229c6a008054600160401b810460ff16159067ffffffffffffffff16600081158015610adc5750825b905060008267ffffffffffffffff166001148015610af95750303b155b905081158015610b07575080155b15610b255760405163f92ee8a960e01b815260040160405180910390fd5b845467ffffffffffffffff191660011785558315610b4f57845460ff60401b1916600160401b1785555b610b5761161f565b610b5f61162f565b610b6761162f565b610b7260008761100b565b50610b8b6000805160206123428339815191528761100b565b508315610bd257845460ff60401b19168555604051600181527fc7f505b2f371ae2175ee4913f4499e1f2633a7b5936321eed1cdaeb6115181d29060200160405180910390a15b505050505050565b60008181526000805160206122c2833981519152602081905260408220610c0090611637565b9392505050565b610c1082610728565b610c1981611001565b61084a8383611050565b600260055403610c665760405162461bcd60e51b815260206004820152600e60248201526d1c99595b9d1c985b9d0818d85b1b60921b60448201526064016107db565b6002600555610c736110ec565b34610c9e7f00000000000000000000000000000000000000000000000000000000000000008261111f565b506001600555565b6040516370a0823160e01b81523060048201526000906001600160a01b038316906370a0823190602401602060405180830381865afa158015610ced573d6000803e3d6000fd5b505050506040513d601f19601f8201168201806040525081019061072291906120b8565b600080516020612342833981519152610d2981611001565b6001600160a01b038316610d505760405163d92e233d60e01b815260040160405180910390fd5b6001600160a01b0380841660009081526001602052604090208054909116610da65760405162461bcd60e51b8152602060048201526009602482015268139bdd08195e1a5cdd60ba1b60448201526064016107db565b60048101805461ff001916610100851515021790556040516001600160a01b038516907f0d18d132623149877ad3779b389ee3d24fd6adf9d7e5e0f0db1856fc45f09b3790600090a250505050565b600080516020612342833981519152610e0d81611001565b6001600160a01b0386161580610e2a57506001600160a01b038516155b15610e485760405163d92e233d60e01b815260040160405180910390fd5b6000856001600160a01b031663313ce5676040518163ffffffff1660e01b8152600401602060405180830381865afa158015610e88573d6000803e3d6000fd5b505050506040513d601f19601f82011682018060405250810190610eac91906120d1565b6001600160a01b0380891660009081526001602052604090208054929350911615610f095760405162461bcd60e51b815260206004820152600d60248201526c111d5c1b1a58d85d1948185919609a1b60448201526064016107db565b80546001600160a01b03199081166001600160a01b038a811691821784556001840180548b83166001600160a81b031990911617600160a01b60ff88160217908190556305f5e100600280870191909155600386018b905560048601805461ffff19168b151561ff001916176101008b15150217905591166000908152602091909152604080822080549094168317909355915190917fe473c74f34be27c1464d6624f14a0d7fd4e301cbfa29c3eba425d378c8a7ebe091a25050505050505050565b60006001600160e01b03198216637965db0b60e01b148061072257506301ffc9a760e01b6001600160e01b0319831614610722565b6108ba8133611641565b60006000805160206122c283398151915281611027858561167a565b905080156109b5576000858152602083905260409020611047908561171f565b50949350505050565b60006000805160206122c28339815191528161106c8585611734565b905080156109b557600085815260208390526040902061104790856117b0565b6110946117c5565b600080516020612322833981519152805460ff191681557f5db9ee0a495bf2e6ff9c91a7834c1ba4fdd244a5e8aa4e537bd38aeae4b073aa335b6040516001600160a01b03909116815260200160405180910390a150565b6000805160206123228339815191525460ff161561111d5760405163d93c066560e01b815260040160405180910390fd5b565b6001600160a01b0382166111465760405163d92e233d60e01b815260040160405180910390fd5b8060000361116757604051631f2a200560e01b815260040160405180910390fd5b6001600160a01b0380831660009081526002602052604090205416806111c65760405162461bcd60e51b815260206004820152601460248201527318dd5c9c995b98de481b9bdd081cdd5c1c1bdc9d60621b60448201526064016107db565b6001600160a01b03811660009081526001602081905260409091206004810154909160ff90911615151461122c5760405162461bcd60e51b815260206004820152600d60248201526c14185d5cd94819195c1bdcda5d609a1b60448201526064016107db565b8060030154421061126f5760405162461bcd60e51b815260206004820152600d60248201526c141c9a58d948195e1c1a5c9959609a1b60448201526064016107db565b600181015460009061128c90600160a01b900460ff16600a6121ee565b826002015461129b91906121fd565b6112b0856a52b7d2dcc80cd2e40000006121fd565b6112ba9190612214565b90506112c78533866117f5565b6001600160a01b038516600090815260036020526040812080548692906112ef908490612236565b90915550503360008181526004602081905260409182902042905590516340c10f1960e01b815290810191909152602481018290526001600160a01b038416906340c10f1990604401600060405180830381600087803b15801561135257600080fd5b505af1158015611366573d6000803e3d6000fd5b505060408051878152602081018590526001600160a01b03891693503392507fe71cb8240476607856e71df1e75b2ab6b0e3dd0b9b81248ae56be06c98dfe4de910160405180910390a35050505050565b306001600160a01b037f000000000000000000000000000000000000000000000000000000000000000016148061143e57507f00000000000000000000000000000000000000000000000000000000000000006001600160a01b03166114326000805160206122e2833981519152546001600160a01b031690565b6001600160a01b031614155b1561111d5760405163703e46dd60e11b815260040160405180910390fd5b336001600160a01b037f000000000000000000000000000000000000000000000000000000000000000016146108ba5760405162461bcd60e51b815260206004820152600d60248201526c6f6e6c792074696d656c6f636b60981b60448201526064016107db565b816001600160a01b03166352d1902d6040518163ffffffff1660e01b8152600401602060405180830381865afa92505050801561151e575060408051601f3d908101601f1916820190925261151b918101906120b8565b60015b61154657604051634c9c8ce360e01b81526001600160a01b03831660048201526024016107db565b6000805160206122e2833981519152811461157757604051632a87526960e21b8152600481018290526024016107db565b61088383836118e5565b306001600160a01b037f0000000000000000000000000000000000000000000000000000000000000000161461111d5760405163703e46dd60e11b815260040160405180910390fd5b6115d26110ec565b600080516020612322833981519152805460ff191660011781557f62e78cea01bee320cd4e420270b5ea74000d11b0c9f74754ebdbfc544b05a258336110ce565b6000610c00838361193b565b611627611965565b61111d6119ae565b61111d611965565b6000610722825490565b61164b82826109bd565b61093b5760405163e2517d3f60e01b81526001600160a01b0382166004820152602481018390526044016107db565b600060008051602061230283398151915261169584846109bd565b611715576000848152602082815260408083206001600160a01b03871684529091529020805460ff191660011790556116cb3390565b6001600160a01b0316836001600160a01b0316857f2f8788117e7eff1d82e926ec794901d17c78024a50270940304540a733656f0d60405160405180910390a46001915050610722565b6000915050610722565b6000610c00836001600160a01b0384166119cf565b600060008051602061230283398151915261174f84846109bd565b15611715576000848152602082815260408083206001600160a01b0387168085529252808320805460ff1916905551339287917ff6391f5c32d9c69d2a47ea670b442974b53935d1edc7fd64eb21e047a839171b9190a46001915050610722565b6000610c00836001600160a01b038416611a1e565b6000805160206123228339815191525460ff1661111d57604051638dfc202b60e01b815260040160405180910390fd5b7f00000000000000000000000000000000000000000000000000000000000000006001600160a01b0316836001600160a01b031614611843576108836001600160a01b038416833084611b07565b8034101561188c5760405162461bcd60e51b8152602060048201526016602482015275696e73756666696369656e74207472616e736665727360501b60448201526064016107db565b826001600160a01b031663d0e30db0826040518263ffffffff1660e01b81526004016000604051808303818588803b1580156118c757600080fd5b505af11580156118db573d6000803e3d6000fd5b5050505050505050565b6118ee82611b61565b6040516001600160a01b038316907fbc7cd75a20ee27fd9adebab32041f755214dbc6bffa90cc0225b39da2e5c2d3b90600090a2805115611933576108838282611bc6565b61093b611c3c565b600082600001828154811061195257611952612249565b9060005260206000200154905092915050565b7ff0c57e16840df040f15088dc2f81fe391c3923bec73e23a9662efc9c229c6a0054600160401b900460ff1661111d57604051631afcd79f60e31b815260040160405180910390fd5b6119b6611965565b600080516020612322833981519152805460ff19169055565b6000818152600183016020526040812054611a1657508154600181810184556000848152602080822090930184905584548482528286019093526040902091909155610722565b506000610722565b60008181526001830160205260408120548015611715576000611a4260018361225f565b8554909150600090611a569060019061225f565b9050808214611abb576000866000018281548110611a7657611a76612249565b9060005260206000200154905080876000018481548110611a9957611a99612249565b6000918252602080832090910192909255918252600188019052604090208390555b8554869080611acc57611acc612272565b600190038181906000526020600020016000905590558560010160008681526020019081526020016000206000905560019350505050610722565b604080516001600160a01b0385811660248301528416604482015260648082018490528251808303909101815260849091019091526020810180516001600160e01b03166323b872dd60e01b17905261084a908590611c5b565b806001600160a01b03163b600003611b9757604051634c9c8ce360e01b81526001600160a01b03821660048201526024016107db565b6000805160206122e283398151915280546001600160a01b0319166001600160a01b0392909216919091179055565b6060600080846001600160a01b031684604051611be39190612288565b600060405180830381855af49150503d8060008114611c1e576040519150601f19603f3d011682016040523d82523d6000602084013e611c23565b606091505b5091509150611c33858383611cbe565b95945050505050565b341561111d5760405163b398979f60e01b815260040160405180910390fd5b6000611c706001600160a01b03841683611d1a565b90508051600014158015611c95575080806020019051810190611c9391906122a4565b155b1561088357604051635274afe760e01b81526001600160a01b03841660048201526024016107db565b606082611cd357611cce82611d28565b610c00565b8151158015611cea57506001600160a01b0384163b155b15611d1357604051639996b31560e01b81526001600160a01b03851660048201526024016107db565b5092915050565b6060610c0083836000611d51565b805115611d385780518082602001fd5b604051630a12f52160e11b815260040160405180910390fd5b606081471015611d765760405163cd78605960e01b81523060048201526024016107db565b600080856001600160a01b03168486604051611d929190612288565b60006040518083038185875af1925050503d8060008114611dcf576040519150601f19603f3d011682016040523d82523d6000602084013e611dd4565b606091505b5091509150611de4868383611cbe565b9695505050505050565b600060208284031215611e0057600080fd5b81356001600160e01b031981168114610c0057600080fd5b80356001600160a01b0381168114611e2f57600080fd5b919050565b600060208284031215611e4657600080fd5b610c0082611e18565b600060208284031215611e6157600080fd5b5035919050565b80151581146108ba57600080fd5b60008060408385031215611e8957600080fd5b611e9283611e18565b91506020830135611ea281611e68565b809150509250929050565b60008060408385031215611ec057600080fd5b82359150611ed060208401611e18565b90509250929050565b60008060408385031215611eec57600080fd5b611ef583611e18565b946020939093013593505050565b634e487b7160e01b600052604160045260246000fd5b60008060408385031215611f2c57600080fd5b611f3583611e18565b9150602083013567ffffffffffffffff80821115611f5257600080fd5b818501915085601f830112611f6657600080fd5b813581811115611f7857611f78611f03565b604051601f8201601f19908116603f01168101908382118183101715611fa057611fa0611f03565b81604052828152886020848701011115611fb957600080fd5b8260208601602083013760006020848301015280955050505050509250929050565b60008060408385031215611fee57600080fd5b50508035926020909101359150565b60005b83811015612018578181015183820152602001612000565b50506000910152565b6020815260008251806020840152612040816040850160208701611ffd565b601f01601f19169190910160400192915050565b600080600080600060a0868803121561206c57600080fd5b61207586611e18565b945061208360208701611e18565b935060408601359250606086013561209a81611e68565b915060808601356120aa81611e68565b809150509295509295909350565b6000602082840312156120ca57600080fd5b5051919050565b6000602082840312156120e357600080fd5b815160ff81168114610c0057600080fd5b634e487b7160e01b600052601160045260246000fd5b600181815b8085111561214557816000190482111561212b5761212b6120f4565b8085161561213857918102915b93841c939080029061210f565b509250929050565b60008261215c57506001610722565b8161216957506000610722565b816001811461217f5760028114612189576121a5565b6001915050610722565b60ff84111561219a5761219a6120f4565b50506001821b610722565b5060208310610133831016604e8410600b84101617156121c8575081810a610722565b6121d2838361210a565b80600019048211156121e6576121e66120f4565b029392505050565b6000610c0060ff84168361214d565b8082028115828204841417610722576107226120f4565b60008261223157634e487b7160e01b600052601260045260246000fd5b500490565b80820180821115610722576107226120f4565b634e487b7160e01b600052603260045260246000fd5b81810381811115610722576107226120f4565b634e487b7160e01b600052603160045260246000fd5b6000825161229a818460208701611ffd565b9190910192915050565b6000602082840312156122b657600080fd5b8151610c0081611e6856fec1f6fe24621ce81ec5827caf0253cadb74709b061630e6b55e82371705932000360894a13ba1a3210667c828492db98dca3e2076cc3735a920a3ca505d382bbc02dd7bc7dec4dceedda775e58dd541e08a116c6c53815c0bd028192f7b626800cd5ed15c6e187e77e9aee88184c21f4f2182ab5827cb3b7e07fbedcd63f03300a49807205ce4d355092ef5a8a18f56e8913cf4a201fbe287825b095693c21775a26469706673582212200d4aec78182482e623afec155bce6cb9339b9e403d5eb3003950c7228c574b9e64736f6c63430008160033",
  "devdoc": {
    "errors": {
      "AccessControlBadConfirmation()": [
        {
          "details": "The caller of a function is not the expected one. NOTE: Don't confuse with {AccessControlUnauthorizedAccount}."
        }
      ],
      "AccessControlUnauthorizedAccount(address,bytes32)": [
        {
          "details": "The `account` is missing a role."
        }
      ],
      "AddressEmptyCode(address)": [
        {
          "details": "There's no code at `target` (it is not a contract)."
        }
      ],
      "AddressInsufficientBalance(address)": [
        {
          "details": "The ETH balance of the account is not enough to perform the operation."
        }
      ],
      "ERC1967InvalidImplementation(address)": [
        {
          "details": "The `implementation` of the proxy is invalid."
        }
      ],
      "ERC1967NonPayable()": [
        {
          "details": "An upgrade function sees `msg.value > 0` that may be lost."
        }
      ],
      "EnforcedPause()": [
        {
          "details": "The operation failed because the contract is paused."
        }
      ],
      "ExpectedPause()": [
        {
          "details": "The operation failed because the contract is not paused."
        }
      ],
      "FailedInnerCall()": [
        {
          "details": "A call to an address target failed. The target may have reverted."
        }
      ],
      "InvalidInitialization()": [
        {
          "details": "The contract is already initialized."
        }
      ],
      "NotInitializing()": [
        {
          "details": "The contract is not initializing."
        }
      ],
      "SafeERC20FailedOperation(address)": [
        {
          "details": "An operation with an ERC20 token failed."
        }
      ],
      "UUPSUnauthorizedCallContext()": [
        {
          "details": "The call is from an unauthorized context."
        }
      ],
      "UUPSUnsupportedProxiableUUID(bytes32)": [
        {
          "details": "The storage `slot` is unsupported as a UUID."
        }
      ]
    },
    "events": {
      "Initialized(uint64)": {
        "details": "Triggered when the contract has been initialized or reinitialized."
      },
      "Paused(address)": {
        "details": "Emitted when the pause is triggered by `account`."
      },
      "RoleAdminChanged(bytes32,bytes32,bytes32)": {
        "details": "Emitted when `newAdminRole` is set as ``role``'s admin role, replacing `previousAdminRole` `DEFAULT_ADMIN_ROLE` is the starting admin for all roles, despite {RoleAdminChanged} not being emitted signaling this."
      },
      "RoleGranted(bytes32,address,address)": {
        "details": "Emitted when `account` is granted `role`. `sender` is the account that originated the contract call, an admin role bearer except when using {AccessControl-_setupRole}."
      },
      "RoleRevoked(bytes32,address,address)": {
        "details": "Emitted when `account` is revoked `role`. `sender` is the account that originated the contract call:   - if using `revokeRole`, it is the admin role bearer   - if using `renounceRole`, it is the role bearer (i.e. `account`)"
      },
      "Unpaused(address)": {
        "details": "Emitted when the pause is lifted by `account`."
      },
      "Upgraded(address)": {
        "details": "Emitted when the implementation is upgraded."
      }
    },
    "kind": "dev",
    "methods": {
      "constructor": {
        "custom:oz-upgrades-unsafe-allow": "constructor"
      },
      "getRoleAdmin(bytes32)": {
        "details": "Returns the admin role that controls `role`. See {grantRole} and {revokeRole}. To change a role's admin, use {_setRoleAdmin}."
      },
      "getRoleMember(bytes32,uint256)": {
        "details": "Returns one of the accounts that have `role`. `index` must be a value between 0 and {getRoleMemberCount}, non-inclusive. Role bearers are not sorted in any particular way, and their ordering may change at any point. WARNING: When using {getRoleMember} and {getRoleMemberCount}, make sure you perform all queries on the same block. See the following https://forum.openzeppelin.com/t/iterating-over-elements-on-enumerableset-in-openzeppelin-contracts/2296[forum post] for more information."
      },
      "getRoleMemberCount(bytes32)": {
        "details": "Returns the number of accounts that have `role`. Can be used together with {getRoleMember} to enumerate all bearers of a role."
      },
      "grantRole(bytes32,address)": {
        "details": "Grants `role` to `account`. If `account` had not been already granted `role`, emits a {RoleGranted} event. Requirements: - the caller must have ``role``'s admin role. May emit a {RoleGranted} event."
      },
      "hasRole(bytes32,address)": {
        "details": "Returns `true` if `account` has been granted `role`."
      },
      "paused()": {
        "details": "Returns true if the contract is paused, and false otherwise."
      },
      "proxiableUUID()": {
        "details": "Implementation of the ERC1822 {proxiableUUID} function. This returns the storage slot used by the implementation. It is used to validate the implementation's compatibility when performing an upgrade. IMPORTANT: A proxy pointing at a proxiable contract should not be considered proxiable itself, because this risks bricking a proxy that upgrades to it, by delegating to itself until out of gas. Thus it is critical that this function revert if invoked through a proxy. This is guaranteed by the `notDelegated` modifier."
      },
      "renounceRole(bytes32,address)": {
        "details": "Revokes `role` from the calling account. Roles are often managed via {grantRole} and {revokeRole}: this function's purpose is to provide a mechanism for accounts to lose their privileges if they are compromised (such as when a trusted device is misplaced). If the calling account had been revoked `role`, emits a {RoleRevoked} event. Requirements: - the caller must be `callerConfirmation`. May emit a {RoleRevoked} event."
      },
      "revokeRole(bytes32,address)": {
        "details": "Revokes `role` from `account`. If `account` had been granted `role`, emits a {RoleRevoked} event. Requirements: - the caller must have ``role``'s admin role. May emit a {RoleRevoked} event."
      },
      "supportsInterface(bytes4)": {
        "details": "See {IERC165-supportsInterface}."
      },
      "upgradeToAndCall(address,bytes)": {
        "custom:oz-upgrades-unsafe-allow-reachable": "delegatecall",
        "details": "Upgrade the implementation of the proxy to `newImplementation`, and subsequently execute the function call encoded in `data`. Calls {_authorizeUpgrade}. Emits an {Upgraded} event."
      }
    },
    "version": 1
  },
  "userdoc": {
    "kind": "user",
    "methods": {},
    "version": 1
  },
  "storageLayout": {
    "storage": [
      {
        "astId": 3695,
        "contract": "contracts/AstherusEarnVault.sol:AstherusEarnVault",
        "label": "signer",
        "offset": 0,
        "slot": "0",
        "type": "t_address"
      },
      {
        "astId": 3700,
        "contract": "contracts/AstherusEarnVault.sol:AstherusEarnVault",
        "label": "supportAssToken",
        "offset": 0,
        "slot": "1",
        "type": "t_mapping(t_address,t_struct(Token)3689_storage)"
      },
      {
        "astId": 3704,
        "contract": "contracts/AstherusEarnVault.sol:AstherusEarnVault",
        "label": "supportSourceToken",
        "offset": 0,
        "slot": "2",
        "type": "t_mapping(t_address,t_address)"
      },
      {
        "astId": 3708,
        "contract": "contracts/AstherusEarnVault.sol:AstherusEarnVault",
        "label": "treasury",
        "offset": 0,
        "slot": "3",
        "type": "t_mapping(t_address,t_uint256)"
      },
      {
        "astId": 3712,
        "contract": "contracts/AstherusEarnVault.sol:AstherusEarnVault",
        "label": "lastMintedAt",
        "offset": 0,
        "slot": "4",
        "type": "t_mapping(t_address,t_uint256)"
      },
      {
        "astId": 3714,
        "contract": "contracts/AstherusEarnVault.sol:AstherusEarnVault",
        "label": "status",
        "offset": 0,
        "slot": "5",
        "type": "t_uint256"
      }
    ],
    "types": {
      "t_address": {
        "encoding": "inplace",
        "label": "address",
        "numberOfBytes": "20"
      },
      "t_bool": {
        "encoding": "inplace",
        "label": "bool",
        "numberOfBytes": "1"
      },
      "t_mapping(t_address,t_address)": {
        "encoding": "mapping",
        "key": "t_address",
        "label": "mapping(address => address)",
        "numberOfBytes": "32",
        "value": "t_address"
      },
      "t_mapping(t_address,t_struct(Token)3689_storage)": {
        "encoding": "mapping",
        "key": "t_address",
        "label": "mapping(address => struct AstherusEarnVault.Token)",
        "numberOfBytes": "32",
        "value": "t_struct(Token)3689_storage"
      },
      "t_mapping(t_address,t_uint256)": {
        "encoding": "mapping",
        "key": "t_address",
        "label": "mapping(address => uint256)",
        "numberOfBytes": "32",
        "value": "t_uint256"
      },
      "t_struct(Token)3689_storage": {
        "encoding": "inplace",
        "label": "struct AstherusEarnVault.Token",
        "members": [
          {
            "astId": 3676,
            "contract": "contracts/AstherusEarnVault.sol:AstherusEarnVault",
            "label": "assTokenAddress",
            "offset": 0,
            "slot": "0",
            "type": "t_address"
          },
          {
            "astId": 3678,
            "contract": "contracts/AstherusEarnVault.sol:AstherusEarnVault",
            "label": "sourceTokenAddress",
            "offset": 0,
            "slot": "1",
            "type": "t_address"
          },
          {
            "astId": 3680,
            "contract": "contracts/AstherusEarnVault.sol:AstherusEarnVault",
            "label": "sourceTokenDecimals",
            "offset": 20,
            "slot": "1",
            "type": "t_uint8"
          },
          {
            "astId": 3682,
            "contract": "contracts/AstherusEarnVault.sol:AstherusEarnVault",
            "label": "assToSourceExchangeRate",
            "offset": 0,
            "slot": "2",
            "type": "t_uint256"
          },
          {
            "astId": 3684,
            "contract": "contracts/AstherusEarnVault.sol:AstherusEarnVault",
            "label": "exchangeRateTimestamp",
            "offset": 0,
            "slot": "3",
            "type": "t_uint256"
          },
          {
            "astId": 3686,
            "contract": "contracts/AstherusEarnVault.sol:AstherusEarnVault",
            "label": "depositEnabled",
            "offset": 0,
            "slot": "4",
            "type": "t_bool"
          },
          {
            "astId": 3688,
            "contract": "contracts/AstherusEarnVault.sol:AstherusEarnVault",
            "label": "withdrawEnabled",
            "offset": 1,
            "slot": "4",
            "type": "t_bool"
          }
        ],
        "numberOfBytes": "160"
      },
      "t_uint256": {
        "encoding": "inplace",
        "label": "uint256",
        "numberOfBytes": "32"
      },
      "t_uint8": {
        "encoding": "inplace",
        "label": "uint8",
        "numberOfBytes": "1"
      }
    }
  }
}