{
  "address": "0x60C11Aef81da1d070110c58eb547991a8968d8c0",
  "abi": [
    {
      "inputs": [
        {
          "internalType": "address",
          "name": "nativeWrapped",
          "type": "address"
        },
        {
          "internalType": "address",
          "name": "timelockAddress",
          "type": "address"
        },
        {
          "internalType": "address",
          "name": "withdrawVault",
          "type": "address"
        }
      ],
      "stateMutability": "nonpayable",
      "type": "constructor"
    },
    {
      "inputs": [],
      "name": "AccessControlBadConfirmation",
      "type": "error"
    },
    {
      "inputs": [
        {
          "internalType": "address",
          "name": "account",
          "type": "address"
        },
        {
          "internalType": "bytes32",
          "name": "neededRole",
          "type": "bytes32"
        }
      ],
      "name": "AccessControlUnauthorizedAccount",
      "type": "error"
    },
    {
      "inputs": [
        {
          "internalType": "address",
          "name": "target",
          "type": "address"
        }
      ],
      "name": "AddressEmptyCode",
      "type": "error"
    },
    {
      "inputs": [
        {
          "internalType": "address",
          "name": "account",
          "type": "address"
        }
      ],
      "name": "AddressInsufficientBalance",
      "type": "error"
    },
    {
      "inputs": [
        {
          "internalType": "address",
          "name": "implementation",
          "type": "address"
        }
      ],
      "name": "ERC1967InvalidImplementation",
      "type": "error"
    },
    {
      "inputs": [],
      "name": "ERC1967NonPayable",
      "type": "error"
    },
    {
      "inputs": [],
      "name": "EnforcedPause",
      "type": "error"
    },
    {
      "inputs": [],
      "name": "ExpectedPause",
      "type": "error"
    },
    {
      "inputs": [],
      "name": "FailedInnerCall",
      "type": "error"
    },
    {
      "inputs": [],
      "name": "InvalidInitialization",
      "type": "error"
    },
    {
      "inputs": [],
      "name": "NotInitializing",
      "type": "error"
    },
    {
      "inputs": [],
      "name": "ReentrancyGuardReentrantCall",
      "type": "error"
    },
    {
      "inputs": [
        {
          "internalType": "address",
          "name": "token",
          "type": "address"
        }
      ],
      "name": "SafeERC20FailedOperation",
      "type": "error"
    },
    {
      "inputs": [],
      "name": "UUPSUnauthorizedCallContext",
      "type": "error"
    },
    {
      "inputs": [
        {
          "internalType": "bytes32",
          "name": "slot",
          "type": "bytes32"
        }
      ],
      "name": "UUPSUnsupportedProxiableUUID",
      "type": "error"
    },
    {
      "anonymous": false,
      "inputs": [
        {
          "indexed": true,
          "internalType": "address",
          "name": "assTokenAddress",
          "type": "address"
        },
        {
          "indexed": true,
          "internalType": "address",
          "name": "sourceTokenAddress",
          "type": "address"
        }
      ],
      "name": "AddToken",
      "type": "event"
    },
    {
      "anonymous": false,
      "inputs": [
        {
          "indexed": true,
          "internalType": "address",
          "name": "receipt",
          "type": "address"
        },
        {
          "indexed": true,
          "internalType": "address",
          "name": "assTokenAddress",
          "type": "address"
        },
        {
          "indexed": true,
          "internalType": "address",
          "name": "sourceTokenAddress",
          "type": "address"
        },
        {
          "indexed": false,
          "internalType": "uint256",
          "name": "assTokenAmount",
          "type": "uint256"
        },
        {
          "indexed": false,
          "internalType": "uint256",
          "name": "sourceTokenAmount",
          "type": "uint256"
        },
        {
          "indexed": false,
          "internalType": "uint256",
          "name": "requestWithdrawNo",
          "type": "uint256"
        }
      ],
      "name": "ClaimWithdraw",
      "type": "event"
    },
    {
      "anonymous": false,
      "inputs": [
        {
          "indexed": true,
          "internalType": "address",
          "name": "assTokenAddress",
          "type": "address"
        },
        {
          "indexed": false,
          "internalType": "uint256",
          "name": "assTokenAmount",
          "type": "uint256"
        },
        {
          "indexed": true,
          "internalType": "address",
          "name": "sourceTokenAddress",
          "type": "address"
        },
        {
          "indexed": false,
          "internalType": "uint256",
          "name": "sourceTokenAmount",
          "type": "uint256"
        },
        {
          "indexed": false,
          "internalType": "uint256",
          "name": "requestWithdrawNo",
          "type": "uint256"
        }
      ],
      "name": "DistributeWithdraw",
      "type": "event"
    },
    {
      "anonymous": false,
      "inputs": [
        {
          "indexed": false,
          "internalType": "uint64",
          "name": "version",
          "type": "uint64"
        }
      ],
      "name": "Initialized",
      "type": "event"
    },
    {
      "anonymous": false,
      "inputs": [
        {
          "indexed": true,
          "internalType": "address",
          "name": "sender",
          "type": "address"
        },
        {
          "indexed": true,
          "internalType": "address",
          "name": "sourceTokenAddress",
          "type": "address"
        },
        {
          "indexed": true,
          "internalType": "address",
          "name": "assTokenAddress",
          "type": "address"
        },
        {
          "indexed": false,
          "internalType": "uint256",
          "name": "amountIn",
          "type": "uint256"
        },
        {
          "indexed": false,
          "internalType": "uint256",
          "name": "assXXXAmount",
          "type": "uint256"
        },
        {
          "indexed": false,
          "internalType": "uint256",
          "name": "assToSourceExchangeRate",
          "type": "uint256"
        }
      ],
      "name": "MintAssXXX",
      "type": "event"
    },
    {
      "anonymous": false,
      "inputs": [
        {
          "indexed": false,
          "internalType": "address",
          "name": "account",
          "type": "address"
        }
      ],
      "name": "Paused",
      "type": "event"
    },
    {
      "anonymous": false,
      "inputs": [
        {
          "indexed": true,
          "internalType": "address",
          "name": "from",
          "type": "address"
        },
        {
          "indexed": true,
          "internalType": "address",
          "name": "assTokenAddress",
          "type": "address"
        },
        {
          "indexed": false,
          "internalType": "uint256",
          "name": "assTokenAmount",
          "type": "uint256"
        },
        {
          "indexed": false,
          "internalType": "uint256",
          "name": "requestWithdrawNo",
          "type": "uint256"
        }
      ],
      "name": "RequestWithdraw",
      "type": "event"
    },
    {
      "anonymous": false,
      "inputs": [
        {
          "indexed": true,
          "internalType": "bytes32",
          "name": "role",
          "type": "bytes32"
        },
        {
          "indexed": true,
          "internalType": "bytes32",
          "name": "previousAdminRole",
          "type": "bytes32"
        },
        {
          "indexed": true,
          "internalType": "bytes32",
          "name": "newAdminRole",
          "type": "bytes32"
        }
      ],
      "name": "RoleAdminChanged",
      "type": "event"
    },
    {
      "anonymous": false,
      "inputs": [
        {
          "indexed": true,
          "internalType": "bytes32",
          "name": "role",
          "type": "bytes32"
        },
        {
          "indexed": true,
          "internalType": "address",
          "name": "account",
          "type": "address"
        },
        {
          "indexed": true,
          "internalType": "address",
          "name": "sender",
          "type": "address"
        }
      ],
      "name": "RoleGranted",
      "type": "event"
    },
    {
      "anonymous": false,
      "inputs": [
        {
          "indexed": true,
          "internalType": "bytes32",
          "name": "role",
          "type": "bytes32"
        },
        {
          "indexed": true,
          "internalType": "address",
          "name": "account",
          "type": "address"
        },
        {
          "indexed": true,
          "internalType": "address",
          "name": "sender",
          "type": "address"
        }
      ],
      "name": "RoleRevoked",
      "type": "event"
    },
    {
      "anonymous": false,
      "inputs": [
        {
          "indexed": true,
          "internalType": "address",
          "name": "sourceTokenAddress",
          "type": "address"
        },
        {
          "indexed": false,
          "internalType": "uint256",
          "name": "sourceTokenAmount",
          "type": "uint256"
        },
        {
          "indexed": false,
          "internalType": "address",
          "name": "sefu",
          "type": "address"
        }
      ],
      "name": "TransferToCeffu",
      "type": "event"
    },
    {
      "anonymous": false,
      "inputs": [
        {
          "indexed": false,
          "internalType": "address",
          "name": "account",
          "type": "address"
        }
      ],
      "name": "Unpaused",
      "type": "event"
    },
    {
      "anonymous": false,
      "inputs": [
        {
          "indexed": true,
          "internalType": "address",
          "name": "assTokenAddress",
          "type": "address"
        },
        {
          "indexed": false,
          "internalType": "address",
          "name": "oldCeffuAddress",
          "type": "address"
        },
        {
          "indexed": false,
          "internalType": "address",
          "name": "newCeffuAddress",
          "type": "address"
        }
      ],
      "name": "UpdateCeffuAddress",
      "type": "event"
    },
    {
      "anonymous": false,
      "inputs": [
        {
          "indexed": true,
          "internalType": "address",
          "name": "assTokenAddress",
          "type": "address"
        },
        {
          "indexed": false,
          "internalType": "bool",
          "name": "oldDepositEnabled",
          "type": "bool"
        },
        {
          "indexed": false,
          "internalType": "bool",
          "name": "newDepositEnabled",
          "type": "bool"
        }
      ],
      "name": "UpdateDepositEnabled",
      "type": "event"
    },
    {
      "anonymous": false,
      "inputs": [
        {
          "indexed": true,
          "internalType": "address",
          "name": "assTokenAddress",
          "type": "address"
        },
        {
          "indexed": false,
          "internalType": "bool",
          "name": "oldTransferToCeffuEnabled",
          "type": "bool"
        },
        {
          "indexed": false,
          "internalType": "bool",
          "name": "newTransferToCeffuEnabled",
          "type": "bool"
        }
      ],
      "name": "UpdateTransferToCeffuEnabled",
      "type": "event"
    },
    {
      "anonymous": false,
      "inputs": [
        {
          "indexed": true,
          "internalType": "address",
          "name": "assTokenAddress",
          "type": "address"
        },
        {
          "indexed": false,
          "internalType": "bool",
          "name": "oldWithdrawEnabled",
          "type": "bool"
        },
        {
          "indexed": false,
          "internalType": "bool",
          "name": "newWithdrawEnabled",
          "type": "bool"
        }
      ],
      "name": "UpdateWithdrawEnabled",
      "type": "event"
    },
    {
      "anonymous": false,
      "inputs": [
        {
          "indexed": true,
          "internalType": "address",
          "name": "implementation",
          "type": "address"
        }
      ],
      "name": "Upgraded",
      "type": "event"
    },
    {
      "anonymous": false,
      "inputs": [
        {
          "indexed": true,
          "internalType": "address",
          "name": "assTokenAddress",
          "type": "address"
        },
        {
          "indexed": false,
          "internalType": "uint256",
          "name": "assToSourceExchangeRate",
          "type": "uint256"
        },
        {
          "indexed": false,
          "internalType": "uint256",
          "name": "exchangeRateExpiredTimestamp",
          "type": "uint256"
        }
      ],
      "name": "UploadExchangeRate",
      "type": "event"
    },
    {
      "inputs": [],
      "name": "ADMIN_ROLE",
      "outputs": [
        {
          "internalType": "bytes32",
          "name": "",
          "type": "bytes32"
        }
      ],
      "stateMutability": "view",
      "type": "function"
    },
    {
      "inputs": [],
      "name": "DEFAULT_ADMIN_ROLE",
      "outputs": [
        {
          "internalType": "bytes32",
          "name": "",
          "type": "bytes32"
        }
      ],
      "stateMutability": "view",
      "type": "function"
    },
    {
      "inputs": [],
      "name": "NATIVE_WRAPPED",
      "outputs": [
        {
          "internalType": "address",
          "name": "",
          "type": "address"
        }
      ],
      "stateMutability": "view",
      "type": "function"
    },
    {
      "inputs": [],
      "name": "PAUSE_ROLE",
      "outputs": [
        {
          "internalType": "bytes32",
          "name": "",
          "type": "bytes32"
        }
      ],
      "stateMutability": "view",
      "type": "function"
    },
    {
      "inputs": [],
      "name": "TIMELOCK_ADDRESS",
      "outputs": [
        {
          "internalType": "address",
          "name": "",
          "type": "address"
        }
      ],
      "stateMutability": "view",
      "type": "function"
    },
    {
      "inputs": [],
      "name": "UPGRADE_INTERFACE_VERSION",
      "outputs": [
        {
          "internalType": "string",
          "name": "",
          "type": "string"
        }
      ],
      "stateMutability": "view",
      "type": "function"
    },
    {
      "inputs": [],
      "name": "VAULT_ROLE",
      "outputs": [
        {
          "internalType": "bytes32",
          "name": "",
          "type": "bytes32"
        }
      ],
      "stateMutability": "view",
      "type": "function"
    },
    {
      "inputs": [],
      "name": "WITHDRAW_VAULT",
      "outputs": [
        {
          "internalType": "address",
          "name": "",
          "type": "address"
        }
      ],
      "stateMutability": "view",
      "type": "function"
    },
    {
      "inputs": [
        {
          "internalType": "address",
          "name": "assTokenAddress",
          "type": "address"
        },
        {
          "internalType": "address",
          "name": "sourceTokenAddress",
          "type": "address"
        },
        {
          "internalType": "address",
          "name": "ceffuAddress",
          "type": "address"
        },
        {
          "internalType": "uint256",
          "name": "exchangeRateExpiredTimestamp",
          "type": "uint256"
        },
        {
          "internalType": "bool",
          "name": "depositEnabled",
          "type": "bool"
        },
        {
          "internalType": "bool",
          "name": "withdrawEnabled",
          "type": "bool"
        },
        {
          "internalType": "bool",
          "name": "transferToCeffuEnabled",
          "type": "bool"
        }
      ],
      "name": "addToken",
      "outputs": [],
      "stateMutability": "nonpayable",
      "type": "function"
    },
    {
      "inputs": [
        {
          "internalType": "address",
          "name": "currency",
          "type": "address"
        }
      ],
      "name": "balance",
      "outputs": [
        {
          "internalType": "uint256",
          "name": "",
          "type": "uint256"
        }
      ],
      "stateMutability": "view",
      "type": "function"
    },
    {
      "inputs": [
        {
          "internalType": "uint256[]",
          "name": "requestWithdrawNos",
          "type": "uint256[]"
        }
      ],
      "name": "claimWithdraw",
      "outputs": [],
      "stateMutability": "nonpayable",
      "type": "function"
    },
    {
      "inputs": [
        {
          "internalType": "address",
          "name": "sourceTokenAddress",
          "type": "address"
        },
        {
          "internalType": "uint256",
          "name": "amountIn",
          "type": "uint256"
        }
      ],
      "name": "deposit",
      "outputs": [],
      "stateMutability": "nonpayable",
      "type": "function"
    },
    {
      "inputs": [],
      "name": "depositNative",
      "outputs": [],
      "stateMutability": "payable",
      "type": "function"
    },
    {
      "inputs": [
        {
          "components": [
            {
              "internalType": "address",
              "name": "assTokenAddress",
              "type": "address"
            },
            {
              "internalType": "uint256",
              "name": "assTokenAmount",
              "type": "uint256"
            },
            {
              "internalType": "uint256",
              "name": "sourceTokenAmount",
              "type": "uint256"
            },
            {
              "internalType": "uint256",
              "name": "requestWithdrawNo",
              "type": "uint256"
            },
            {
              "internalType": "address",
              "name": "receipt",
              "type": "address"
            }
          ],
          "internalType": "struct AstherusEarnVault.DistributeWithdrawInfo[]",
          "name": "distributeWithdrawInfoList",
          "type": "tuple[]"
        }
      ],
      "name": "distributeWithdraw",
      "outputs": [],
      "stateMutability": "nonpayable",
      "type": "function"
    },
    {
      "inputs": [
        {
          "internalType": "bytes32",
          "name": "role",
          "type": "bytes32"
        }
      ],
      "name": "getRoleAdmin",
      "outputs": [
        {
          "internalType": "bytes32",
          "name": "",
          "type": "bytes32"
        }
      ],
      "stateMutability": "view",
      "type": "function"
    },
    {
      "inputs": [
        {
          "internalType": "bytes32",
          "name": "role",
          "type": "bytes32"
        },
        {
          "internalType": "uint256",
          "name": "index",
          "type": "uint256"
        }
      ],
      "name": "getRoleMember",
      "outputs": [
        {
          "internalType": "address",
          "name": "",
          "type": "address"
        }
      ],
      "stateMutability": "view",
      "type": "function"
    },
    {
      "inputs": [
        {
          "internalType": "bytes32",
          "name": "role",
          "type": "bytes32"
        }
      ],
      "name": "getRoleMemberCount",
      "outputs": [
        {
          "internalType": "uint256",
          "name": "",
          "type": "uint256"
        }
      ],
      "stateMutability": "view",
      "type": "function"
    },
    {
      "inputs": [
        {
          "internalType": "bytes32",
          "name": "role",
          "type": "bytes32"
        },
        {
          "internalType": "address",
          "name": "account",
          "type": "address"
        }
      ],
      "name": "grantRole",
      "outputs": [],
      "stateMutability": "nonpayable",
      "type": "function"
    },
    {
      "inputs": [
        {
          "internalType": "bytes32",
          "name": "role",
          "type": "bytes32"
        },
        {
          "internalType": "address",
          "name": "account",
          "type": "address"
        }
      ],
      "name": "hasRole",
      "outputs": [
        {
          "internalType": "bool",
          "name": "",
          "type": "bool"
        }
      ],
      "stateMutability": "view",
      "type": "function"
    },
    {
      "inputs": [
        {
          "internalType": "address",
          "name": "defaultAdmin",
          "type": "address"
        }
      ],
      "name": "initialize",
      "outputs": [],
      "stateMutability": "nonpayable",
      "type": "function"
    },
    {
      "inputs": [
        {
          "internalType": "address",
          "name": "",
          "type": "address"
        }
      ],
      "name": "lastMintedAt",
      "outputs": [
        {
          "internalType": "uint256",
          "name": "",
          "type": "uint256"
        }
      ],
      "stateMutability": "view",
      "type": "function"
    },
    {
      "inputs": [],
      "name": "pause",
      "outputs": [],
      "stateMutability": "nonpayable",
      "type": "function"
    },
    {
      "inputs": [],
      "name": "paused",
      "outputs": [
        {
          "internalType": "bool",
          "name": "",
          "type": "bool"
        }
      ],
      "stateMutability": "view",
      "type": "function"
    },
    {
      "inputs": [],
      "name": "proxiableUUID",
      "outputs": [
        {
          "internalType": "bytes32",
          "name": "",
          "type": "bytes32"
        }
      ],
      "stateMutability": "view",
      "type": "function"
    },
    {
      "inputs": [
        {
          "internalType": "bytes32",
          "name": "role",
          "type": "bytes32"
        },
        {
          "internalType": "address",
          "name": "callerConfirmation",
          "type": "address"
        }
      ],
      "name": "renounceRole",
      "outputs": [],
      "stateMutability": "nonpayable",
      "type": "function"
    },
    {
      "inputs": [
        {
          "internalType": "address",
          "name": "assTokenAddress",
          "type": "address"
        },
        {
          "internalType": "uint256",
          "name": "assTokenAmount",
          "type": "uint256"
        }
      ],
      "name": "requestWithdraw",
      "outputs": [],
      "stateMutability": "nonpayable",
      "type": "function"
    },
    {
      "inputs": [
        {
          "internalType": "address",
          "name": "",
          "type": "address"
        },
        {
          "internalType": "uint256",
          "name": "",
          "type": "uint256"
        }
      ],
      "name": "requestWithdraws",
      "outputs": [
        {
          "internalType": "address",
          "name": "assTokenAddress",
          "type": "address"
        },
        {
          "internalType": "uint256",
          "name": "assTokenAmount",
          "type": "uint256"
        },
        {
          "internalType": "uint256",
          "name": "sourceTokenAmount",
          "type": "uint256"
        },
        {
          "internalType": "uint256",
          "name": "applyTimestamp",
          "type": "uint256"
        },
        {
          "internalType": "bool",
          "name": "canClaimWithdraw",
          "type": "bool"
        }
      ],
      "stateMutability": "view",
      "type": "function"
    },
    {
      "inputs": [
        {
          "internalType": "bytes32",
          "name": "role",
          "type": "bytes32"
        },
        {
          "internalType": "address",
          "name": "account",
          "type": "address"
        }
      ],
      "name": "revokeRole",
      "outputs": [],
      "stateMutability": "nonpayable",
      "type": "function"
    },
    {
      "inputs": [
        {
          "internalType": "address",
          "name": "",
          "type": "address"
        }
      ],
      "name": "sourceTokenTreasury",
      "outputs": [
        {
          "internalType": "uint256",
          "name": "",
          "type": "uint256"
        }
      ],
      "stateMutability": "view",
      "type": "function"
    },
    {
      "inputs": [
        {
          "internalType": "address",
          "name": "",
          "type": "address"
        }
      ],
      "name": "supportAssToken",
      "outputs": [
        {
          "internalType": "address",
          "name": "assTokenAddress",
          "type": "address"
        },
        {
          "internalType": "address",
          "name": "sourceTokenAddress",
          "type": "address"
        },
        {
          "internalType": "uint8",
          "name": "sourceTokenDecimals",
          "type": "uint8"
        },
        {
          "internalType": "uint256",
          "name": "assToSourceExchangeRate",
          "type": "uint256"
        },
        {
          "internalType": "uint256",
          "name": "exchangeRateExpiredTimestamp",
          "type": "uint256"
        },
        {
          "internalType": "bool",
          "name": "depositEnabled",
          "type": "bool"
        },
        {
          "internalType": "bool",
          "name": "withdrawEnabled",
          "type": "bool"
        },
        {
          "internalType": "address",
          "name": "ceffuAddress",
          "type": "address"
        },
        {
          "internalType": "bool",
          "name": "transferToCeffuEnabled",
          "type": "bool"
        }
      ],
      "stateMutability": "view",
      "type": "function"
    },
    {
      "inputs": [
        {
          "internalType": "address",
          "name": "",
          "type": "address"
        }
      ],
      "name": "supportSourceToken",
      "outputs": [
        {
          "internalType": "address",
          "name": "",
          "type": "address"
        }
      ],
      "stateMutability": "view",
      "type": "function"
    },
    {
      "inputs": [
        {
          "internalType": "bytes4",
          "name": "interfaceId",
          "type": "bytes4"
        }
      ],
      "name": "supportsInterface",
      "outputs": [
        {
          "internalType": "bool",
          "name": "",
          "type": "bool"
        }
      ],
      "stateMutability": "view",
      "type": "function"
    },
    {
      "inputs": [
        {
          "internalType": "address[]",
          "name": "assTokenAddressList",
          "type": "address[]"
        }
      ],
      "name": "transferToCeffu",
      "outputs": [],
      "stateMutability": "nonpayable",
      "type": "function"
    },
    {
      "inputs": [],
      "name": "unpause",
      "outputs": [],
      "stateMutability": "nonpayable",
      "type": "function"
    },
    {
      "inputs": [
        {
          "internalType": "address",
          "name": "assTokenAddress",
          "type": "address"
        },
        {
          "internalType": "address",
          "name": "ceffuAddress",
          "type": "address"
        }
      ],
      "name": "updateCeffuAddress",
      "outputs": [],
      "stateMutability": "nonpayable",
      "type": "function"
    },
    {
      "inputs": [
        {
          "internalType": "address",
          "name": "assTokenAddress",
          "type": "address"
        },
        {
          "internalType": "bool",
          "name": "enabled",
          "type": "bool"
        }
      ],
      "name": "updateDepositEnabled",
      "outputs": [],
      "stateMutability": "nonpayable",
      "type": "function"
    },
    {
      "inputs": [
        {
          "internalType": "address",
          "name": "assTokenAddress",
          "type": "address"
        },
        {
          "internalType": "bool",
          "name": "enabled",
          "type": "bool"
        }
      ],
      "name": "updateTransferToCeffuEnabled",
      "outputs": [],
      "stateMutability": "nonpayable",
      "type": "function"
    },
    {
      "inputs": [
        {
          "internalType": "address",
          "name": "assTokenAddress",
          "type": "address"
        },
        {
          "internalType": "bool",
          "name": "enabled",
          "type": "bool"
        }
      ],
      "name": "updateWithdrawEnabled",
      "outputs": [],
      "stateMutability": "nonpayable",
      "type": "function"
    },
    {
      "inputs": [
        {
          "internalType": "address",
          "name": "newImplementation",
          "type": "address"
        },
        {
          "internalType": "bytes",
          "name": "data",
          "type": "bytes"
        }
      ],
      "name": "upgradeToAndCall",
      "outputs": [],
      "stateMutability": "payable",
      "type": "function"
    },
    {
      "inputs": [
        {
          "components": [
            {
              "internalType": "address",
              "name": "assTokenAddress",
              "type": "address"
            },
            {
              "internalType": "uint256",
              "name": "assToSourceExchangeRate",
              "type": "uint256"
            },
            {
              "internalType": "uint256",
              "name": "exchangeRateExpiredTimestamp",
              "type": "uint256"
            }
          ],
          "internalType": "struct AstherusEarnVault.ExchangeRateInfo[]",
          "name": "exchangeRateInfoList",
          "type": "tuple[]"
        }
      ],
      "name": "uploadExchangeRate",
      "outputs": [],
      "stateMutability": "nonpayable",
      "type": "function"
    }
  ],
  "transactionHash": "0xddff73f6984daa95f8e31fa9ab756793f539414f4c8f5eb90481f94feea1a1e9",
  "args": [
    "0xae13d989daC2f0dEbFf460aC112a837C89BAa7cd",
    "0xFF6a70f71F7a6fe8C4c757E49667A81B1A4b7D29",
    "0xd5f1440B72a7af4C1B319d970533f0228B6e5915"
  ],
  "numDeployments": 1,
  "solcInputHash": "7da395c13d2effb9c9dcf2b0d73d7d97",
  "bytecode": "0x6101006040523060805234801561001557600080fd5b50604051613a2e380380613a2e83398101604081905261003491610140565b6001600160a01b0380841660c05282811660a052811660e0819052600680546001600160a01b031916909117905561006a610072565b505050610183565b7ff0c57e16840df040f15088dc2f81fe391c3923bec73e23a9662efc9c229c6a00805468010000000000000000900460ff16156100c25760405163f92ee8a960e01b815260040160405180910390fd5b80546001600160401b03908116146101215780546001600160401b0319166001600160401b0390811782556040519081527fc7f505b2f371ae2175ee4913f4499e1f2633a7b5936321eed1cdaeb6115181d29060200160405180910390a15b50565b80516001600160a01b038116811461013b57600080fd5b919050565b60008060006060848603121561015557600080fd5b61015e84610124565b925061016c60208501610124565b915061017a60408501610124565b90509250925092565b60805160a05160c05160e0516138416101ed600039600061072b015260008181610344015281816119a901528181611f6f015281816125cd015261299601526000818161045d01526123e101526000818161233c01528181612365015261250601526138416000f3fe60806040526004361061023b5760003560e01c80638456cb591161012e578063b7e0c505116100ab578063db6b52461161006f578063db6b5246146107ad578063e3d670d7146107b5578063e5facdf9146107d5578063e6160952146107f5578063eb9259ef146108d157600080fd5b8063b7e0c505146106f9578063baaa3ed314610719578063c4d66de81461074d578063ca15c8731461076d578063d547741f1461078d57600080fd5b806391d14854116100f257806391d148541461064457806398c4f1ac14610664578063a217fddf14610686578063ab59f53d1461069b578063ad3cb1cc146106bb57600080fd5b80638456cb591461052e5780638e0a3c7d146105435780638e766c85146105635780638f9e4779146105905780639010d07c1461062457600080fd5b80633c3f1a1a116101bc5780634bb8fd3e116101805780634bb8fd3e1461049f5780634f1ef286146104bf57806352d1902d146104d25780635c975abb146104e757806375b238fc1461050c57600080fd5b80633c3f1a1a146103e05780633e110bb1146104005780633f4ba83a14610436578063431c18301461044b57806347e7ef241461047f57600080fd5b80632f2ff15d116102035780632f2ff15d14610312578063362b67951461033257806336568abe1461037e578063389ed2671461039e578063397a1b28146103c057600080fd5b806301ffc9a7146102405780631dfe56591461027557806323196538146102b0578063248a9ca3146102d25780632852cce6146102f2575b600080fd5b34801561024c57600080fd5b5061026061025b366004612f34565b6108f1565b60405190151581526020015b60405180910390f35b34801561028157600080fd5b506102a2610290366004612f7a565b60036020526000908152604090205481565b60405190815260200161026c565b3480156102bc57600080fd5b506102d06102cb366004612f95565b61091c565b005b3480156102de57600080fd5b506102a26102ed366004612fc8565b610a3d565b3480156102fe57600080fd5b506102d061030d366004612fef565b610a5f565b34801561031e57600080fd5b506102d061032d366004613026565b610b3a565b34801561033e57600080fd5b506103667f000000000000000000000000000000000000000000000000000000000000000081565b6040516001600160a01b03909116815260200161026c565b34801561038a57600080fd5b506102d0610399366004613026565b610b5c565b3480156103aa57600080fd5b506102a26000805160206137ac83398151915281565b3480156103cc57600080fd5b506102d06103db366004613049565b610b94565b3480156103ec57600080fd5b506102d06103fb3660046130bf565b610e33565b34801561040c57600080fd5b5061036661041b366004612f7a565b6001602052600090815260409020546001600160a01b031681565b34801561044257600080fd5b506102d0610f8f565b34801561045757600080fd5b506103667f000000000000000000000000000000000000000000000000000000000000000081565b34801561048b57600080fd5b506102d061049a366004613049565b610fb2565b3480156104ab57600080fd5b506102d06104ba366004612fef565b610fe3565b6102d06104cd366004613117565b6110cc565b3480156104de57600080fd5b506102a26110e7565b3480156104f357600080fd5b5060008051602061378c8339815191525460ff16610260565b34801561051857600080fd5b506102a26000805160206137ec83398151915281565b34801561053a57600080fd5b506102d0611104565b34801561054f57600080fd5b506102d061055e3660046131d9565b611124565b34801561056f57600080fd5b506102a261057e366004612f7a565b60026020526000908152604090205481565b34801561059c57600080fd5b506105f06105ab366004613049565b60046020818152600093845260408085209091529183529120805460018201546002830154600384015493909401546001600160a01b03909216939092909160ff1685565b604080516001600160a01b03909616865260208601949094529284019190915260608301521515608082015260a00161026c565b34801561063057600080fd5b5061036661063f36600461324e565b61132e565b34801561065057600080fd5b5061026061065f366004613026565b61135d565b34801561067057600080fd5b506102a260008051602061374c83398151915281565b34801561069257600080fd5b506102a2600081565b3480156106a757600080fd5b506102d06106b6366004613270565b611395565b3480156106c757600080fd5b506106ec604051806040016040528060058152602001640352e302e360dc1b81525081565b60405161026c919061331b565b34801561070557600080fd5b506102d061071436600461334e565b6116e7565b34801561072557600080fd5b506103667f000000000000000000000000000000000000000000000000000000000000000081565b34801561075957600080fd5b506102d0610768366004612f7a565b6117e5565b34801561077957600080fd5b506102a2610788366004612fc8565b61194a565b34801561079957600080fd5b506102d06107a8366004613026565b611977565b6102d0611993565b3480156107c157600080fd5b506102a26107d0366004612f7a565b6119e8565b3480156107e157600080fd5b506102d06107f0366004612fef565b611a53565b34801561080157600080fd5b50610873610810366004612f7a565b600060208190529081526040902080546001820154600283015460038401546004909401546001600160a01b03938416948385169460ff600160a01b90950485169491928083169261010082048116926201000083041691600160b01b90041689565b604080516001600160a01b039a8b168152988a1660208a015260ff9097169688019690965260608701949094526080860192909252151560a0850152151560c08401529290921660e08201529015156101008201526101200161026c565b3480156108dd57600080fd5b506102d06108ec3660046130bf565b611b38565b60006001600160e01b03198216635a05180f60e01b1480610916575061091682611d9d565b92915050565b6000805160206137ec83398151915261093481611dd2565b6001600160a01b0383166109635760405162461bcd60e51b815260040161095a906133b1565b60405180910390fd5b6001600160a01b0382166109895760405162461bcd60e51b815260040161095a906133f9565b6001600160a01b03808416600090815260208190526040902080549091166109c35760405162461bcd60e51b815260040161095a9061343e565b6004810180546001600160a01b038581166201000090810262010000600160b01b03198416179384905560408051938290048316808552919094048216602084015292908716917fafef0c18004dea071236bb971e116c885cd7e4816842197e0169fba87623084891015b60405180910390a25050505050565b600090815260008051602061376c833981519152602052604090206001015490565b6000805160206137ec833981519152610a7781611dd2565b6001600160a01b038316610a9d5760405162461bcd60e51b815260040161095a906133b1565b6001600160a01b0380841660009081526020819052604090208054909116610ad75760405162461bcd60e51b815260040161095a9061343e565b60048101805484151560ff198216811790925560405160ff918216926001600160a01b038816927f19102580093552aa222614ea7ccc7e4ebc532ec2abe5be2e5557a5277b85fb1d92610a2e928692169091151582521515602082015260400190565b610b4382610a3d565b610b4c81611dd2565b610b568383611ddc565b50505050565b6001600160a01b0381163314610b855760405163334bd91960e11b815260040160405180910390fd5b610b8f8282611e21565b505050565b610b9c611e5d565b610ba4611e95565b6001600160a01b038216610bca5760405162461bcd60e51b815260040161095a90613461565b60008111610c0b5760405162461bcd60e51b815260206004820152600e60248201526d1a5b9d985b1a5908185b5bdd5b9d60921b604482015260640161095a565b6001600160a01b0380831660009081526020819052604090208054909116610c455760405162461bcd60e51b815260040161095a906134ac565b600481015460ff610100909104161515600114610c745760405162461bcd60e51b815260040161095a906134da565b6040516370a0823160e01b81523360048201526000906001600160a01b038516906370a0823190602401602060405180830381865afa158015610cbb573d6000803e3d6000fd5b505050506040513d601f19601f82011682018060405250810190610cdf9190613502565b905080831015610d285760405162461bcd60e51b8152602060048201526014602482015273696e73756666696369656e742062616c616e636560601b604482015260640161095a565b610d33338585611ec6565b600160056000828254610d469190613531565b90915550506040805160a0810182526001600160a01b03868116808352602080840188815260008587018181524260608801908152608088018381523380855260048088528b8620600580548852908952958c90208b5181546001600160a01b0319169b169a909a178a55955160018a015592516002890155905160038801555195909201805460ff1916951515959095179094559254855189815291820152929390927f446a76a57918c9a651f82cff9087fe2b56dea597ac08fa6c73eaade1585ae77a910160405180910390a3505050610e2f60016000805160206137cc83398151915255565b5050565b610e3b611e5d565b60008051602061374c833981519152610e5381611dd2565b8160005b80821115610f75576000858583818110610e7357610e73613544565b9050602002016020810190610e889190612f7a565b6001600160a01b0381166000908152602081905260409020600481015491925090600160b01b900460ff1615610f6b5760048101546201000090046001600160a01b0316610ee85760405162461bcd60e51b815260040161095a906133f9565b60048101546001820154600091610f11916001600160a01b036201000090920482169116611eef565b60018301546004840154604080518481526001600160a01b0362010000909304831660208201529394509116917fd560b537bb03a2e10775ff1c5992f0ba20cf0bdacefb10c30c86fc69e9d6fc82910160405180910390a2505b5050600101610e57565b505050610e2f60016000805160206137cc83398151915255565b6000805160206137ac833981519152610fa781611dd2565b610faf61202d565b50565b610fba611e5d565b610fc2611e95565b610fcc828261208d565b610e2f60016000805160206137cc83398151915255565b6000805160206137ec833981519152610ffb81611dd2565b6001600160a01b0383166110215760405162461bcd60e51b815260040161095a906133b1565b6001600160a01b038084166000908152602081905260409020805490911661105b5760405162461bcd60e51b815260040161095a9061343e565b600481018054841515600160b01b90810260ff60b01b19831617928390556040805160ff93839004841680151582529290940490921615156020840152916001600160a01b038716917f68384b4f4b87956d2efbc57330ba1b694f41dd604449822dca247bebf7a5518c9101610a2e565b6110d4612331565b6110dd826123d6565b610e2f828261243e565b60006110f16124fb565b5060008051602061372c83398151915290565b6000805160206137ac83398151915261111c81611dd2565b610faf612544565b61112c611e5d565b611134611e95565b60008051602061374c83398151915261114c81611dd2565b8160005b80821115610f75573685858381811061116b5761116b613544565b60a0029190910191506000905080806111876020850185612f7a565b6001600160a01b03908116825260208201929092526040016000208054909250166111c45760405162461bcd60e51b815260040161095a9061343e565b600481015460ff6101009091041615156001146111f35760405162461bcd60e51b815260040161095a906134da565b600060048161120860a0860160808701612f7a565b6001600160a01b039081168252602080830193909352604091820160009081206060880135825290935291208054909250166112565760405162461bcd60e51b815260040161095a9061343e565b600481015460ff161561129b5760405162461bcd60e51b815260206004820152600d60248201526c63616e206e6f7420636c61696d60981b604482015260640161095a565b6040838101356002830181905560048301805460ff191660019081179091558481015484549185015484519081526020810193909352606080880135948401949094526001600160a01b039081169391169133917fb143cbc1b45edd3fe39b60a0bb8aafb1e1d42da89e96e1aff4449ebdc37e48f2910160405180910390a45050506113278160010190565b9050611150565b600082815260008051602061370c833981519152602081905260408220611355908461258d565b949350505050565b600091825260008051602061376c833981519152602090815260408084206001600160a01b0393909316845291905290205460ff1690565b6000805160206137ec8339815191526113ad81611dd2565b6001600160a01b0388166113d35760405162461bcd60e51b815260040161095a906133b1565b6001600160a01b0387166113f95760405162461bcd60e51b815260040161095a90613461565b6001600160a01b03861661141f5760405162461bcd60e51b815260040161095a906133f9565b6000876001600160a01b031663313ce5676040518163ffffffff1660e01b8152600401602060405180830381865afa15801561145f573d6000803e3d6000fd5b505050506040513d601f19601f82011682018060405250810190611483919061355a565b6001600160a01b03808b16600090815260208190526040902080549293509116156114e05760405162461bcd60e51b815260206004820152600d60248201526c191d5c1b1a58d85d1948185919609a1b604482015260640161095a565b6001600160a01b0389811660009081526001602052604090205416156115385760405162461bcd60e51b815260206004820152600d60248201526c191d5c1b1a58d85d1948185919609a1b604482015260640161095a565b898160000160006101000a8154816001600160a01b0302191690836001600160a01b03160217905550888160010160006101000a8154816001600160a01b0302191690836001600160a01b03160217905550878160040160026101000a8154816001600160a01b0302191690836001600160a01b03160217905550818160010160146101000a81548160ff021916908360ff1602179055506305f5e1008160020181905550868160030181905550858160040160006101000a81548160ff021916908315150217905550848160040160016101000a81548160ff021916908315150217905550838160040160166101000a81548160ff02191690831515021790555089600160008360010160009054906101000a90046001600160a01b03166001600160a01b03166001600160a01b0316815260200190815260200160002060006101000a8154816001600160a01b0302191690836001600160a01b03160217905550886001600160a01b03168a6001600160a01b03167fdbf34b45b47a653cf4940cccbec765f72d4d63de3237306905bfc0ee2883236260405160405180910390a350505050505050505050565b6116ef611e5d565b60008051602061374c83398151915261170781611dd2565b8160005b80821115610f75573685858381811061172657611726613544565b6060029190910191506000905080806117426020850185612f7a565b6001600160a01b039081168252602082019290925260400160002080549092501661177f5760405162461bcd60e51b815260040161095a9061343e565b602082810135600283018190556040808501356003850181905584548251938452938301526001600160a01b03909216917f7e8886d8ada06aa154830d9afa9d83014f99e4b16b1578d06bd5802d666c4315910160405180910390a2505060010161170b565b7ff0c57e16840df040f15088dc2f81fe391c3923bec73e23a9662efc9c229c6a008054600160401b810460ff16159067ffffffffffffffff1660008115801561182b5750825b905060008267ffffffffffffffff1660011480156118485750303b155b905081158015611856575080155b156118745760405163f92ee8a960e01b815260040160405180910390fd5b845467ffffffffffffffff19166001178555831561189e57845460ff60401b1916600160401b1785555b6118a6612599565b6118ae6125a9565b6118b66125a9565b6118be6125b1565b6118c9600087611ddc565b506118e26000805160206137ec83398151915287611ddc565b506118fb6000805160206137ac83398151915287611ddc565b50831561194257845460ff60401b19168555604051600181527fc7f505b2f371ae2175ee4913f4499e1f2633a7b5936321eed1cdaeb6115181d29060200160405180910390a15b505050505050565b600081815260008051602061370c833981519152602081905260408220611970906125c1565b9392505050565b61198082610a3d565b61198981611dd2565b610b568383611e21565b61199b611e5d565b6119a3611e95565b346119ce7f00000000000000000000000000000000000000000000000000000000000000008261208d565b506119e660016000805160206137cc83398151915255565b565b6040516370a0823160e01b81523060048201526000906001600160a01b038316906370a0823190602401602060405180830381865afa158015611a2f573d6000803e3d6000fd5b505050506040513d601f19601f820116820180604052508101906109169190613502565b6000805160206137ec833981519152611a6b81611dd2565b6001600160a01b038316611a915760405162461bcd60e51b815260040161095a906133b1565b6001600160a01b0380841660009081526020819052604090208054909116611acb5760405162461bcd60e51b815260040161095a9061343e565b60048101805484151561010090810261ff0019831617928390556040805160ff93839004841680151582529290940490921615156020840152916001600160a01b038716917f68384b4f4b87956d2efbc57330ba1b694f41dd604449822dca247bebf7a5518c9101610a2e565b611b40611e5d565b611b48611e95565b8060005b80821115611d84576000848483818110611b6857611b68613544565b3360009081526004602090815260408083209382029590950135808352929052929092208054929350916001600160a01b03169050611bb95760405162461bcd60e51b815260040161095a9061343e565b600481015460ff161515600114611c025760405162461bcd60e51b815260206004820152600d60248201526c63616e206e6f7420636c61696d60981b604482015260640161095a565b80546001600160a01b0390811660009081526020819052604090208054909116611c3e5760405162461bcd60e51b815260040161095a906134ac565b600481015460ff610100909104161515600114611c6d5760405162461bcd60e51b815260040161095a906134da565b336000818152600460208181526040808420888552909152822080546001600160a01b03191681556001808201849055600280830185905560038301949094559101805460ff1916905583015490840154611cd292916001600160a01b0316906125cb565b60028083015460018301546001600160a01b0316600090815260209290925260408220805491929091611d0690849061357d565b9091555050600181810154835491840154600285015460408051928352602083019190915281018690526001600160a01b0391821692919091169033907fb143cbc1b45edd3fe39b60a0bb8aafb1e1d42da89e96e1aff4449ebdc37e48f29060600160405180910390a4505050611d7d8160010190565b9050611b4c565b5050610e2f60016000805160206137cc83398151915255565b60006001600160e01b03198216637965db0b60e01b148061091657506301ffc9a760e01b6001600160e01b0319831614610916565b610faf81336126b1565b600060008051602061370c83398151915281611df885856126ea565b90508015611355576000858152602083905260409020611e18908561278f565b50949350505050565b600060008051602061370c83398151915281611e3d85856127a4565b90508015611355576000858152602083905260409020611e189085612820565b6000805160206137cc833981519152805460011901611e8f57604051633ee5aeb560e01b815260040160405180910390fd5b60029055565b60008051602061378c8339815191525460ff16156119e65760405163d93c066560e01b815260040160405180910390fd5b610b8f6001600160a01b038316843084612835565b60016000805160206137cc83398151915255565b6040516370a0823160e01b815230600482015260009081906001600160a01b038416906370a0823190602401602060405180830381865afa158015611f38573d6000803e3d6000fd5b505050506040513d601f19601f82011682018060405250810190611f5c9190613502565b905060008111611f6d579050610916565b7f00000000000000000000000000000000000000000000000000000000000000006001600160a01b0316836001600160a01b031614611fbf57611fba6001600160a01b038416858361289c565b611970565b604051632e1a7d4d60e01b8152600481018290526001600160a01b03841690632e1a7d4d90602401600060405180830381600087803b15801561200157600080fd5b505af1158015612015573d6000803e3d6000fd5b50611970925050506001600160a01b038516826128cd565b612035612964565b60008051602061378c833981519152805460ff191681557f5db9ee0a495bf2e6ff9c91a7834c1ba4fdd244a5e8aa4e537bd38aeae4b073aa335b6040516001600160a01b03909116815260200160405180910390a150565b6001600160a01b0382166120b35760405162461bcd60e51b815260040161095a90613461565b600081116120f45760405162461bcd60e51b815260206004820152600e60248201526d1a5b9d985b1a5908185b5bdd5b9d60921b604482015260640161095a565b6001600160a01b03808316600090815260016020526040902054168061212c5760405162461bcd60e51b815260040161095a906134ac565b6001600160a01b0381166000908152602081905260409020600481015460ff16151560011461218d5760405162461bcd60e51b815260206004820152600d60248201526c1c185d5cd94819195c1bdcda5d609a1b604482015260640161095a565b806003015442106121d85760405162461bcd60e51b8152602060048201526015602482015274195e18da185b99d9481c985d1948195e1c1a5c9959605a1b604482015260640161095a565b60018101546000906121f590600160a01b900460ff16600a613674565b82600201546122049190613683565b612219856a52b7d2dcc80cd2e4000000613683565b612223919061369a565b9050612230338686612994565b6001600160a01b03851660009081526002602052604081208054869290612258908490613531565b90915550503360008181526003602052604090819020429055516340c10f1960e01b81526004810191909152602481018290526001600160a01b038416906340c10f1990604401600060405180830381600087803b1580156122b957600080fd5b505af11580156122cd573d6000803e3d6000fd5b505083546002850154604080518981526020810187905280820192909252516001600160a01b039283169450918916925033917fdc3f9f32b7ca52cfc67f1424b7cbe4b03f56ef295e7fedea895aec6ae7436ada9181900360600190a45050505050565b306001600160a01b037f00000000000000000000000000000000000000000000000000000000000000001614806123b857507f00000000000000000000000000000000000000000000000000000000000000006001600160a01b03166123ac60008051602061372c833981519152546001600160a01b031690565b6001600160a01b031614155b156119e65760405163703e46dd60e11b815260040160405180910390fd5b336001600160a01b037f00000000000000000000000000000000000000000000000000000000000000001614610faf5760405162461bcd60e51b815260206004820152600d60248201526c6f6e6c792074696d656c6f636b60981b604482015260640161095a565b816001600160a01b03166352d1902d6040518163ffffffff1660e01b8152600401602060405180830381865afa925050508015612498575060408051601f3d908101601f1916820190925261249591810190613502565b60015b6124c057604051634c9c8ce360e01b81526001600160a01b038316600482015260240161095a565b60008051602061372c83398151915281146124f157604051632a87526960e21b81526004810182905260240161095a565b610b8f8383612a82565b306001600160a01b037f000000000000000000000000000000000000000000000000000000000000000016146119e65760405163703e46dd60e11b815260040160405180910390fd5b61254c611e95565b60008051602061378c833981519152805460ff191660011781557f62e78cea01bee320cd4e420270b5ea74000d11b0c9f74754ebdbfc544b05a2583361206f565b60006119708383612ad8565b6125a1612b02565b6119e6612b4b565b6119e6612b02565b6125b9612b02565b6119e6612b6c565b6000610916825490565b7f00000000000000000000000000000000000000000000000000000000000000006001600160a01b0316826001600160a01b031614612678576006546040516317d5759960e31b81526001600160a01b0385811660048301528481166024830152604482018490529091169063beabacc8906064015b600060405180830381600087803b15801561265b57600080fd5b505af115801561266f573d6000803e3d6000fd5b50505050505050565b600654604051633e97486160e11b81526001600160a01b0385811660048301526024820184905290911690637d2e90c290604401612641565b6126bb828261135d565b610e2f5760405163e2517d3f60e01b81526001600160a01b03821660048201526024810183905260440161095a565b600060008051602061376c833981519152612705848461135d565b612785576000848152602082815260408083206001600160a01b03871684529091529020805460ff1916600117905561273b3390565b6001600160a01b0316836001600160a01b0316857f2f8788117e7eff1d82e926ec794901d17c78024a50270940304540a733656f0d60405160405180910390a46001915050610916565b6000915050610916565b6000611970836001600160a01b038416612b74565b600060008051602061376c8339815191526127bf848461135d565b15612785576000848152602082815260408083206001600160a01b0387168085529252808320805460ff1916905551339287917ff6391f5c32d9c69d2a47ea670b442974b53935d1edc7fd64eb21e047a839171b9190a46001915050610916565b6000611970836001600160a01b038416612bc3565b6040516001600160a01b038481166024830152838116604483015260648201839052610b569186918216906323b872dd906084015b604051602081830303815290604052915060e01b6020820180516001600160e01b038381831617835250505050612cac565b6040516001600160a01b03838116602483015260448201839052610b8f91859182169063a9059cbb9060640161286a565b804710156128f05760405163cd78605960e01b815230600482015260240161095a565b6000826001600160a01b03168260405160006040518083038185875af1925050503d806000811461293d576040519150601f19603f3d011682016040523d82523d6000602084013e612942565b606091505b5050905080610b8f57604051630a12f52160e11b815260040160405180910390fd5b60008051602061378c8339815191525460ff166119e657604051638dfc202b60e01b815260040160405180910390fd5b7f00000000000000000000000000000000000000000000000000000000000000006001600160a01b0316826001600160a01b0316146129e257610b8f6001600160a01b038316843084612835565b80341015612a295760405162461bcd60e51b8152602060048201526014602482015273696e73756666696369656e742062616c616e636560601b604482015260640161095a565b816001600160a01b031663d0e30db0826040518263ffffffff1660e01b81526004016000604051808303818588803b158015612a6457600080fd5b505af1158015612a78573d6000803e3d6000fd5b5050505050505050565b612a8b82612d0f565b6040516001600160a01b038316907fbc7cd75a20ee27fd9adebab32041f755214dbc6bffa90cc0225b39da2e5c2d3b90600090a2805115612ad057610b8f8282612d74565b610e2f612dea565b6000826000018281548110612aef57612aef613544565b9060005260206000200154905092915050565b7ff0c57e16840df040f15088dc2f81fe391c3923bec73e23a9662efc9c229c6a0054600160401b900460ff166119e657604051631afcd79f60e31b815260040160405180910390fd5b612b53612b02565b60008051602061378c833981519152805460ff19169055565b611edb612b02565b6000818152600183016020526040812054612bbb57508154600181810184556000848152602080822090930184905584548482528286019093526040902091909155610916565b506000610916565b60008181526001830160205260408120548015612785576000612be760018361357d565b8554909150600090612bfb9060019061357d565b9050808214612c60576000866000018281548110612c1b57612c1b613544565b9060005260206000200154905080876000018481548110612c3e57612c3e613544565b6000918252602080832090910192909255918252600188019052604090208390555b8554869080612c7157612c716136bc565b600190038181906000526020600020016000905590558560010160008681526020019081526020016000206000905560019350505050610916565b6000612cc16001600160a01b03841683612e09565b90508051600014158015612ce6575080806020019051810190612ce491906136d2565b155b15610b8f57604051635274afe760e01b81526001600160a01b038416600482015260240161095a565b806001600160a01b03163b600003612d4557604051634c9c8ce360e01b81526001600160a01b038216600482015260240161095a565b60008051602061372c83398151915280546001600160a01b0319166001600160a01b0392909216919091179055565b6060600080846001600160a01b031684604051612d9191906136ef565b600060405180830381855af49150503d8060008114612dcc576040519150601f19603f3d011682016040523d82523d6000602084013e612dd1565b606091505b5091509150612de1858383612e17565b95945050505050565b34156119e65760405163b398979f60e01b815260040160405180910390fd5b606061197083836000612e6e565b606082612e2757611fba82612f0b565b8151158015612e3e57506001600160a01b0384163b155b15612e6757604051639996b31560e01b81526001600160a01b038516600482015260240161095a565b5092915050565b606081471015612e935760405163cd78605960e01b815230600482015260240161095a565b600080856001600160a01b03168486604051612eaf91906136ef565b60006040518083038185875af1925050503d8060008114612eec576040519150601f19603f3d011682016040523d82523d6000602084013e612ef1565b606091505b5091509150612f01868383612e17565b9695505050505050565b805115612f1b5780518082602001fd5b604051630a12f52160e11b815260040160405180910390fd5b600060208284031215612f4657600080fd5b81356001600160e01b03198116811461197057600080fd5b80356001600160a01b0381168114612f7557600080fd5b919050565b600060208284031215612f8c57600080fd5b61197082612f5e565b60008060408385031215612fa857600080fd5b612fb183612f5e565b9150612fbf60208401612f5e565b90509250929050565b600060208284031215612fda57600080fd5b5035919050565b8015158114610faf57600080fd5b6000806040838503121561300257600080fd5b61300b83612f5e565b9150602083013561301b81612fe1565b809150509250929050565b6000806040838503121561303957600080fd5b82359150612fbf60208401612f5e565b6000806040838503121561305c57600080fd5b61306583612f5e565b946020939093013593505050565b60008083601f84011261308557600080fd5b50813567ffffffffffffffff81111561309d57600080fd5b6020830191508360208260051b85010111156130b857600080fd5b9250929050565b600080602083850312156130d257600080fd5b823567ffffffffffffffff8111156130e957600080fd5b6130f585828601613073565b90969095509350505050565b634e487b7160e01b600052604160045260246000fd5b6000806040838503121561312a57600080fd5b61313383612f5e565b9150602083013567ffffffffffffffff8082111561315057600080fd5b818501915085601f83011261316457600080fd5b81358181111561317657613176613101565b604051601f8201601f19908116603f0116810190838211818310171561319e5761319e613101565b816040528281528860208487010111156131b757600080fd5b8260208601602083013760006020848301015280955050505050509250929050565b600080602083850312156131ec57600080fd5b823567ffffffffffffffff8082111561320457600080fd5b818501915085601f83011261321857600080fd5b81358181111561322757600080fd5b86602060a08302850101111561323c57600080fd5b60209290920196919550909350505050565b6000806040838503121561326157600080fd5b50508035926020909101359150565b600080600080600080600060e0888a03121561328b57600080fd5b61329488612f5e565b96506132a260208901612f5e565b95506132b060408901612f5e565b94506060880135935060808801356132c781612fe1565b925060a08801356132d781612fe1565b915060c08801356132e781612fe1565b8091505092959891949750929550565b60005b838110156133125781810151838201526020016132fa565b50506000910152565b602081526000825180602084015261333a8160408501602087016132f7565b601f01601f19169190910160400192915050565b6000806020838503121561336157600080fd5b823567ffffffffffffffff8082111561337957600080fd5b818501915085601f83011261338d57600080fd5b81358181111561339c57600080fd5b86602060608302850101111561323c57600080fd5b60208082526028908201527f617373546f6b656e416464726573732063616e6e6f742062652061207a65726f604082015267206164647265737360c01b606082015260800190565b60208082526025908201527f6365666675416464726573732063616e6e6f742062652061207a65726f206164604082015264647265737360d81b606082015260800190565b6020808252600990820152681b9bdd08195e1a5cdd60ba1b604082015260600190565b6020808252602b908201527f736f75726365546f6b656e416464726573732063616e6e6f742062652061207a60408201526a65726f206164647265737360a81b606082015260800190565b60208082526014908201527318dd5c9c995b98de481b9bdd081cdd5c1c1bdc9d60621b604082015260600190565b6020808252600e908201526d706175736520776974686472617760901b604082015260600190565b60006020828403121561351457600080fd5b5051919050565b634e487b7160e01b600052601160045260246000fd5b808201808211156109165761091661351b565b634e487b7160e01b600052603260045260246000fd5b60006020828403121561356c57600080fd5b815160ff8116811461197057600080fd5b818103818111156109165761091661351b565b600181815b808511156135cb5781600019048211156135b1576135b161351b565b808516156135be57918102915b93841c9390800290613595565b509250929050565b6000826135e257506001610916565b816135ef57506000610916565b8160018114613605576002811461360f5761362b565b6001915050610916565b60ff8411156136205761362061351b565b50506001821b610916565b5060208310610133831016604e8410600b841016171561364e575081810a610916565b6136588383613590565b806000190482111561366c5761366c61351b565b029392505050565b600061197060ff8416836135d3565b80820281158282048414176109165761091661351b565b6000826136b757634e487b7160e01b600052601260045260246000fd5b500490565b634e487b7160e01b600052603160045260246000fd5b6000602082840312156136e457600080fd5b815161197081612fe1565b600082516137018184602087016132f7565b919091019291505056fec1f6fe24621ce81ec5827caf0253cadb74709b061630e6b55e82371705932000360894a13ba1a3210667c828492db98dca3e2076cc3735a920a3ca505d382bbc31e0210044b4f6757ce6aa31f9c6e8d4896d24a755014887391a926c5224d95902dd7bc7dec4dceedda775e58dd541e08a116c6c53815c0bd028192f7b626800cd5ed15c6e187e77e9aee88184c21f4f2182ab5827cb3b7e07fbedcd63f03300139c2898040ef16910dc9f44dc697df79363da767d8bc92f2e310312b816e46d9b779b17422d0df92223018b32b4d1fa46e071723d6817e2486d003becc55f00a49807205ce4d355092ef5a8a18f56e8913cf4a201fbe287825b095693c21775a2646970667358221220d7c2a51a2a475ac65007a32d72bc851355f78a23e97320b08b073c88d1a7845e64736f6c63430008190033",
  "devdoc": {
    "errors": {
      "AccessControlBadConfirmation()": [
        {
          "details": "The caller of a function is not the expected one. NOTE: Don't confuse with {AccessControlUnauthorizedAccount}."
        }
      ],
      "AccessControlUnauthorizedAccount(address,bytes32)": [
        {
          "details": "The `account` is missing a role."
        }
      ],
      "AddressEmptyCode(address)": [
        {
          "details": "There's no code at `target` (it is not a contract)."
        }
      ],
      "AddressInsufficientBalance(address)": [
        {
          "details": "The ETH balance of the account is not enough to perform the operation."
        }
      ],
      "ERC1967InvalidImplementation(address)": [
        {
          "details": "The `implementation` of the proxy is invalid."
        }
      ],
      "ERC1967NonPayable()": [
        {
          "details": "An upgrade function sees `msg.value > 0` that may be lost."
        }
      ],
      "EnforcedPause()": [
        {
          "details": "The operation failed because the contract is paused."
        }
      ],
      "ExpectedPause()": [
        {
          "details": "The operation failed because the contract is not paused."
        }
      ],
      "FailedInnerCall()": [
        {
          "details": "A call to an address target failed. The target may have reverted."
        }
      ],
      "InvalidInitialization()": [
        {
          "details": "The contract is already initialized."
        }
      ],
      "NotInitializing()": [
        {
          "details": "The contract is not initializing."
        }
      ],
      "ReentrancyGuardReentrantCall()": [
        {
          "details": "Unauthorized reentrant call."
        }
      ],
      "SafeERC20FailedOperation(address)": [
        {
          "details": "An operation with an ERC20 token failed."
        }
      ],
      "UUPSUnauthorizedCallContext()": [
        {
          "details": "The call is from an unauthorized context."
        }
      ],
      "UUPSUnsupportedProxiableUUID(bytes32)": [
        {
          "details": "The storage `slot` is unsupported as a UUID."
        }
      ]
    },
    "events": {
      "Initialized(uint64)": {
        "details": "Triggered when the contract has been initialized or reinitialized."
      },
      "Paused(address)": {
        "details": "Emitted when the pause is triggered by `account`."
      },
      "RoleAdminChanged(bytes32,bytes32,bytes32)": {
        "details": "Emitted when `newAdminRole` is set as ``role``'s admin role, replacing `previousAdminRole` `DEFAULT_ADMIN_ROLE` is the starting admin for all roles, despite {RoleAdminChanged} not being emitted signaling this."
      },
      "RoleGranted(bytes32,address,address)": {
        "details": "Emitted when `account` is granted `role`. `sender` is the account that originated the contract call, an admin role bearer except when using {AccessControl-_setupRole}."
      },
      "RoleRevoked(bytes32,address,address)": {
        "details": "Emitted when `account` is revoked `role`. `sender` is the account that originated the contract call:   - if using `revokeRole`, it is the admin role bearer   - if using `renounceRole`, it is the role bearer (i.e. `account`)"
      },
      "Unpaused(address)": {
        "details": "Emitted when the pause is lifted by `account`."
      },
      "Upgraded(address)": {
        "details": "Emitted when the implementation is upgraded."
      }
    },
    "kind": "dev",
    "methods": {
      "constructor": {
        "custom:oz-upgrades-unsafe-allow": "constructor"
      },
      "getRoleAdmin(bytes32)": {
        "details": "Returns the admin role that controls `role`. See {grantRole} and {revokeRole}. To change a role's admin, use {_setRoleAdmin}."
      },
      "getRoleMember(bytes32,uint256)": {
        "details": "Returns one of the accounts that have `role`. `index` must be a value between 0 and {getRoleMemberCount}, non-inclusive. Role bearers are not sorted in any particular way, and their ordering may change at any point. WARNING: When using {getRoleMember} and {getRoleMemberCount}, make sure you perform all queries on the same block. See the following https://forum.openzeppelin.com/t/iterating-over-elements-on-enumerableset-in-openzeppelin-contracts/2296[forum post] for more information."
      },
      "getRoleMemberCount(bytes32)": {
        "details": "Returns the number of accounts that have `role`. Can be used together with {getRoleMember} to enumerate all bearers of a role."
      },
      "grantRole(bytes32,address)": {
        "details": "Grants `role` to `account`. If `account` had not been already granted `role`, emits a {RoleGranted} event. Requirements: - the caller must have ``role``'s admin role. May emit a {RoleGranted} event."
      },
      "hasRole(bytes32,address)": {
        "details": "Returns `true` if `account` has been granted `role`."
      },
      "paused()": {
        "details": "Returns true if the contract is paused, and false otherwise."
      },
      "proxiableUUID()": {
        "details": "Implementation of the ERC1822 {proxiableUUID} function. This returns the storage slot used by the implementation. It is used to validate the implementation's compatibility when performing an upgrade. IMPORTANT: A proxy pointing at a proxiable contract should not be considered proxiable itself, because this risks bricking a proxy that upgrades to it, by delegating to itself until out of gas. Thus it is critical that this function revert if invoked through a proxy. This is guaranteed by the `notDelegated` modifier."
      },
      "renounceRole(bytes32,address)": {
        "details": "Revokes `role` from the calling account. Roles are often managed via {grantRole} and {revokeRole}: this function's purpose is to provide a mechanism for accounts to lose their privileges if they are compromised (such as when a trusted device is misplaced). If the calling account had been revoked `role`, emits a {RoleRevoked} event. Requirements: - the caller must be `callerConfirmation`. May emit a {RoleRevoked} event."
      },
      "revokeRole(bytes32,address)": {
        "details": "Revokes `role` from `account`. If `account` had been granted `role`, emits a {RoleRevoked} event. Requirements: - the caller must have ``role``'s admin role. May emit a {RoleRevoked} event."
      },
      "supportsInterface(bytes4)": {
        "details": "See {IERC165-supportsInterface}."
      },
      "upgradeToAndCall(address,bytes)": {
        "custom:oz-upgrades-unsafe-allow-reachable": "delegatecall",
        "details": "Upgrade the implementation of the proxy to `newImplementation`, and subsequently execute the function call encoded in `data`. Calls {_authorizeUpgrade}. Emits an {Upgraded} event."
      }
    },
    "version": 1
  },
  "userdoc": {
    "kind": "user",
    "methods": {},
    "version": 1
  },
  "storageLayout": {
    "storage": [
      {
        "astId": 3918,
        "contract": "contracts/AstherusEarnVault.sol:AstherusEarnVault",
        "label": "supportAssToken",
        "offset": 0,
        "slot": "0",
        "type": "t_mapping(t_address,t_struct(Token)3878_storage)"
      },
      {
        "astId": 3922,
        "contract": "contracts/AstherusEarnVault.sol:AstherusEarnVault",
        "label": "supportSourceToken",
        "offset": 0,
        "slot": "1",
        "type": "t_mapping(t_address,t_address)"
      },
      {
        "astId": 3926,
        "contract": "contracts/AstherusEarnVault.sol:AstherusEarnVault",
        "label": "sourceTokenTreasury",
        "offset": 0,
        "slot": "2",
        "type": "t_mapping(t_address,t_uint256)"
      },
      {
        "astId": 3930,
        "contract": "contracts/AstherusEarnVault.sol:AstherusEarnVault",
        "label": "lastMintedAt",
        "offset": 0,
        "slot": "3",
        "type": "t_mapping(t_address,t_uint256)"
      },
      {
        "astId": 3937,
        "contract": "contracts/AstherusEarnVault.sol:AstherusEarnVault",
        "label": "requestWithdraws",
        "offset": 0,
        "slot": "4",
        "type": "t_mapping(t_address,t_mapping(t_uint256,t_struct(RequestWithdrawInfo)3907_storage))"
      },
      {
        "astId": 3939,
        "contract": "contracts/AstherusEarnVault.sol:AstherusEarnVault",
        "label": "requestWithdrawMaxNo",
        "offset": 0,
        "slot": "5",
        "type": "t_uint256"
      },
      {
        "astId": 3942,
        "contract": "contracts/AstherusEarnVault.sol:AstherusEarnVault",
        "label": "_withdrawVault",
        "offset": 0,
        "slot": "6",
        "type": "t_contract(IAstherusEarnWithdrawVault)5644"
      }
    ],
    "types": {
      "t_address": {
        "encoding": "inplace",
        "label": "address",
        "numberOfBytes": "20"
      },
      "t_bool": {
        "encoding": "inplace",
        "label": "bool",
        "numberOfBytes": "1"
      },
      "t_contract(IAstherusEarnWithdrawVault)5644": {
        "encoding": "inplace",
        "label": "contract IAstherusEarnWithdrawVault",
        "numberOfBytes": "20"
      },
      "t_mapping(t_address,t_address)": {
        "encoding": "mapping",
        "key": "t_address",
        "label": "mapping(address => address)",
        "numberOfBytes": "32",
        "value": "t_address"
      },
      "t_mapping(t_address,t_mapping(t_uint256,t_struct(RequestWithdrawInfo)3907_storage))": {
        "encoding": "mapping",
        "key": "t_address",
        "label": "mapping(address => mapping(uint256 => struct AstherusEarnVault.RequestWithdrawInfo))",
        "numberOfBytes": "32",
        "value": "t_mapping(t_uint256,t_struct(RequestWithdrawInfo)3907_storage)"
      },
      "t_mapping(t_address,t_struct(Token)3878_storage)": {
        "encoding": "mapping",
        "key": "t_address",
        "label": "mapping(address => struct AstherusEarnVault.Token)",
        "numberOfBytes": "32",
        "value": "t_struct(Token)3878_storage"
      },
      "t_mapping(t_address,t_uint256)": {
        "encoding": "mapping",
        "key": "t_address",
        "label": "mapping(address => uint256)",
        "numberOfBytes": "32",
        "value": "t_uint256"
      },
      "t_mapping(t_uint256,t_struct(RequestWithdrawInfo)3907_storage)": {
        "encoding": "mapping",
        "key": "t_uint256",
        "label": "mapping(uint256 => struct AstherusEarnVault.RequestWithdrawInfo)",
        "numberOfBytes": "32",
        "value": "t_struct(RequestWithdrawInfo)3907_storage"
      },
      "t_struct(RequestWithdrawInfo)3907_storage": {
        "encoding": "inplace",
        "label": "struct AstherusEarnVault.RequestWithdrawInfo",
        "members": [
          {
            "astId": 3898,
            "contract": "contracts/AstherusEarnVault.sol:AstherusEarnVault",
            "label": "assTokenAddress",
            "offset": 0,
            "slot": "0",
            "type": "t_address"
          },
          {
            "astId": 3900,
            "contract": "contracts/AstherusEarnVault.sol:AstherusEarnVault",
            "label": "assTokenAmount",
            "offset": 0,
            "slot": "1",
            "type": "t_uint256"
          },
          {
            "astId": 3902,
            "contract": "contracts/AstherusEarnVault.sol:AstherusEarnVault",
            "label": "sourceTokenAmount",
            "offset": 0,
            "slot": "2",
            "type": "t_uint256"
          },
          {
            "astId": 3904,
            "contract": "contracts/AstherusEarnVault.sol:AstherusEarnVault",
            "label": "applyTimestamp",
            "offset": 0,
            "slot": "3",
            "type": "t_uint256"
          },
          {
            "astId": 3906,
            "contract": "contracts/AstherusEarnVault.sol:AstherusEarnVault",
            "label": "canClaimWithdraw",
            "offset": 0,
            "slot": "4",
            "type": "t_bool"
          }
        ],
        "numberOfBytes": "160"
      },
      "t_struct(Token)3878_storage": {
        "encoding": "inplace",
        "label": "struct AstherusEarnVault.Token",
        "members": [
          {
            "astId": 3861,
            "contract": "contracts/AstherusEarnVault.sol:AstherusEarnVault",
            "label": "assTokenAddress",
            "offset": 0,
            "slot": "0",
            "type": "t_address"
          },
          {
            "astId": 3863,
            "contract": "contracts/AstherusEarnVault.sol:AstherusEarnVault",
            "label": "sourceTokenAddress",
            "offset": 0,
            "slot": "1",
            "type": "t_address"
          },
          {
            "astId": 3865,
            "contract": "contracts/AstherusEarnVault.sol:AstherusEarnVault",
            "label": "sourceTokenDecimals",
            "offset": 20,
            "slot": "1",
            "type": "t_uint8"
          },
          {
            "astId": 3867,
            "contract": "contracts/AstherusEarnVault.sol:AstherusEarnVault",
            "label": "assToSourceExchangeRate",
            "offset": 0,
            "slot": "2",
            "type": "t_uint256"
          },
          {
            "astId": 3869,
            "contract": "contracts/AstherusEarnVault.sol:AstherusEarnVault",
            "label": "exchangeRateExpiredTimestamp",
            "offset": 0,
            "slot": "3",
            "type": "t_uint256"
          },
          {
            "astId": 3871,
            "contract": "contracts/AstherusEarnVault.sol:AstherusEarnVault",
            "label": "depositEnabled",
            "offset": 0,
            "slot": "4",
            "type": "t_bool"
          },
          {
            "astId": 3873,
            "contract": "contracts/AstherusEarnVault.sol:AstherusEarnVault",
            "label": "withdrawEnabled",
            "offset": 1,
            "slot": "4",
            "type": "t_bool"
          },
          {
            "astId": 3875,
            "contract": "contracts/AstherusEarnVault.sol:AstherusEarnVault",
            "label": "ceffuAddress",
            "offset": 2,
            "slot": "4",
            "type": "t_address"
          },
          {
            "astId": 3877,
            "contract": "contracts/AstherusEarnVault.sol:AstherusEarnVault",
            "label": "transferToCeffuEnabled",
            "offset": 22,
            "slot": "4",
            "type": "t_bool"
          }
        ],
        "numberOfBytes": "160"
      },
      "t_uint256": {
        "encoding": "inplace",
        "label": "uint256",
        "numberOfBytes": "32"
      },
      "t_uint8": {
        "encoding": "inplace",
        "label": "uint8",
        "numberOfBytes": "1"
      }
    }
  }
}