{
  "address": "0x57DCAc9d0f8Cd7FC4E28F8f33EA90C0732a482B7",
  "abi": [
    {
      "inputs": [
        {
          "internalType": "address",
          "name": "nativeWrapped",
          "type": "address"
        },
        {
          "internalType": "address",
          "name": "timelockAddress",
          "type": "address"
        },
        {
          "internalType": "address",
          "name": "withdrawVault",
          "type": "address"
        }
      ],
      "stateMutability": "nonpayable",
      "type": "constructor"
    },
    {
      "inputs": [],
      "name": "AccessControlBadConfirmation",
      "type": "error"
    },
    {
      "inputs": [
        {
          "internalType": "address",
          "name": "account",
          "type": "address"
        },
        {
          "internalType": "bytes32",
          "name": "neededRole",
          "type": "bytes32"
        }
      ],
      "name": "AccessControlUnauthorizedAccount",
      "type": "error"
    },
    {
      "inputs": [
        {
          "internalType": "address",
          "name": "target",
          "type": "address"
        }
      ],
      "name": "AddressEmptyCode",
      "type": "error"
    },
    {
      "inputs": [
        {
          "internalType": "address",
          "name": "account",
          "type": "address"
        }
      ],
      "name": "AddressInsufficientBalance",
      "type": "error"
    },
    {
      "inputs": [
        {
          "internalType": "address",
          "name": "implementation",
          "type": "address"
        }
      ],
      "name": "ERC1967InvalidImplementation",
      "type": "error"
    },
    {
      "inputs": [],
      "name": "ERC1967NonPayable",
      "type": "error"
    },
    {
      "inputs": [],
      "name": "EnforcedPause",
      "type": "error"
    },
    {
      "inputs": [],
      "name": "ExpectedPause",
      "type": "error"
    },
    {
      "inputs": [],
      "name": "FailedInnerCall",
      "type": "error"
    },
    {
      "inputs": [],
      "name": "InvalidInitialization",
      "type": "error"
    },
    {
      "inputs": [],
      "name": "NotInitializing",
      "type": "error"
    },
    {
      "inputs": [],
      "name": "ReentrancyGuardReentrantCall",
      "type": "error"
    },
    {
      "inputs": [
        {
          "internalType": "address",
          "name": "token",
          "type": "address"
        }
      ],
      "name": "SafeERC20FailedOperation",
      "type": "error"
    },
    {
      "inputs": [],
      "name": "UUPSUnauthorizedCallContext",
      "type": "error"
    },
    {
      "inputs": [
        {
          "internalType": "bytes32",
          "name": "slot",
          "type": "bytes32"
        }
      ],
      "name": "UUPSUnsupportedProxiableUUID",
      "type": "error"
    },
    {
      "anonymous": false,
      "inputs": [
        {
          "indexed": true,
          "internalType": "address",
          "name": "assTokenAddress",
          "type": "address"
        },
        {
          "indexed": true,
          "internalType": "address",
          "name": "sourceTokenAddress",
          "type": "address"
        }
      ],
      "name": "AddToken",
      "type": "event"
    },
    {
      "anonymous": false,
      "inputs": [
        {
          "indexed": true,
          "internalType": "address",
          "name": "sender",
          "type": "address"
        },
        {
          "indexed": true,
          "internalType": "address",
          "name": "assTokenAddress",
          "type": "address"
        },
        {
          "indexed": true,
          "internalType": "address",
          "name": "sourceTokenAddress",
          "type": "address"
        },
        {
          "indexed": false,
          "internalType": "uint256",
          "name": "assTokenAmount",
          "type": "uint256"
        },
        {
          "indexed": false,
          "internalType": "uint256",
          "name": "sourceTokenAmount",
          "type": "uint256"
        },
        {
          "indexed": false,
          "internalType": "uint256",
          "name": "requestWithdrawNo",
          "type": "uint256"
        }
      ],
      "name": "ClaimWithdraw",
      "type": "event"
    },
    {
      "anonymous": false,
      "inputs": [
        {
          "indexed": true,
          "internalType": "address",
          "name": "assTokenAddress",
          "type": "address"
        },
        {
          "indexed": true,
          "internalType": "address",
          "name": "sourceTokenAddress",
          "type": "address"
        },
        {
          "indexed": false,
          "internalType": "uint256",
          "name": "assTokenAmount",
          "type": "uint256"
        },
        {
          "indexed": false,
          "internalType": "uint256",
          "name": "sourceTokenAmount",
          "type": "uint256"
        },
        {
          "indexed": false,
          "internalType": "uint256",
          "name": "requestWithdrawNo",
          "type": "uint256"
        }
      ],
      "name": "DistributeWithdraw",
      "type": "event"
    },
    {
      "anonymous": false,
      "inputs": [
        {
          "indexed": false,
          "internalType": "uint64",
          "name": "version",
          "type": "uint64"
        }
      ],
      "name": "Initialized",
      "type": "event"
    },
    {
      "anonymous": false,
      "inputs": [
        {
          "indexed": true,
          "internalType": "address",
          "name": "sender",
          "type": "address"
        },
        {
          "indexed": true,
          "internalType": "address",
          "name": "sourceTokenAddress",
          "type": "address"
        },
        {
          "indexed": true,
          "internalType": "address",
          "name": "assTokenAddress",
          "type": "address"
        },
        {
          "indexed": false,
          "internalType": "uint256",
          "name": "amountIn",
          "type": "uint256"
        },
        {
          "indexed": false,
          "internalType": "uint256",
          "name": "assXXXAmount",
          "type": "uint256"
        },
        {
          "indexed": false,
          "internalType": "uint256",
          "name": "assToSourceExchangeRate",
          "type": "uint256"
        }
      ],
      "name": "MintAssXXX",
      "type": "event"
    },
    {
      "anonymous": false,
      "inputs": [
        {
          "indexed": false,
          "internalType": "address",
          "name": "account",
          "type": "address"
        }
      ],
      "name": "Paused",
      "type": "event"
    },
    {
      "anonymous": false,
      "inputs": [
        {
          "indexed": true,
          "internalType": "address",
          "name": "sender",
          "type": "address"
        },
        {
          "indexed": true,
          "internalType": "address",
          "name": "assTokenAddress",
          "type": "address"
        },
        {
          "indexed": false,
          "internalType": "uint256",
          "name": "assTokenAmount",
          "type": "uint256"
        },
        {
          "indexed": false,
          "internalType": "uint256",
          "name": "requestWithdrawNo",
          "type": "uint256"
        }
      ],
      "name": "RequestWithdraw",
      "type": "event"
    },
    {
      "anonymous": false,
      "inputs": [
        {
          "indexed": true,
          "internalType": "bytes32",
          "name": "role",
          "type": "bytes32"
        },
        {
          "indexed": true,
          "internalType": "bytes32",
          "name": "previousAdminRole",
          "type": "bytes32"
        },
        {
          "indexed": true,
          "internalType": "bytes32",
          "name": "newAdminRole",
          "type": "bytes32"
        }
      ],
      "name": "RoleAdminChanged",
      "type": "event"
    },
    {
      "anonymous": false,
      "inputs": [
        {
          "indexed": true,
          "internalType": "bytes32",
          "name": "role",
          "type": "bytes32"
        },
        {
          "indexed": true,
          "internalType": "address",
          "name": "account",
          "type": "address"
        },
        {
          "indexed": true,
          "internalType": "address",
          "name": "sender",
          "type": "address"
        }
      ],
      "name": "RoleGranted",
      "type": "event"
    },
    {
      "anonymous": false,
      "inputs": [
        {
          "indexed": true,
          "internalType": "bytes32",
          "name": "role",
          "type": "bytes32"
        },
        {
          "indexed": true,
          "internalType": "address",
          "name": "account",
          "type": "address"
        },
        {
          "indexed": true,
          "internalType": "address",
          "name": "sender",
          "type": "address"
        }
      ],
      "name": "RoleRevoked",
      "type": "event"
    },
    {
      "anonymous": false,
      "inputs": [
        {
          "indexed": true,
          "internalType": "address",
          "name": "sourceTokenAddress",
          "type": "address"
        },
        {
          "indexed": false,
          "internalType": "uint256",
          "name": "sourceTokenAmount",
          "type": "uint256"
        },
        {
          "indexed": false,
          "internalType": "address",
          "name": "ceffuAddress",
          "type": "address"
        }
      ],
      "name": "TransferToCeffu",
      "type": "event"
    },
    {
      "anonymous": false,
      "inputs": [
        {
          "indexed": false,
          "internalType": "address",
          "name": "account",
          "type": "address"
        }
      ],
      "name": "Unpaused",
      "type": "event"
    },
    {
      "anonymous": false,
      "inputs": [
        {
          "indexed": true,
          "internalType": "address",
          "name": "assTokenAddress",
          "type": "address"
        },
        {
          "indexed": false,
          "internalType": "address",
          "name": "oldCeffuAddress",
          "type": "address"
        },
        {
          "indexed": false,
          "internalType": "address",
          "name": "newCeffuAddress",
          "type": "address"
        }
      ],
      "name": "UpdateCeffuAddress",
      "type": "event"
    },
    {
      "anonymous": false,
      "inputs": [
        {
          "indexed": true,
          "internalType": "address",
          "name": "assTokenAddress",
          "type": "address"
        },
        {
          "indexed": false,
          "internalType": "bool",
          "name": "oldDepositEnabled",
          "type": "bool"
        },
        {
          "indexed": false,
          "internalType": "bool",
          "name": "newDepositEnabled",
          "type": "bool"
        }
      ],
      "name": "UpdateDepositEnabled",
      "type": "event"
    },
    {
      "anonymous": false,
      "inputs": [
        {
          "indexed": true,
          "internalType": "address",
          "name": "assTokenAddress",
          "type": "address"
        },
        {
          "indexed": false,
          "internalType": "bool",
          "name": "oldTransferToCeffuEnabled",
          "type": "bool"
        },
        {
          "indexed": false,
          "internalType": "bool",
          "name": "newTransferToCeffuEnabled",
          "type": "bool"
        }
      ],
      "name": "UpdateTransferToCeffuEnabled",
      "type": "event"
    },
    {
      "anonymous": false,
      "inputs": [
        {
          "indexed": true,
          "internalType": "address",
          "name": "assTokenAddress",
          "type": "address"
        },
        {
          "indexed": false,
          "internalType": "bool",
          "name": "oldWithdrawEnabled",
          "type": "bool"
        },
        {
          "indexed": false,
          "internalType": "bool",
          "name": "newWithdrawEnabled",
          "type": "bool"
        }
      ],
      "name": "UpdateWithdrawEnabled",
      "type": "event"
    },
    {
      "anonymous": false,
      "inputs": [
        {
          "indexed": true,
          "internalType": "address",
          "name": "implementation",
          "type": "address"
        }
      ],
      "name": "Upgraded",
      "type": "event"
    },
    {
      "anonymous": false,
      "inputs": [
        {
          "indexed": true,
          "internalType": "address",
          "name": "assTokenAddress",
          "type": "address"
        },
        {
          "indexed": false,
          "internalType": "uint256",
          "name": "assToSourceExchangeRate",
          "type": "uint256"
        },
        {
          "indexed": false,
          "internalType": "uint256",
          "name": "exchangeRateExpiredTimestamp",
          "type": "uint256"
        }
      ],
      "name": "UploadExchangeRate",
      "type": "event"
    },
    {
      "inputs": [],
      "name": "ADMIN_ROLE",
      "outputs": [
        {
          "internalType": "bytes32",
          "name": "",
          "type": "bytes32"
        }
      ],
      "stateMutability": "view",
      "type": "function"
    },
    {
      "inputs": [],
      "name": "BOT_ROLE",
      "outputs": [
        {
          "internalType": "bytes32",
          "name": "",
          "type": "bytes32"
        }
      ],
      "stateMutability": "view",
      "type": "function"
    },
    {
      "inputs": [],
      "name": "DEFAULT_ADMIN_ROLE",
      "outputs": [
        {
          "internalType": "bytes32",
          "name": "",
          "type": "bytes32"
        }
      ],
      "stateMutability": "view",
      "type": "function"
    },
    {
      "inputs": [],
      "name": "NATIVE_WRAPPED",
      "outputs": [
        {
          "internalType": "address",
          "name": "",
          "type": "address"
        }
      ],
      "stateMutability": "view",
      "type": "function"
    },
    {
      "inputs": [],
      "name": "PAUSE_ROLE",
      "outputs": [
        {
          "internalType": "bytes32",
          "name": "",
          "type": "bytes32"
        }
      ],
      "stateMutability": "view",
      "type": "function"
    },
    {
      "inputs": [],
      "name": "TIMELOCK_ADDRESS",
      "outputs": [
        {
          "internalType": "address",
          "name": "",
          "type": "address"
        }
      ],
      "stateMutability": "view",
      "type": "function"
    },
    {
      "inputs": [],
      "name": "UPGRADE_INTERFACE_VERSION",
      "outputs": [
        {
          "internalType": "string",
          "name": "",
          "type": "string"
        }
      ],
      "stateMutability": "view",
      "type": "function"
    },
    {
      "inputs": [],
      "name": "WITHDRAW_VAULT",
      "outputs": [
        {
          "internalType": "address",
          "name": "",
          "type": "address"
        }
      ],
      "stateMutability": "view",
      "type": "function"
    },
    {
      "inputs": [
        {
          "internalType": "address",
          "name": "assTokenAddress",
          "type": "address"
        },
        {
          "internalType": "address",
          "name": "sourceTokenAddress",
          "type": "address"
        },
        {
          "internalType": "address",
          "name": "ceffuAddress",
          "type": "address"
        },
        {
          "internalType": "uint256",
          "name": "exchangeRateExpiredTimestamp",
          "type": "uint256"
        },
        {
          "internalType": "bool",
          "name": "depositEnabled",
          "type": "bool"
        },
        {
          "internalType": "bool",
          "name": "withdrawEnabled",
          "type": "bool"
        },
        {
          "internalType": "bool",
          "name": "transferToCeffuEnabled",
          "type": "bool"
        }
      ],
      "name": "addToken",
      "outputs": [],
      "stateMutability": "nonpayable",
      "type": "function"
    },
    {
      "inputs": [
        {
          "internalType": "address",
          "name": "currency",
          "type": "address"
        }
      ],
      "name": "balance",
      "outputs": [
        {
          "internalType": "uint256",
          "name": "",
          "type": "uint256"
        }
      ],
      "stateMutability": "view",
      "type": "function"
    },
    {
      "inputs": [
        {
          "internalType": "uint256[]",
          "name": "requestWithdrawNos",
          "type": "uint256[]"
        }
      ],
      "name": "claimWithdraw",
      "outputs": [],
      "stateMutability": "nonpayable",
      "type": "function"
    },
    {
      "inputs": [
        {
          "internalType": "address",
          "name": "sourceTokenAddress",
          "type": "address"
        },
        {
          "internalType": "uint256",
          "name": "amountIn",
          "type": "uint256"
        }
      ],
      "name": "deposit",
      "outputs": [],
      "stateMutability": "nonpayable",
      "type": "function"
    },
    {
      "inputs": [],
      "name": "depositNative",
      "outputs": [],
      "stateMutability": "payable",
      "type": "function"
    },
    {
      "inputs": [
        {
          "components": [
            {
              "internalType": "address",
              "name": "assTokenAddress",
              "type": "address"
            },
            {
              "internalType": "uint256",
              "name": "sourceTokenAmount",
              "type": "uint256"
            },
            {
              "internalType": "uint256",
              "name": "requestWithdrawNo",
              "type": "uint256"
            },
            {
              "internalType": "address",
              "name": "receipt",
              "type": "address"
            }
          ],
          "internalType": "struct Earn.DistributeWithdrawInfo[]",
          "name": "distributeWithdrawInfoList",
          "type": "tuple[]"
        }
      ],
      "name": "distributeWithdraw",
      "outputs": [],
      "stateMutability": "nonpayable",
      "type": "function"
    },
    {
      "inputs": [
        {
          "internalType": "bytes32",
          "name": "role",
          "type": "bytes32"
        }
      ],
      "name": "getRoleAdmin",
      "outputs": [
        {
          "internalType": "bytes32",
          "name": "",
          "type": "bytes32"
        }
      ],
      "stateMutability": "view",
      "type": "function"
    },
    {
      "inputs": [
        {
          "internalType": "bytes32",
          "name": "role",
          "type": "bytes32"
        },
        {
          "internalType": "uint256",
          "name": "index",
          "type": "uint256"
        }
      ],
      "name": "getRoleMember",
      "outputs": [
        {
          "internalType": "address",
          "name": "",
          "type": "address"
        }
      ],
      "stateMutability": "view",
      "type": "function"
    },
    {
      "inputs": [
        {
          "internalType": "bytes32",
          "name": "role",
          "type": "bytes32"
        }
      ],
      "name": "getRoleMemberCount",
      "outputs": [
        {
          "internalType": "uint256",
          "name": "",
          "type": "uint256"
        }
      ],
      "stateMutability": "view",
      "type": "function"
    },
    {
      "inputs": [
        {
          "internalType": "bytes32",
          "name": "role",
          "type": "bytes32"
        },
        {
          "internalType": "address",
          "name": "account",
          "type": "address"
        }
      ],
      "name": "grantRole",
      "outputs": [],
      "stateMutability": "nonpayable",
      "type": "function"
    },
    {
      "inputs": [
        {
          "internalType": "bytes32",
          "name": "role",
          "type": "bytes32"
        },
        {
          "internalType": "address",
          "name": "account",
          "type": "address"
        }
      ],
      "name": "hasRole",
      "outputs": [
        {
          "internalType": "bool",
          "name": "",
          "type": "bool"
        }
      ],
      "stateMutability": "view",
      "type": "function"
    },
    {
      "inputs": [
        {
          "internalType": "address",
          "name": "defaultAdmin",
          "type": "address"
        }
      ],
      "name": "initialize",
      "outputs": [],
      "stateMutability": "nonpayable",
      "type": "function"
    },
    {
      "inputs": [],
      "name": "pause",
      "outputs": [],
      "stateMutability": "nonpayable",
      "type": "function"
    },
    {
      "inputs": [],
      "name": "paused",
      "outputs": [
        {
          "internalType": "bool",
          "name": "",
          "type": "bool"
        }
      ],
      "stateMutability": "view",
      "type": "function"
    },
    {
      "inputs": [],
      "name": "proxiableUUID",
      "outputs": [
        {
          "internalType": "bytes32",
          "name": "",
          "type": "bytes32"
        }
      ],
      "stateMutability": "view",
      "type": "function"
    },
    {
      "inputs": [
        {
          "internalType": "bytes32",
          "name": "role",
          "type": "bytes32"
        },
        {
          "internalType": "address",
          "name": "callerConfirmation",
          "type": "address"
        }
      ],
      "name": "renounceRole",
      "outputs": [],
      "stateMutability": "nonpayable",
      "type": "function"
    },
    {
      "inputs": [
        {
          "internalType": "address",
          "name": "assTokenAddress",
          "type": "address"
        },
        {
          "internalType": "uint256",
          "name": "assTokenAmount",
          "type": "uint256"
        }
      ],
      "name": "requestWithdraw",
      "outputs": [],
      "stateMutability": "nonpayable",
      "type": "function"
    },
    {
      "inputs": [],
      "name": "requestWithdrawMaxNo",
      "outputs": [
        {
          "internalType": "uint256",
          "name": "",
          "type": "uint256"
        }
      ],
      "stateMutability": "view",
      "type": "function"
    },
    {
      "inputs": [
        {
          "internalType": "address",
          "name": "",
          "type": "address"
        },
        {
          "internalType": "uint256",
          "name": "",
          "type": "uint256"
        }
      ],
      "name": "requestWithdraws",
      "outputs": [
        {
          "internalType": "address",
          "name": "assTokenAddress",
          "type": "address"
        },
        {
          "internalType": "uint256",
          "name": "assTokenAmount",
          "type": "uint256"
        },
        {
          "internalType": "uint256",
          "name": "sourceTokenAmount",
          "type": "uint256"
        },
        {
          "internalType": "uint256",
          "name": "applyTimestamp",
          "type": "uint256"
        },
        {
          "internalType": "bool",
          "name": "canClaimWithdraw",
          "type": "bool"
        }
      ],
      "stateMutability": "view",
      "type": "function"
    },
    {
      "inputs": [
        {
          "internalType": "bytes32",
          "name": "role",
          "type": "bytes32"
        },
        {
          "internalType": "address",
          "name": "account",
          "type": "address"
        }
      ],
      "name": "revokeRole",
      "outputs": [],
      "stateMutability": "nonpayable",
      "type": "function"
    },
    {
      "inputs": [
        {
          "internalType": "address",
          "name": "",
          "type": "address"
        }
      ],
      "name": "supportAssToken",
      "outputs": [
        {
          "internalType": "address",
          "name": "assTokenAddress",
          "type": "address"
        },
        {
          "internalType": "address",
          "name": "sourceTokenAddress",
          "type": "address"
        },
        {
          "internalType": "uint8",
          "name": "sourceTokenDecimals",
          "type": "uint8"
        },
        {
          "internalType": "uint256",
          "name": "assToSourceExchangeRate",
          "type": "uint256"
        },
        {
          "internalType": "uint256",
          "name": "exchangeRateExpiredTimestamp",
          "type": "uint256"
        },
        {
          "internalType": "bool",
          "name": "depositEnabled",
          "type": "bool"
        },
        {
          "internalType": "bool",
          "name": "withdrawEnabled",
          "type": "bool"
        },
        {
          "internalType": "address",
          "name": "ceffuAddress",
          "type": "address"
        },
        {
          "internalType": "bool",
          "name": "transferToCeffuEnabled",
          "type": "bool"
        }
      ],
      "stateMutability": "view",
      "type": "function"
    },
    {
      "inputs": [
        {
          "internalType": "address",
          "name": "",
          "type": "address"
        }
      ],
      "name": "supportSourceToken",
      "outputs": [
        {
          "internalType": "address",
          "name": "",
          "type": "address"
        }
      ],
      "stateMutability": "view",
      "type": "function"
    },
    {
      "inputs": [
        {
          "internalType": "bytes4",
          "name": "interfaceId",
          "type": "bytes4"
        }
      ],
      "name": "supportsInterface",
      "outputs": [
        {
          "internalType": "bool",
          "name": "",
          "type": "bool"
        }
      ],
      "stateMutability": "view",
      "type": "function"
    },
    {
      "inputs": [
        {
          "internalType": "address[]",
          "name": "assTokenAddressList",
          "type": "address[]"
        }
      ],
      "name": "transferToCeffu",
      "outputs": [],
      "stateMutability": "nonpayable",
      "type": "function"
    },
    {
      "inputs": [],
      "name": "unpause",
      "outputs": [],
      "stateMutability": "nonpayable",
      "type": "function"
    },
    {
      "inputs": [
        {
          "internalType": "address",
          "name": "assTokenAddress",
          "type": "address"
        },
        {
          "internalType": "address",
          "name": "ceffuAddress",
          "type": "address"
        }
      ],
      "name": "updateCeffuAddress",
      "outputs": [],
      "stateMutability": "nonpayable",
      "type": "function"
    },
    {
      "inputs": [
        {
          "internalType": "address",
          "name": "assTokenAddress",
          "type": "address"
        },
        {
          "internalType": "bool",
          "name": "enabled",
          "type": "bool"
        }
      ],
      "name": "updateDepositEnabled",
      "outputs": [],
      "stateMutability": "nonpayable",
      "type": "function"
    },
    {
      "inputs": [
        {
          "internalType": "address",
          "name": "assTokenAddress",
          "type": "address"
        },
        {
          "internalType": "bool",
          "name": "enabled",
          "type": "bool"
        }
      ],
      "name": "updateTransferToCeffuEnabled",
      "outputs": [],
      "stateMutability": "nonpayable",
      "type": "function"
    },
    {
      "inputs": [
        {
          "internalType": "address",
          "name": "assTokenAddress",
          "type": "address"
        },
        {
          "internalType": "bool",
          "name": "enabled",
          "type": "bool"
        }
      ],
      "name": "updateWithdrawEnabled",
      "outputs": [],
      "stateMutability": "nonpayable",
      "type": "function"
    },
    {
      "inputs": [
        {
          "internalType": "address",
          "name": "newImplementation",
          "type": "address"
        },
        {
          "internalType": "bytes",
          "name": "data",
          "type": "bytes"
        }
      ],
      "name": "upgradeToAndCall",
      "outputs": [],
      "stateMutability": "payable",
      "type": "function"
    },
    {
      "inputs": [
        {
          "components": [
            {
              "internalType": "address",
              "name": "assTokenAddress",
              "type": "address"
            },
            {
              "internalType": "uint256",
              "name": "assToSourceExchangeRate",
              "type": "uint256"
            },
            {
              "internalType": "uint256",
              "name": "exchangeRateExpiredTimestamp",
              "type": "uint256"
            }
          ],
          "internalType": "struct Earn.ExchangeRateInfo[]",
          "name": "exchangeRateInfoList",
          "type": "tuple[]"
        }
      ],
      "name": "uploadExchangeRate",
      "outputs": [],
      "stateMutability": "nonpayable",
      "type": "function"
    }
  ],
  "transactionHash": "0x631c995a098ddd9761d54fdc93aebcfb9a67b893a63ab3cfc2eca29aaf70e21a",
  "args": [
    "0xae13d989daC2f0dEbFf460aC112a837C89BAa7cd",
    "0xeA877D3d59e4c420426DA4EE04c0aC40c67aF664",
    "0x1B2827e2E400dc7d6eAC5333c28bBD8a6E073475"
  ],
  "numDeployments": 1,
  "solcInputHash": "1e72d9be8fe3592e3499a5e49562c94e",
  "bytecode": "0x6101003461028d57601f613bb838819003918201601f19168301926001600160401b039290918385118386101761029257816060928492604097885283398101031261028d5761004e816102a8565b906100668461005f602084016102a8565b92016102a8565b30608052916001600160a01b038082161561023a57808316156101e5578316156101925760c05260a05260e0527ff0c57e16840df040f15088dc2f81fe391c3923bec73e23a9662efc9c229c6a009081549060ff82851c1661018157808083160361013d575b83516138fb90816102bd8239608051818181611648015261173f015260a051818181610c6a015281816117720152611b62015260c051818181610219015281816107660152818161212701528181612cc101526134cc015260e051818181610333015281816104300152610ee10152f35b6001600160401b0319909116811790915581519081527fc7f505b2f371ae2175ee4913f4499e1f2633a7b5936321eed1cdaeb6115181d290602090a13880806100cc565b835163f92ee8a960e01b8152600490fd5b845162461bcd60e51b815260206004820152602660248201527f77697468647261775661756c742063616e6e6f742062652061207a65726f206160448201526564647265737360d01b6064820152608490fd5b855162461bcd60e51b815260206004820152602860248201527f74696d656c6f636b416464726573732063616e6e6f742062652061207a65726f604482015267206164647265737360c01b6064820152608490fd5b855162461bcd60e51b815260206004820152602660248201527f6e6174697665577261707065642063616e6e6f742062652061207a65726f206160448201526564647265737360d01b6064820152608490fd5b600080fd5b634e487b7160e01b600052604160045260246000fd5b51906001600160a01b038216820361028d5756fe608080604052600436101561001357600080fd5b60003560e01c90816301ffc9a7146124cf57508063231965381461236f578063248a9ca3146123215780632852cce6146121f05780632f2ff15d1461214b578063362b67951461210757806336568abe146120a8578063389ed2671461206d578063397a1b2814611d855780633c3f1a1a14611c625780633e110bb114611c275780633f4ba83a14611b86578063431c183014611b4257806347e7ef2414611b0d5780634bb8fd3e146119a85780634f1ef286146116c257806352d1902d1461162d5780635c975abb146115eb57806375b238fc146115b05780638456cb59146115375780638f9e4779146114ba5780639010d07c1461145557806391d14854146113e8578063a217fddf146113cc578063ab59f53d14611134578063ad3cb1cc14611071578063b150377414611036578063b22ccd7614611018578063b7e0c50514610f05578063baaa3ed314610ec1578063c4d66de814610b61578063ca15c87314610b16578063d35d245614610810578063d547741f146107b0578063db6b524614610744578063e3d670d7146106c0578063e5facdf914610584578063e6160952146104e35763eb9259ef146101cc57600080fd5b34610429576020806003193601126104295760043567ffffffffffffffff8111610429576101fe9036906004016125db565b91610207612be1565b61020f612c3b565b6001600160a01b037f000000000000000000000000000000000000000000000000000000000000000081169360005b81811061026b5760017f9b779b17422d0df92223018b32b4d1fa46e071723d6817e2486d003becc55f0055005b610276818387612928565b35903360005260028086526040600020836000528652604060002085815416906102a1821515612740565b600160ff6102b882826004860154161515146129ad565b8360005260008a526102e9826040600020926102d88c8554161515612847565b600484015460081c16151514612892565b60006004868486015495015496338352808d52604083208a84528d5282604081209181835581878401558201558260038201550155019487865416908b82141560001461042e57887f000000000000000000000000000000000000000000000000000000000000000016803b15610429576040517fbeabacc80000000000000000000000000000000000000000000000000000000081523360048201526001600160a01b03939093166024840152604483018690526000908390606490829084905af1801561041d576001977fb143cbc1b45edd3fe39b60a0bb8aafb1e1d42da89e96e1aff4449ebdc37e48f2938b9261040e575b505b5416946104056040519283923396846040919493926060820195825260208201520152565b0390a40161023e565b6104179061260c565b386103de565b6040513d6000823e3d90fd5b600080fd5b7f000000000000000000000000000000000000000000000000000000000000000089169150813b15610429576040517f7d2e90c200000000000000000000000000000000000000000000000000000000815233600482015260248101869052916000908390604490829084905af1801561041d576001977fb143cbc1b45edd3fe39b60a0bb8aafb1e1d42da89e96e1aff4449ebdc37e48f2938b926104d4575b506103e0565b6104dd9061260c565b386104ce565b34610429576020366003190112610429576101206001600160a01b03806105086125a0565b16600052600060205260ff604060002082815416926001820154916002810154846004600384015493015494604051978852848116602089015260a01c16604087015260608601526080850152828216151560a0850152828260081c16151560c08501528160101c1660e084015260b01c161515610100820152f35b346104295760403660031901126104295761059d6125a0565b6105a56125cc565b6105ad6129f8565b60046001600160a01b03809316926105c684151561265e565b8360005260006020526105e26040600020918254161515612740565b019060ff825460081c16908015158215151461065657825461ff00191690151560081b61ff00161782557f68384b4f4b87956d2efbc57330ba1b694f41dd604449822dca247bebf7a5518c9160ff905460408051931515845260089190911c9190911615156020830152819081015b0390a2005b608460405162461bcd60e51b815260206004820152603660248201527f6e65775769746864726177456e61626c65642063616e206e6f7420626520657160448201527f75616c206f6c645769746864726177456e61626c6564000000000000000000006064820152fd5b3461042957602080600319360112610429576024816001600160a01b036106e56125a0565b16604051928380926370a0823160e01b82523060048301525afa90811561041d57600091610717575b50604051908152f35b90508181813d831161073d575b61072e8183612620565b8101031261042957518261070e565b503d610724565b600036600319011261042957610758612be1565b610760612c3b565b61078a347f0000000000000000000000000000000000000000000000000000000000000000612e4c565b60017f9b779b17422d0df92223018b32b4d1fa46e071723d6817e2486d003becc55f0055005b346104295760403660031901126104295761080e6004356107cf6125b6565b90806000527f02dd7bc7dec4dceedda775e58dd541e08a116c6c53815c0bd028192f7b626800602052610809600160406000200154612b43565b612b88565b005b346104295760203660031901126104295767ffffffffffffffff806004351161042957366023600435011215610429576004356004013511610429573660246004356004013560071b6004350101116104295761086b612be1565b610873612c3b565b61087b612a8b565b60005b6004356004013581106108b15760017f9b779b17422d0df92223018b32b4d1fa46e071723d6817e2486d003becc55f0055005b60248160071b6004350101906001600160a01b036108ce8361294e565b16600052600060205260406000206108f16001600160a01b038254161515612740565b60ff9061090b600183600484015460081c16151514612892565b6001600160a01b0361092660848560071b600435010161294e565b1660005260029182602052604060002090606491828660071b6004350101356000526020526040600020956001600160a01b03875416908115610ad3576109746001600160a01b039161294e565b1603610a90576001600487019161098f8354918216156129ad565b60448760071b6004350101358689015560ff19161790556001600160a01b0382541694600181015495803b15610429576040517f9dc29fac00000000000000000000000000000000000000000000000000000000815230600482015260248101979097526000908790604490829084905af191821561041d576001967f051fd1ff7b2b4fc684c771fea49f105616b277782f1b76f0dfb7aeba8532269993610a81575b50610a786001600160a01b038881855416960154169588840154930154926040519384938960071b60043501013591846040919493926060820195825260208201520152565b0390a30161087e565b610a8a9061260c565b87610a32565b5060405162461bcd60e51b815260206004820152601160248201527f756e6d61746368656420726571756573740000000000000000000000000000006044820152fd5b8360405162461bcd60e51b815260206004820152601160248201527f6e6f7420657869737420726571756573740000000000000000000000000000006044820152fd5b34610429576020366003190112610429576004356000527fc1f6fe24621ce81ec5827caf0253cadb74709b061630e6b55e823717059320006020526020604060002054604051908152f35b3461042957602036600319011261042957610b7a6125a0565b7ff0c57e16840df040f15088dc2f81fe391c3923bec73e23a9662efc9c229c6a009081549060ff8260401c16159167ffffffffffffffff811680159081610eb9575b6001149081610eaf575b159081610ea6575b50610e7c5767ffffffffffffffff198116600117845582610e5d575b50610bf36135e9565b610bfb6135e9565b7fcd5ed15c6e187e77e9aee88184c21f4f2182ab5827cb3b7e07fbedcd63f03300805460ff19169055610c2c6135e9565b610c346135e9565b610c3c6135e9565b610c446135e9565b60017f9b779b17422d0df92223018b32b4d1fa46e071723d6817e2486d003becc55f00557f0000000000000000000000000000000000000000000000000000000000000000610c92816130b6565b610dfb575b50610ca181613163565b610d7a575b610caf81613231565b610cf8575b50610cbb57005b68ff00000000000000001981541690557fc7f505b2f371ae2175ee4913f4499e1f2633a7b5936321eed1cdaeb6115181d2602060405160018152a1005b7f139c2898040ef16910dc9f44dc697df79363da767d8bc92f2e310312b816e46d6000527fc1f6fe24621ce81ec5827caf0253cadb74709b061630e6b55e82371705932000602052610d73906001600160a01b03167fca3aa861eb308f705e42f0c24b10f8140a2bbdb4a36861ee4d72375ef399c2bf613642565b5082610cb4565b7fa49807205ce4d355092ef5a8a18f56e8913cf4a201fbe287825b095693c217756000527fc1f6fe24621ce81ec5827caf0253cadb74709b061630e6b55e82371705932000602052610df56001600160a01b0382167f46448fd7a7b40360a1323cb3199d0aafeb92ce905bb512a6bb7d3d3f685cf1b1613642565b50610ca6565b600080527fc1f6fe24621ce81ec5827caf0253cadb74709b061630e6b55e82371705932000602052610e56906001600160a01b03167f615f0f9e84155bea8cc509fe18befeb1baf65611e38a6ba60964480fb29dfd44613642565b5083610c97565b68ffffffffffffffffff19166801000000000000000117835583610bea565b60046040517ff92ee8a9000000000000000000000000000000000000000000000000000000008152fd5b90501585610bce565b303b159150610bc6565b849150610bbc565b346104295760003660031901126104295760206040516001600160a01b037f0000000000000000000000000000000000000000000000000000000000000000168152f35b34610429576020806003193601126104295767ffffffffffffffff600435818111610429573660238201121561042957806004013591821161042957602492606091366024606086028301011161042957610f5e612be1565b610f66612a8b565b60005b848110610f965760017f9b779b17422d0df92223018b32b4d1fa46e071723d6817e2486d003becc55f0055005b6001906001600160a01b037f7e8886d8ada06aa154830d9afa9d83014f99e4b16b1578d06bd5802d666c43156040878402860183610fd58c830161294e565b16600052600088526003826000209485541694610ff3861515612740565b606460448401359384600284015501359182910155825191825288820152a201610f69565b34610429576000366003190112610429576020600354604051908152f35b346104295760003660031901126104295760206040517f6d5c9827c1f410bbb61d3b2a0a34b6b30492d9a1fd38588edca7ec4562ab9c9b8152f35b34610429576000366003190112610429576040516040810181811067ffffffffffffffff82111761111e57604052600581526020907f352e302e3000000000000000000000000000000000000000000000000000000060208201526040518092602082528251908160208401526000935b828510611105575050604092506000838284010152601f80199101168101030190f35b84810182015186860160400152938101938593506110e2565b634e487b7160e01b600052604160045260246000fd5b346104295760e03660031901126104295761114d6125a0565b6111556125b6565b6044356001600160a01b0380821693848303610429576084359283151584036104295760a4359182151583036104295760c4359081151582036104295784806111c1926111a06129f8565b16976111ad89151561265e565b16976111ba89151561278b565b15156126cf565b604051917f313ce5670000000000000000000000000000000000000000000000000000000083526020836004818b5afa92831561041d5760009361138c575b5061133261134e939488600052600060205261131c60406000209889549961122a8a8c1615612962565b8c60005260016020526112448a6040600020541615612962565b8b73ffffffffffffffffffffffffffffffffffffffff19809c1617815560018101988d8c8b5416178a556112b56004830197889075ffffffffffffffffffffffffffffffffffffffff00001975ffffffffffffffffffffffffffffffffffffffff000083549260101b169116179055565b7fffffffffffffffffffffff00ffffffffffffffffffffffffffffffffffffffff74ff00000000000000000000000000000000000000008b549260a01b1691161789556305f5e10060028201556003606435910155849060ff801983541691151516179055565b825461ff00191690151560081b61ff0016178255565b9060ff60b01b1960ff60b01b835492151560b01b169116179055565b54166000526001602052816040600020918254161790557fdbf34b45b47a653cf4940cccbec765f72d4d63de3237306905bfc0ee28832362600080a3005b9092506020813d6020116113c4575b816113a860209383612620565b8101031261042957519160ff8316830361042957611332611200565b3d915061139b565b3461042957600036600319011261042957602060405160008152f35b34610429576040366003190112610429576114016125b6565b6004356000527f02dd7bc7dec4dceedda775e58dd541e08a116c6c53815c0bd028192f7b6268006020526001600160a01b0360406000209116600052602052602060ff604060002054166040519015158152f35b34610429576040366003190112610429576004356000527fc1f6fe24621ce81ec5827caf0253cadb74709b061630e6b55e8237170593200060205260206001600160a01b036114aa60243560406000206135d1565b9190546040519260031b1c168152f35b346104295760403660031901126104295760a06114d56125a0565b6001600160a01b038091166000526002602052604060002060243560005260205260406000209081541690600181015490600281015460ff60046003840154930154169260405194855260208501526040840152606083015215156080820152f35b3461042957600036600319011261042957611550612ae7565b611558612c3b565b7fcd5ed15c6e187e77e9aee88184c21f4f2182ab5827cb3b7e07fbedcd63f03300600160ff198254161790557f62e78cea01bee320cd4e420270b5ea74000d11b0c9f74754ebdbfc544b05a2586020604051338152a1005b346104295760003660031901126104295760206040517fa49807205ce4d355092ef5a8a18f56e8913cf4a201fbe287825b095693c217758152f35b3461042957600036600319011261042957602060ff7fcd5ed15c6e187e77e9aee88184c21f4f2182ab5827cb3b7e07fbedcd63f0330054166040519015158152f35b34610429576000366003190112610429576001600160a01b037f00000000000000000000000000000000000000000000000000000000000000001630036116985760206040517f360894a13ba1a3210667c828492db98dca3e2076cc3735a920a3ca505d382bbc8152f35b60046040517fe07c8dba000000000000000000000000000000000000000000000000000000008152fd5b6040366003190112610429576116d66125a0565b602490813567ffffffffffffffff811161042957366023820112156104295780600401359161170483612642565b6117116040519182612620565b83815260209384820193368783830101116104295781600092888893018737830101526001600160a01b03807f00000000000000000000000000000000000000000000000000000000000000001680301490811561197a575b5061169857807f000000000000000000000000000000000000000000000000000000000000000016330361193757821693604051907f52d1902d0000000000000000000000000000000000000000000000000000000082528082600481895afa918291600093611907575b50506117f257858560405190634c9c8ce360e01b82526004820152fd5b8490867f360894a13ba1a3210667c828492db98dca3e2076cc3735a920a3ca505d382bbc918281036118d95750843b156118c357508173ffffffffffffffffffffffffffffffffffffffff19825416179055604051907fbc7cd75a20ee27fd9adebab32041f755214dbc6bffa90cc0225b39da2e5c2d3b600080a28151156118905750600061080e9381925190845af461188a61348c565b9161385c565b925050503461189b57005b807fb398979f0000000000000000000000000000000000000000000000000000000060049252fd5b8260405190634c9c8ce360e01b82526004820152fd5b604051907faa1d49a40000000000000000000000000000000000000000000000000000000082526004820152fd5b9080929350813d8311611930575b61191f8183612620565b8101031261042957519087806117d5565b503d611915565b606485600d886040519262461bcd60e51b845260048401528201527f6f6e6c792074696d656c6f636b000000000000000000000000000000000000006044820152fd5b9050817f360894a13ba1a3210667c828492db98dca3e2076cc3735a920a3ca505d382bbc541614158761176a565b34610429576040366003190112610429576119c16125a0565b6119c96125cc565b6119d16129f8565b60046001600160a01b03809316926119ea84151561265e565b836000526000602052611a066040600020918254161515612740565b019060ff825460b01c169080151582151514611a7d57825460ff60b01b191690151560b01b60ff60b01b161782557fdf274bfbbe5c8156b17d1c4f0eb5e3571b7c7e590046f5c086168e96edd77d5c9160ff905460408051931515845260b09190911c919091161515602083015281908101610651565b60a460405162461bcd60e51b815260206004820152604460248201527f6e65775472616e73666572546f4365666675456e61626c65642063616e206e6f60448201527f7420626520657175616c206f6c645472616e73666572546f4365666675456e6160648201527f626c6564000000000000000000000000000000000000000000000000000000006084820152fd5b346104295760403660031901126104295761078a611b296125a0565b611b31612be1565b611b39612c3b565b60243590612e4c565b346104295760003660031901126104295760206040516001600160a01b037f0000000000000000000000000000000000000000000000000000000000000000168152f35b3461042957600036600319011261042957611b9f612ae7565b7fcd5ed15c6e187e77e9aee88184c21f4f2182ab5827cb3b7e07fbedcd63f03300805460ff811615611bfd5760ff191690557f5db9ee0a495bf2e6ff9c91a7834c1ba4fdd244a5e8aa4e537bd38aeae4b073aa6020604051338152a1005b60046040517f8dfc202b000000000000000000000000000000000000000000000000000000008152fd5b346104295760203660031901126104295760206001600160a01b0380611c4b6125a0565b166000526001825260406000205416604051908152f35b34610429576020806003193601126104295760043567ffffffffffffffff811161042957611c949036906004016125db565b9091611c9e612be1565b611ca6612a8b565b60005b828110611cd65760017f9b779b17422d0df92223018b32b4d1fa46e071723d6817e2486d003becc55f0055005b6001906001600160a01b0380611cf5611cf084888a612928565b61294e565b1660005260008452604060002090600482019182549060ff8260b01c16611d21575b5050505001611ca9565b8260409281611d6a897fd560b537bb03a2e10775ff1c5992f0ba20cf0bdacefb10c30c86fc69e9d6fc8297601094851c1695611d5e8715156126cf565b01948286541690612cb3565b9354169554901c16825191825287820152a285808080611d17565b3461042957604036600319011261042957611d9e6125a0565b6024908135611dab612be1565b611db3612c3b565b6001600160a01b0380921692611dca84151561278b565b611dd58215156127fc565b8360005260209160008352611e0a600160ff60046040600020611dfc898254161515612847565b015460081c16151514612892565b604051906370a0823160e01b91828152336004820152848185818a5afa801561041d5760009061203e575b611e4291508211156128dd565b60405190828252306004830152848285818a5afa91821561041d5760009261200d575b50611e729030338961342f565b60405191825230600483015283828481895afa801561041d57600090611fde575b611e9d9250612c90565b926003549060018201809211611fc957816003556040519260a084019084821067ffffffffffffffff831117611fb5575091600491611f5c949360405287845285840187815260408501906000825260608601924284526080870194600086523360005260028a526040600020906000528952604060002096511673ffffffffffffffffffffffffffffffffffffffff1987541617865551600186015551600285015551600384015551151591019060ff801983541691151516179055565b600354906040519283528201527f446a76a57918c9a651f82cff9087fe2b56dea597ac08fa6c73eaade1585ae77a60403392a360017f9b779b17422d0df92223018b32b4d1fa46e071723d6817e2486d003becc55f0055005b634e487b7160e01b60005260416004526000fd5b82634e487b7160e01b60005260116004526000fd5b508382813d8311612006575b611ff48183612620565b8101031261042957611e9d9151611e93565b503d611fea565b9091508481813d8311612037575b6120258183612620565b81010312610429575190611e72611e65565b503d61201b565b508481813d8311612066575b6120548183612620565b8101031261042957611e429051611e35565b503d61204a565b346104295760003660031901126104295760206040517f139c2898040ef16910dc9f44dc697df79363da767d8bc92f2e310312b816e46d8152f35b34610429576040366003190112610429576120c16125b6565b336001600160a01b038216036120dd5761080e90600435612b88565b60046040517f6697b232000000000000000000000000000000000000000000000000000000008152fd5b346104295760003660031901126104295760206040516001600160a01b037f0000000000000000000000000000000000000000000000000000000000000000168152f35b34610429576040366003190112610429576004356121676125b6565b816000527f02dd7bc7dec4dceedda775e58dd541e08a116c6c53815c0bd028192f7b6268006020526121a0600160406000200154612b43565b6121aa81836132ff565b6121b057005b61080e916000527fc1f6fe24621ce81ec5827caf0253cadb74709b061630e6b55e823717059320006020526001600160a01b036040600020911690613642565b34610429576040366003190112610429576122096125a0565b6122116125cc565b6122196129f8565b60046001600160a01b038093169261223284151561265e565b83600052600060205261224e6040600020918254161515612740565b019060ff82541690801515821515146122b7578261229b60ff927f19102580093552aa222614ea7ccc7e4ebc532ec2abe5be2e5557a5277b85fb1d959060ff801983541691151516179055565b5460408051931515845291161515602083015281908101610651565b608460405162461bcd60e51b815260206004820152603460248201527f6e65774465706f736974456e61626c65642063616e206e6f742062652065717560448201527f616c206f6c644465706f736974456e61626c65640000000000000000000000006064820152fd5b34610429576020366003190112610429576004356000527f02dd7bc7dec4dceedda775e58dd541e08a116c6c53815c0bd028192f7b6268006020526020600160406000200154604051908152f35b34610429576040366003190112610429576123886125a0565b6123906125b6565b906123996129f8565b6001600160a01b03809116916123b083151561265e565b8181166123be8115156126cf565b836000526000602052600460406000206123dc858254161515612740565b019280845460101c1691821461246557836124536040947fafef0c18004dea071236bb971e116c885cd7e4816842197e0169fba876230848969075ffffffffffffffffffffffffffffffffffffffff00001975ffffffffffffffffffffffffffffffffffffffff000083549260101b169116179055565b5460101c1682519182526020820152a2005b608460405162461bcd60e51b815260206004820152603060248201527f6e65774365666675416464726573732063616e206e6f7420626520657175616c60448201527f206f6c64436566667541646472657373000000000000000000000000000000006064820152fd5b3461042957602036600319011261042957600435907fffffffff00000000000000000000000000000000000000000000000000000000821680920361042957817f5a05180f0000000000000000000000000000000000000000000000000000000060209314908115612543575b5015158152f35b7f7965db0b00000000000000000000000000000000000000000000000000000000811491508115612576575b508361253c565b7f01ffc9a7000000000000000000000000000000000000000000000000000000009150148361256f565b600435906001600160a01b038216820361042957565b602435906001600160a01b038216820361042957565b60243590811515820361042957565b9181601f840112156104295782359167ffffffffffffffff8311610429576020808501948460051b01011161042957565b67ffffffffffffffff811161111e57604052565b90601f8019910116810190811067ffffffffffffffff82111761111e57604052565b67ffffffffffffffff811161111e57601f01601f191660200190565b1561266557565b608460405162461bcd60e51b815260206004820152602860248201527f617373546f6b656e416464726573732063616e6e6f742062652061207a65726f60448201527f20616464726573730000000000000000000000000000000000000000000000006064820152fd5b156126d657565b608460405162461bcd60e51b815260206004820152602560248201527f6365666675416464726573732063616e6e6f742062652061207a65726f20616460448201527f64726573730000000000000000000000000000000000000000000000000000006064820152fd5b1561274757565b606460405162461bcd60e51b815260206004820152600960248201527f6e6f7420657869737400000000000000000000000000000000000000000000006044820152fd5b1561279257565b608460405162461bcd60e51b815260206004820152602b60248201527f736f75726365546f6b656e416464726573732063616e6e6f742062652061207a60448201527f65726f20616464726573730000000000000000000000000000000000000000006064820152fd5b1561280357565b606460405162461bcd60e51b815260206004820152600e60248201527f696e76616c696420616d6f756e740000000000000000000000000000000000006044820152fd5b1561284e57565b606460405162461bcd60e51b815260206004820152601460248201527f63757272656e6379206e6f7420737570706f72740000000000000000000000006044820152fd5b1561289957565b606460405162461bcd60e51b815260206004820152600e60248201527f70617573652077697468647261770000000000000000000000000000000000006044820152fd5b156128e457565b606460405162461bcd60e51b815260206004820152601460248201527f696e73756666696369656e742062616c616e63650000000000000000000000006044820152fd5b91908110156129385760051b0190565b634e487b7160e01b600052603260045260246000fd5b356001600160a01b03811681036104295790565b1561296957565b606460405162461bcd60e51b815260206004820152600d60248201527f6475706c696361746520616464000000000000000000000000000000000000006044820152fd5b156129b457565b606460405162461bcd60e51b815260206004820152600d60248201527f63616e206e6f7420636c61696d000000000000000000000000000000000000006044820152fd5b3360009081527fb16e88c42fd4e48df2dd6a2eabd6bc9aec654ec170056b470819f8892cc6431c60205260409020547fa49807205ce4d355092ef5a8a18f56e8913cf4a201fbe287825b095693c217759060ff1615612a545750565b604490604051907fe2517d3f0000000000000000000000000000000000000000000000000000000082523360048301526024820152fd5b3360009081527f36130197f7aaaea25e2f7618ed3461508f72f582ad6fcbc07c16456fa5ee4bf760205260409020547f6d5c9827c1f410bbb61d3b2a0a34b6b30492d9a1fd38588edca7ec4562ab9c9b9060ff1615612a545750565b3360009081527f85aa68ae9688c2bba3dc27a57a38bf2786c03751927fe89ecfd8b396d55ff13360205260409020547f139c2898040ef16910dc9f44dc697df79363da767d8bc92f2e310312b816e46d9060ff1615612a545750565b806000527f02dd7bc7dec4dceedda775e58dd541e08a116c6c53815c0bd028192f7b62680060205260406000203360005260205260ff6040600020541615612a545750565b612b928282613399565b9182612b9d57505090565b612bdd916000527fc1f6fe24621ce81ec5827caf0253cadb74709b061630e6b55e823717059320006020526001600160a01b0360406000209116906136cc565b5090565b7f9b779b17422d0df92223018b32b4d1fa46e071723d6817e2486d003becc55f006002815414612c115760029055565b60046040517f3ee5aeb5000000000000000000000000000000000000000000000000000000008152fd5b60ff7fcd5ed15c6e187e77e9aee88184c21f4f2182ab5827cb3b7e07fbedcd63f033005416612c6657565b60046040517fd93c0665000000000000000000000000000000000000000000000000000000008152fd5b91908203918211612c9d57565b634e487b7160e01b600052601160045260246000fd5b6001600160a01b03918216917f000000000000000000000000000000000000000000000000000000000000000081168314612dc05750604051916370a0823160e01b8352306004840152602083602481845afa92831561041d57600093612d89575b5082908115612d83576040517fa9059cbb0000000000000000000000000000000000000000000000000000000060208201526001600160a01b0390931660248401526044830191909152612d809190612d7b82606481015b03601f198101845283612620565b6137bc565b90565b50505090565b90926020823d602011612db8575b81612da460209383612620565b81010312612db55750519138612d15565b80fd5b3d9150612d97565b4792508215612e4757824710612e1757600080848194938294165af1612de461348c565b5015612ded5790565b60046040517f1425ea42000000000000000000000000000000000000000000000000000000008152fd5b60246040517fcd786059000000000000000000000000000000000000000000000000000000008152306004820152fd5b505090565b6001600160a01b039081811691612e6483151561278b565b612e6f8415156127fc565b600091838352600160205260409180838520541695612e8f871515612847565b8685528460205283852090600493600160ff86850154161515036130735760038301544210156130305790612ec491336134bc565b946a52b7d2dcc80cd2e40000009788870298878a04148715171561301d57600283019889549060ff600186015460a01c16604d811161300a57600a0a91828102928184041490151715612ff7578115612fe4570494813b15612fe05786517f40c10f1900000000000000000000000000000000000000000000000000000000815233918101918252602082018790529291829184919082908490829060400103925af1908115612fd55750917fdc3f9f32b7ca52cfc67f1424b7cbe4b03f56ef295e7fedea895aec6ae7436ada95949391612fc193612fc6575b505416965492519283923396846040919493926060820195825260208201520152565b0390a4565b612fcf9061260c565b38612f9e565b8651903d90823e3d90fd5b8280fd5b602484601289634e487b7160e01b835252fd5b602484601189634e487b7160e01b835252fd5b60248560118a634e487b7160e01b835252fd5b602482601187634e487b7160e01b835252fd5b606485602088519162461bcd60e51b8352820152601560248201527f65786368616e67652072617465206578706972656400000000000000000000006044820152fd5b606485602088519162461bcd60e51b8352820152600d60248201527f7061757365206465706f736974000000000000000000000000000000000000006044820152fd5b6001600160a01b031660008181527fb7db2dd08fcb62d0c9e08c51941cae53c267786a0b75803fb7960902fc8ef97d60205260408120549091907f02dd7bc7dec4dceedda775e58dd541e08a116c6c53815c0bd028192f7b6268009060ff16612e47578280526020526040822081835260205260408220600160ff1982541617905533917f2f8788117e7eff1d82e926ec794901d17c78024a50270940304540a733656f0d8180a4600190565b6001600160a01b031660008181527fb16e88c42fd4e48df2dd6a2eabd6bc9aec654ec170056b470819f8892cc6431c60205260408120549091907fa49807205ce4d355092ef5a8a18f56e8913cf4a201fbe287825b095693c21775907f02dd7bc7dec4dceedda775e58dd541e08a116c6c53815c0bd028192f7b6268009060ff16612d83578184526020526040832082845260205260408320600160ff198254161790557f2f8788117e7eff1d82e926ec794901d17c78024a50270940304540a733656f0d339380a4600190565b6001600160a01b031660008181527f85aa68ae9688c2bba3dc27a57a38bf2786c03751927fe89ecfd8b396d55ff13360205260408120549091907f139c2898040ef16910dc9f44dc697df79363da767d8bc92f2e310312b816e46d907f02dd7bc7dec4dceedda775e58dd541e08a116c6c53815c0bd028192f7b6268009060ff16612d83578184526020526040832082845260205260408320600160ff198254161790557f2f8788117e7eff1d82e926ec794901d17c78024a50270940304540a733656f0d339380a4600190565b906000918083527f02dd7bc7dec4dceedda775e58dd541e08a116c6c53815c0bd028192f7b626800806020526001600160a01b036040852093169283855260205260ff60408520541615600014612d83578184526020526040832082845260205260408320600160ff198254161790557f2f8788117e7eff1d82e926ec794901d17c78024a50270940304540a733656f0d339380a4600190565b906000918083527f02dd7bc7dec4dceedda775e58dd541e08a116c6c53815c0bd028192f7b626800806020526001600160a01b036040852093169283855260205260ff604085205416600014612d8357818452602052604083208284526020526040832060ff1981541690557ff6391f5c32d9c69d2a47ea670b442974b53935d1edc7fd64eb21e047a839171b339380a4600190565b6040517f23b872dd0000000000000000000000000000000000000000000000000000000060208201526001600160a01b039283166024820152929091166044830152606482019290925261348a91612d7b8260848101612d6d565b565b3d156134b7573d9061349d82612642565b916134ab6040519384612620565b82523d6000602084013e565b606090565b6001600160a01b039182169290917f00000000000000000000000000000000000000000000000000000000000000001683146135c157604051906370a0823160e01b8083523060048401526020918284602481895afa93841561041d5760009461358e575b506135319083949530908861342f565b60246040518096819382523060048301525afa90811561041d5760009161355e575b50612d809250612c90565b905082813d8311613587575b6135748183612620565b8101031261042957612d80915138613553565b503d61356a565b909280945081813d83116135ba575b6135a78183612620565b8101031261042957519291613531613521565b503d61359d565b809250612d8091503410156128dd565b80548210156129385760005260206000200190600090565b60ff7ff0c57e16840df040f15088dc2f81fe391c3923bec73e23a9662efc9c229c6a005460401c161561361857565b60046040517fd7e6bcf8000000000000000000000000000000000000000000000000000000008152fd5b919060018301600090828252806020526040822054156000146136c657845494680100000000000000008610156136b257836136a261368b886001604098999a018555846135d1565b819391549060031b91821b91600019901b19161790565b9055549382526020522055600190565b602483634e487b7160e01b81526041600452fd5b50925050565b906001820190600092818452826020526040842054908115156000146137b557600019918083018181116137a15782549084820191821161378d57818103613758575b505050805480156137445782019161372783836135d1565b909182549160031b1b191690555582526020526040812055600190565b602486634e487b7160e01b81526031600452fd5b61377861376861368b93866135d1565b90549060031b1c928392866135d1565b9055865284602052604086205538808061370f565b602488634e487b7160e01b81526011600452fd5b602487634e487b7160e01b81526011600452fd5b5050505090565b6001600160a01b0316906137e7600080836020829551910182875af16137e061348c565b908461385c565b908151918215159283613830575b5050506137ff5750565b602490604051907f5274afe70000000000000000000000000000000000000000000000000000000082526004820152fd5b819293509060209181010312613858576020015190811591821503612db557503880806137f5565b5080fd5b906138715750805115612ded57805190602001fd5b815115806138bc575b613882575090565b6024906001600160a01b03604051917f9996b315000000000000000000000000000000000000000000000000000000008352166004820152fd5b50803b1561387a56fea2646970667358221220351f63e184f6bd24b8f98c22dc4fe9d63d13d5729de476f03f251333f9ca8bcb64736f6c63430008190033",
  "devdoc": {
    "errors": {
      "AccessControlBadConfirmation()": [
        {
          "details": "The caller of a function is not the expected one. NOTE: Don't confuse with {AccessControlUnauthorizedAccount}."
        }
      ],
      "AccessControlUnauthorizedAccount(address,bytes32)": [
        {
          "details": "The `account` is missing a role."
        }
      ],
      "AddressEmptyCode(address)": [
        {
          "details": "There's no code at `target` (it is not a contract)."
        }
      ],
      "AddressInsufficientBalance(address)": [
        {
          "details": "The ETH balance of the account is not enough to perform the operation."
        }
      ],
      "ERC1967InvalidImplementation(address)": [
        {
          "details": "The `implementation` of the proxy is invalid."
        }
      ],
      "ERC1967NonPayable()": [
        {
          "details": "An upgrade function sees `msg.value > 0` that may be lost."
        }
      ],
      "EnforcedPause()": [
        {
          "details": "The operation failed because the contract is paused."
        }
      ],
      "ExpectedPause()": [
        {
          "details": "The operation failed because the contract is not paused."
        }
      ],
      "FailedInnerCall()": [
        {
          "details": "A call to an address target failed. The target may have reverted."
        }
      ],
      "InvalidInitialization()": [
        {
          "details": "The contract is already initialized."
        }
      ],
      "NotInitializing()": [
        {
          "details": "The contract is not initializing."
        }
      ],
      "ReentrancyGuardReentrantCall()": [
        {
          "details": "Unauthorized reentrant call."
        }
      ],
      "SafeERC20FailedOperation(address)": [
        {
          "details": "An operation with an ERC20 token failed."
        }
      ],
      "UUPSUnauthorizedCallContext()": [
        {
          "details": "The call is from an unauthorized context."
        }
      ],
      "UUPSUnsupportedProxiableUUID(bytes32)": [
        {
          "details": "The storage `slot` is unsupported as a UUID."
        }
      ]
    },
    "events": {
      "Initialized(uint64)": {
        "details": "Triggered when the contract has been initialized or reinitialized."
      },
      "Paused(address)": {
        "details": "Emitted when the pause is triggered by `account`."
      },
      "RoleAdminChanged(bytes32,bytes32,bytes32)": {
        "details": "Emitted when `newAdminRole` is set as ``role``'s admin role, replacing `previousAdminRole` `DEFAULT_ADMIN_ROLE` is the starting admin for all roles, despite {RoleAdminChanged} not being emitted signaling this."
      },
      "RoleGranted(bytes32,address,address)": {
        "details": "Emitted when `account` is granted `role`. `sender` is the account that originated the contract call, an admin role bearer except when using {AccessControl-_setupRole}."
      },
      "RoleRevoked(bytes32,address,address)": {
        "details": "Emitted when `account` is revoked `role`. `sender` is the account that originated the contract call:   - if using `revokeRole`, it is the admin role bearer   - if using `renounceRole`, it is the role bearer (i.e. `account`)"
      },
      "Unpaused(address)": {
        "details": "Emitted when the pause is lifted by `account`."
      },
      "Upgraded(address)": {
        "details": "Emitted when the implementation is upgraded."
      }
    },
    "kind": "dev",
    "methods": {
      "constructor": {
        "custom:oz-upgrades-unsafe-allow": "constructor"
      },
      "getRoleAdmin(bytes32)": {
        "details": "Returns the admin role that controls `role`. See {grantRole} and {revokeRole}. To change a role's admin, use {_setRoleAdmin}."
      },
      "getRoleMember(bytes32,uint256)": {
        "details": "Returns one of the accounts that have `role`. `index` must be a value between 0 and {getRoleMemberCount}, non-inclusive. Role bearers are not sorted in any particular way, and their ordering may change at any point. WARNING: When using {getRoleMember} and {getRoleMemberCount}, make sure you perform all queries on the same block. See the following https://forum.openzeppelin.com/t/iterating-over-elements-on-enumerableset-in-openzeppelin-contracts/2296[forum post] for more information."
      },
      "getRoleMemberCount(bytes32)": {
        "details": "Returns the number of accounts that have `role`. Can be used together with {getRoleMember} to enumerate all bearers of a role."
      },
      "grantRole(bytes32,address)": {
        "details": "Grants `role` to `account`. If `account` had not been already granted `role`, emits a {RoleGranted} event. Requirements: - the caller must have ``role``'s admin role. May emit a {RoleGranted} event."
      },
      "hasRole(bytes32,address)": {
        "details": "Returns `true` if `account` has been granted `role`."
      },
      "paused()": {
        "details": "Returns true if the contract is paused, and false otherwise."
      },
      "proxiableUUID()": {
        "details": "Implementation of the ERC1822 {proxiableUUID} function. This returns the storage slot used by the implementation. It is used to validate the implementation's compatibility when performing an upgrade. IMPORTANT: A proxy pointing at a proxiable contract should not be considered proxiable itself, because this risks bricking a proxy that upgrades to it, by delegating to itself until out of gas. Thus it is critical that this function revert if invoked through a proxy. This is guaranteed by the `notDelegated` modifier."
      },
      "renounceRole(bytes32,address)": {
        "details": "Revokes `role` from the calling account. Roles are often managed via {grantRole} and {revokeRole}: this function's purpose is to provide a mechanism for accounts to lose their privileges if they are compromised (such as when a trusted device is misplaced). If the calling account had been revoked `role`, emits a {RoleRevoked} event. Requirements: - the caller must be `callerConfirmation`. May emit a {RoleRevoked} event."
      },
      "revokeRole(bytes32,address)": {
        "details": "Revokes `role` from `account`. If `account` had been granted `role`, emits a {RoleRevoked} event. Requirements: - the caller must have ``role``'s admin role. May emit a {RoleRevoked} event."
      },
      "supportsInterface(bytes4)": {
        "details": "See {IERC165-supportsInterface}."
      },
      "upgradeToAndCall(address,bytes)": {
        "custom:oz-upgrades-unsafe-allow-reachable": "delegatecall",
        "details": "Upgrade the implementation of the proxy to `newImplementation`, and subsequently execute the function call encoded in `data`. Calls {_authorizeUpgrade}. Emits an {Upgraded} event."
      }
    },
    "version": 1
  },
  "userdoc": {
    "kind": "user",
    "methods": {},
    "version": 1
  },
  "storageLayout": {
    "storage": [
      {
        "astId": 11199,
        "contract": "contracts/Earn.sol:Earn",
        "label": "supportAssToken",
        "offset": 0,
        "slot": "0",
        "type": "t_mapping(t_address,t_struct(Token)11161_storage)"
      },
      {
        "astId": 11203,
        "contract": "contracts/Earn.sol:Earn",
        "label": "supportSourceToken",
        "offset": 0,
        "slot": "1",
        "type": "t_mapping(t_address,t_address)"
      },
      {
        "astId": 11210,
        "contract": "contracts/Earn.sol:Earn",
        "label": "requestWithdraws",
        "offset": 0,
        "slot": "2",
        "type": "t_mapping(t_address,t_mapping(t_uint256,t_struct(RequestWithdrawInfo)11188_storage))"
      },
      {
        "astId": 11212,
        "contract": "contracts/Earn.sol:Earn",
        "label": "requestWithdrawMaxNo",
        "offset": 0,
        "slot": "3",
        "type": "t_uint256"
      }
    ],
    "types": {
      "t_address": {
        "encoding": "inplace",
        "label": "address",
        "numberOfBytes": "20"
      },
      "t_bool": {
        "encoding": "inplace",
        "label": "bool",
        "numberOfBytes": "1"
      },
      "t_mapping(t_address,t_address)": {
        "encoding": "mapping",
        "key": "t_address",
        "label": "mapping(address => address)",
        "numberOfBytes": "32",
        "value": "t_address"
      },
      "t_mapping(t_address,t_mapping(t_uint256,t_struct(RequestWithdrawInfo)11188_storage))": {
        "encoding": "mapping",
        "key": "t_address",
        "label": "mapping(address => mapping(uint256 => struct Earn.RequestWithdrawInfo))",
        "numberOfBytes": "32",
        "value": "t_mapping(t_uint256,t_struct(RequestWithdrawInfo)11188_storage)"
      },
      "t_mapping(t_address,t_struct(Token)11161_storage)": {
        "encoding": "mapping",
        "key": "t_address",
        "label": "mapping(address => struct Earn.Token)",
        "numberOfBytes": "32",
        "value": "t_struct(Token)11161_storage"
      },
      "t_mapping(t_uint256,t_struct(RequestWithdrawInfo)11188_storage)": {
        "encoding": "mapping",
        "key": "t_uint256",
        "label": "mapping(uint256 => struct Earn.RequestWithdrawInfo)",
        "numberOfBytes": "32",
        "value": "t_struct(RequestWithdrawInfo)11188_storage"
      },
      "t_struct(RequestWithdrawInfo)11188_storage": {
        "encoding": "inplace",
        "label": "struct Earn.RequestWithdrawInfo",
        "members": [
          {
            "astId": 11179,
            "contract": "contracts/Earn.sol:Earn",
            "label": "assTokenAddress",
            "offset": 0,
            "slot": "0",
            "type": "t_address"
          },
          {
            "astId": 11181,
            "contract": "contracts/Earn.sol:Earn",
            "label": "assTokenAmount",
            "offset": 0,
            "slot": "1",
            "type": "t_uint256"
          },
          {
            "astId": 11183,
            "contract": "contracts/Earn.sol:Earn",
            "label": "sourceTokenAmount",
            "offset": 0,
            "slot": "2",
            "type": "t_uint256"
          },
          {
            "astId": 11185,
            "contract": "contracts/Earn.sol:Earn",
            "label": "applyTimestamp",
            "offset": 0,
            "slot": "3",
            "type": "t_uint256"
          },
          {
            "astId": 11187,
            "contract": "contracts/Earn.sol:Earn",
            "label": "canClaimWithdraw",
            "offset": 0,
            "slot": "4",
            "type": "t_bool"
          }
        ],
        "numberOfBytes": "160"
      },
      "t_struct(Token)11161_storage": {
        "encoding": "inplace",
        "label": "struct Earn.Token",
        "members": [
          {
            "astId": 11144,
            "contract": "contracts/Earn.sol:Earn",
            "label": "assTokenAddress",
            "offset": 0,
            "slot": "0",
            "type": "t_address"
          },
          {
            "astId": 11146,
            "contract": "contracts/Earn.sol:Earn",
            "label": "sourceTokenAddress",
            "offset": 0,
            "slot": "1",
            "type": "t_address"
          },
          {
            "astId": 11148,
            "contract": "contracts/Earn.sol:Earn",
            "label": "sourceTokenDecimals",
            "offset": 20,
            "slot": "1",
            "type": "t_uint8"
          },
          {
            "astId": 11150,
            "contract": "contracts/Earn.sol:Earn",
            "label": "assToSourceExchangeRate",
            "offset": 0,
            "slot": "2",
            "type": "t_uint256"
          },
          {
            "astId": 11152,
            "contract": "contracts/Earn.sol:Earn",
            "label": "exchangeRateExpiredTimestamp",
            "offset": 0,
            "slot": "3",
            "type": "t_uint256"
          },
          {
            "astId": 11154,
            "contract": "contracts/Earn.sol:Earn",
            "label": "depositEnabled",
            "offset": 0,
            "slot": "4",
            "type": "t_bool"
          },
          {
            "astId": 11156,
            "contract": "contracts/Earn.sol:Earn",
            "label": "withdrawEnabled",
            "offset": 1,
            "slot": "4",
            "type": "t_bool"
          },
          {
            "astId": 11158,
            "contract": "contracts/Earn.sol:Earn",
            "label": "ceffuAddress",
            "offset": 2,
            "slot": "4",
            "type": "t_address"
          },
          {
            "astId": 11160,
            "contract": "contracts/Earn.sol:Earn",
            "label": "transferToCeffuEnabled",
            "offset": 22,
            "slot": "4",
            "type": "t_bool"
          }
        ],
        "numberOfBytes": "160"
      },
      "t_uint256": {
        "encoding": "inplace",
        "label": "uint256",
        "numberOfBytes": "32"
      },
      "t_uint8": {
        "encoding": "inplace",
        "label": "uint8",
        "numberOfBytes": "1"
      }
    }
  }
}