{
  "address": "0xB3b2e917AdA6D1edaEe69B61667FEc281e93933F",
  "abi": [
    {
      "inputs": [
        {
          "internalType": "uint256",
          "name": "minDelay",
          "type": "uint256"
        },
        {
          "internalType": "uint256",
          "name": "maxDelay",
          "type": "uint256"
        },
        {
          "internalType": "address[]",
          "name": "proposers",
          "type": "address[]"
        },
        {
          "internalType": "address[]",
          "name": "executors",
          "type": "address[]"
        }
      ],
      "stateMutability": "nonpayable",
      "type": "constructor"
    },
    {
      "inputs": [],
      "name": "AccessControlBadConfirmation",
      "type": "error"
    },
    {
      "inputs": [
        {
          "internalType": "address",
          "name": "account",
          "type": "address"
        },
        {
          "internalType": "bytes32",
          "name": "neededRole",
          "type": "bytes32"
        }
      ],
      "name": "AccessControlUnauthorizedAccount",
      "type": "error"
    },
    {
      "inputs": [],
      "name": "FailedInnerCall",
      "type": "error"
    },
    {
      "inputs": [
        {
          "internalType": "uint256",
          "name": "delay",
          "type": "uint256"
        },
        {
          "internalType": "uint256",
          "name": "minDelay",
          "type": "uint256"
        }
      ],
      "name": "TimelockInsufficientDelay",
      "type": "error"
    },
    {
      "inputs": [
        {
          "internalType": "uint256",
          "name": "targets",
          "type": "uint256"
        },
        {
          "internalType": "uint256",
          "name": "payloads",
          "type": "uint256"
        },
        {
          "internalType": "uint256",
          "name": "values",
          "type": "uint256"
        }
      ],
      "name": "TimelockInvalidOperationLength",
      "type": "error"
    },
    {
      "inputs": [
        {
          "internalType": "address",
          "name": "caller",
          "type": "address"
        }
      ],
      "name": "TimelockUnauthorizedCaller",
      "type": "error"
    },
    {
      "inputs": [
        {
          "internalType": "bytes32",
          "name": "predecessorId",
          "type": "bytes32"
        }
      ],
      "name": "TimelockUnexecutedPredecessor",
      "type": "error"
    },
    {
      "inputs": [
        {
          "internalType": "bytes32",
          "name": "operationId",
          "type": "bytes32"
        },
        {
          "internalType": "bytes32",
          "name": "expectedStates",
          "type": "bytes32"
        }
      ],
      "name": "TimelockUnexpectedOperationState",
      "type": "error"
    },
    {
      "anonymous": false,
      "inputs": [
        {
          "indexed": true,
          "internalType": "bytes32",
          "name": "id",
          "type": "bytes32"
        },
        {
          "indexed": true,
          "internalType": "uint256",
          "name": "index",
          "type": "uint256"
        },
        {
          "indexed": false,
          "internalType": "address",
          "name": "target",
          "type": "address"
        },
        {
          "indexed": false,
          "internalType": "uint256",
          "name": "value",
          "type": "uint256"
        },
        {
          "indexed": false,
          "internalType": "bytes",
          "name": "data",
          "type": "bytes"
        }
      ],
      "name": "CallExecuted",
      "type": "event"
    },
    {
      "anonymous": false,
      "inputs": [
        {
          "indexed": true,
          "internalType": "bytes32",
          "name": "id",
          "type": "bytes32"
        },
        {
          "indexed": false,
          "internalType": "bytes32",
          "name": "salt",
          "type": "bytes32"
        }
      ],
      "name": "CallSalt",
      "type": "event"
    },
    {
      "anonymous": false,
      "inputs": [
        {
          "indexed": true,
          "internalType": "bytes32",
          "name": "id",
          "type": "bytes32"
        },
        {
          "indexed": true,
          "internalType": "uint256",
          "name": "index",
          "type": "uint256"
        },
        {
          "indexed": false,
          "internalType": "address",
          "name": "target",
          "type": "address"
        },
        {
          "indexed": false,
          "internalType": "uint256",
          "name": "value",
          "type": "uint256"
        },
        {
          "indexed": false,
          "internalType": "bytes",
          "name": "data",
          "type": "bytes"
        },
        {
          "indexed": false,
          "internalType": "bytes32",
          "name": "predecessor",
          "type": "bytes32"
        },
        {
          "indexed": false,
          "internalType": "uint256",
          "name": "delay",
          "type": "uint256"
        }
      ],
      "name": "CallScheduled",
      "type": "event"
    },
    {
      "anonymous": false,
      "inputs": [
        {
          "indexed": true,
          "internalType": "bytes32",
          "name": "id",
          "type": "bytes32"
        }
      ],
      "name": "Cancelled",
      "type": "event"
    },
    {
      "anonymous": false,
      "inputs": [
        {
          "indexed": false,
          "internalType": "uint256",
          "name": "oldValue",
          "type": "uint256"
        },
        {
          "indexed": false,
          "internalType": "uint256",
          "name": "newValue",
          "type": "uint256"
        }
      ],
      "name": "MaxDelayChanged",
      "type": "event"
    },
    {
      "anonymous": false,
      "inputs": [
        {
          "indexed": false,
          "internalType": "uint256",
          "name": "oldDuration",
          "type": "uint256"
        },
        {
          "indexed": false,
          "internalType": "uint256",
          "name": "newDuration",
          "type": "uint256"
        }
      ],
      "name": "MinDelayChange",
      "type": "event"
    },
    {
      "anonymous": false,
      "inputs": [
        {
          "indexed": true,
          "internalType": "bytes32",
          "name": "role",
          "type": "bytes32"
        },
        {
          "indexed": true,
          "internalType": "bytes32",
          "name": "previousAdminRole",
          "type": "bytes32"
        },
        {
          "indexed": true,
          "internalType": "bytes32",
          "name": "newAdminRole",
          "type": "bytes32"
        }
      ],
      "name": "RoleAdminChanged",
      "type": "event"
    },
    {
      "anonymous": false,
      "inputs": [
        {
          "indexed": true,
          "internalType": "bytes32",
          "name": "role",
          "type": "bytes32"
        },
        {
          "indexed": true,
          "internalType": "address",
          "name": "account",
          "type": "address"
        },
        {
          "indexed": true,
          "internalType": "address",
          "name": "sender",
          "type": "address"
        }
      ],
      "name": "RoleGranted",
      "type": "event"
    },
    {
      "anonymous": false,
      "inputs": [
        {
          "indexed": true,
          "internalType": "bytes32",
          "name": "role",
          "type": "bytes32"
        },
        {
          "indexed": true,
          "internalType": "address",
          "name": "account",
          "type": "address"
        },
        {
          "indexed": true,
          "internalType": "address",
          "name": "sender",
          "type": "address"
        }
      ],
      "name": "RoleRevoked",
      "type": "event"
    },
    {
      "inputs": [],
      "name": "CANCELLER_ROLE",
      "outputs": [
        {
          "internalType": "bytes32",
          "name": "",
          "type": "bytes32"
        }
      ],
      "stateMutability": "view",
      "type": "function"
    },
    {
      "inputs": [],
      "name": "DEFAULT_ADMIN_ROLE",
      "outputs": [
        {
          "internalType": "bytes32",
          "name": "",
          "type": "bytes32"
        }
      ],
      "stateMutability": "view",
      "type": "function"
    },
    {
      "inputs": [],
      "name": "EXECUTOR_ROLE",
      "outputs": [
        {
          "internalType": "bytes32",
          "name": "",
          "type": "bytes32"
        }
      ],
      "stateMutability": "view",
      "type": "function"
    },
    {
      "inputs": [],
      "name": "MAX_DELAY",
      "outputs": [
        {
          "internalType": "uint256",
          "name": "",
          "type": "uint256"
        }
      ],
      "stateMutability": "view",
      "type": "function"
    },
    {
      "inputs": [],
      "name": "PROPOSER_ROLE",
      "outputs": [
        {
          "internalType": "bytes32",
          "name": "",
          "type": "bytes32"
        }
      ],
      "stateMutability": "view",
      "type": "function"
    },
    {
      "inputs": [
        {
          "internalType": "bytes32",
          "name": "id",
          "type": "bytes32"
        }
      ],
      "name": "cancel",
      "outputs": [],
      "stateMutability": "nonpayable",
      "type": "function"
    },
    {
      "inputs": [
        {
          "internalType": "address",
          "name": "target",
          "type": "address"
        },
        {
          "internalType": "uint256",
          "name": "value",
          "type": "uint256"
        },
        {
          "internalType": "bytes",
          "name": "payload",
          "type": "bytes"
        },
        {
          "internalType": "bytes32",
          "name": "predecessor",
          "type": "bytes32"
        },
        {
          "internalType": "bytes32",
          "name": "salt",
          "type": "bytes32"
        }
      ],
      "name": "execute",
      "outputs": [],
      "stateMutability": "payable",
      "type": "function"
    },
    {
      "inputs": [
        {
          "internalType": "address[]",
          "name": "targets",
          "type": "address[]"
        },
        {
          "internalType": "uint256[]",
          "name": "values",
          "type": "uint256[]"
        },
        {
          "internalType": "bytes[]",
          "name": "payloads",
          "type": "bytes[]"
        },
        {
          "internalType": "bytes32",
          "name": "predecessor",
          "type": "bytes32"
        },
        {
          "internalType": "bytes32",
          "name": "salt",
          "type": "bytes32"
        }
      ],
      "name": "executeBatch",
      "outputs": [],
      "stateMutability": "payable",
      "type": "function"
    },
    {
      "inputs": [
        {
          "internalType": "address",
          "name": "target",
          "type": "address"
        },
        {
          "internalType": "string",
          "name": "functionSignature",
          "type": "string"
        },
        {
          "internalType": "bytes",
          "name": "data",
          "type": "bytes"
        }
      ],
      "name": "executeTask",
      "outputs": [],
      "stateMutability": "nonpayable",
      "type": "function"
    },
    {
      "inputs": [],
      "name": "getMinDelay",
      "outputs": [
        {
          "internalType": "uint256",
          "name": "",
          "type": "uint256"
        }
      ],
      "stateMutability": "view",
      "type": "function"
    },
    {
      "inputs": [
        {
          "internalType": "bytes32",
          "name": "id",
          "type": "bytes32"
        }
      ],
      "name": "getOperationState",
      "outputs": [
        {
          "internalType": "enum TimelockController.OperationState",
          "name": "",
          "type": "uint8"
        }
      ],
      "stateMutability": "view",
      "type": "function"
    },
    {
      "inputs": [
        {
          "internalType": "bytes32",
          "name": "role",
          "type": "bytes32"
        }
      ],
      "name": "getRoleAdmin",
      "outputs": [
        {
          "internalType": "bytes32",
          "name": "",
          "type": "bytes32"
        }
      ],
      "stateMutability": "view",
      "type": "function"
    },
    {
      "inputs": [
        {
          "internalType": "bytes32",
          "name": "role",
          "type": "bytes32"
        },
        {
          "internalType": "uint256",
          "name": "index",
          "type": "uint256"
        }
      ],
      "name": "getRoleMember",
      "outputs": [
        {
          "internalType": "address",
          "name": "",
          "type": "address"
        }
      ],
      "stateMutability": "view",
      "type": "function"
    },
    {
      "inputs": [
        {
          "internalType": "bytes32",
          "name": "role",
          "type": "bytes32"
        }
      ],
      "name": "getRoleMemberCount",
      "outputs": [
        {
          "internalType": "uint256",
          "name": "",
          "type": "uint256"
        }
      ],
      "stateMutability": "view",
      "type": "function"
    },
    {
      "inputs": [
        {
          "internalType": "bytes32",
          "name": "id",
          "type": "bytes32"
        }
      ],
      "name": "getTimestamp",
      "outputs": [
        {
          "internalType": "uint256",
          "name": "",
          "type": "uint256"
        }
      ],
      "stateMutability": "view",
      "type": "function"
    },
    {
      "inputs": [
        {
          "internalType": "bytes32",
          "name": "role",
          "type": "bytes32"
        },
        {
          "internalType": "address",
          "name": "account",
          "type": "address"
        }
      ],
      "name": "grantRole",
      "outputs": [],
      "stateMutability": "nonpayable",
      "type": "function"
    },
    {
      "inputs": [
        {
          "internalType": "bytes32",
          "name": "role",
          "type": "bytes32"
        },
        {
          "internalType": "address",
          "name": "account",
          "type": "address"
        }
      ],
      "name": "hasRole",
      "outputs": [
        {
          "internalType": "bool",
          "name": "",
          "type": "bool"
        }
      ],
      "stateMutability": "view",
      "type": "function"
    },
    {
      "inputs": [
        {
          "internalType": "address",
          "name": "target",
          "type": "address"
        },
        {
          "internalType": "uint256",
          "name": "value",
          "type": "uint256"
        },
        {
          "internalType": "bytes",
          "name": "data",
          "type": "bytes"
        },
        {
          "internalType": "bytes32",
          "name": "predecessor",
          "type": "bytes32"
        },
        {
          "internalType": "bytes32",
          "name": "salt",
          "type": "bytes32"
        }
      ],
      "name": "hashOperation",
      "outputs": [
        {
          "internalType": "bytes32",
          "name": "",
          "type": "bytes32"
        }
      ],
      "stateMutability": "pure",
      "type": "function"
    },
    {
      "inputs": [
        {
          "internalType": "address[]",
          "name": "targets",
          "type": "address[]"
        },
        {
          "internalType": "uint256[]",
          "name": "values",
          "type": "uint256[]"
        },
        {
          "internalType": "bytes[]",
          "name": "payloads",
          "type": "bytes[]"
        },
        {
          "internalType": "bytes32",
          "name": "predecessor",
          "type": "bytes32"
        },
        {
          "internalType": "bytes32",
          "name": "salt",
          "type": "bytes32"
        }
      ],
      "name": "hashOperationBatch",
      "outputs": [
        {
          "internalType": "bytes32",
          "name": "",
          "type": "bytes32"
        }
      ],
      "stateMutability": "pure",
      "type": "function"
    },
    {
      "inputs": [
        {
          "internalType": "bytes32",
          "name": "id",
          "type": "bytes32"
        }
      ],
      "name": "isOperation",
      "outputs": [
        {
          "internalType": "bool",
          "name": "",
          "type": "bool"
        }
      ],
      "stateMutability": "view",
      "type": "function"
    },
    {
      "inputs": [
        {
          "internalType": "bytes32",
          "name": "id",
          "type": "bytes32"
        }
      ],
      "name": "isOperationDone",
      "outputs": [
        {
          "internalType": "bool",
          "name": "",
          "type": "bool"
        }
      ],
      "stateMutability": "view",
      "type": "function"
    },
    {
      "inputs": [
        {
          "internalType": "bytes32",
          "name": "id",
          "type": "bytes32"
        }
      ],
      "name": "isOperationPending",
      "outputs": [
        {
          "internalType": "bool",
          "name": "",
          "type": "bool"
        }
      ],
      "stateMutability": "view",
      "type": "function"
    },
    {
      "inputs": [
        {
          "internalType": "bytes32",
          "name": "id",
          "type": "bytes32"
        }
      ],
      "name": "isOperationReady",
      "outputs": [
        {
          "internalType": "bool",
          "name": "",
          "type": "bool"
        }
      ],
      "stateMutability": "view",
      "type": "function"
    },
    {
      "inputs": [
        {
          "internalType": "address",
          "name": "",
          "type": "address"
        },
        {
          "internalType": "address",
          "name": "",
          "type": "address"
        },
        {
          "internalType": "uint256[]",
          "name": "",
          "type": "uint256[]"
        },
        {
          "internalType": "uint256[]",
          "name": "",
          "type": "uint256[]"
        },
        {
          "internalType": "bytes",
          "name": "",
          "type": "bytes"
        }
      ],
      "name": "onERC1155BatchReceived",
      "outputs": [
        {
          "internalType": "bytes4",
          "name": "",
          "type": "bytes4"
        }
      ],
      "stateMutability": "nonpayable",
      "type": "function"
    },
    {
      "inputs": [
        {
          "internalType": "address",
          "name": "",
          "type": "address"
        },
        {
          "internalType": "address",
          "name": "",
          "type": "address"
        },
        {
          "internalType": "uint256",
          "name": "",
          "type": "uint256"
        },
        {
          "internalType": "uint256",
          "name": "",
          "type": "uint256"
        },
        {
          "internalType": "bytes",
          "name": "",
          "type": "bytes"
        }
      ],
      "name": "onERC1155Received",
      "outputs": [
        {
          "internalType": "bytes4",
          "name": "",
          "type": "bytes4"
        }
      ],
      "stateMutability": "nonpayable",
      "type": "function"
    },
    {
      "inputs": [
        {
          "internalType": "address",
          "name": "",
          "type": "address"
        },
        {
          "internalType": "address",
          "name": "",
          "type": "address"
        },
        {
          "internalType": "uint256",
          "name": "",
          "type": "uint256"
        },
        {
          "internalType": "bytes",
          "name": "",
          "type": "bytes"
        }
      ],
      "name": "onERC721Received",
      "outputs": [
        {
          "internalType": "bytes4",
          "name": "",
          "type": "bytes4"
        }
      ],
      "stateMutability": "nonpayable",
      "type": "function"
    },
    {
      "inputs": [
        {
          "internalType": "bytes32",
          "name": "role",
          "type": "bytes32"
        },
        {
          "internalType": "address",
          "name": "callerConfirmation",
          "type": "address"
        }
      ],
      "name": "renounceRole",
      "outputs": [],
      "stateMutability": "nonpayable",
      "type": "function"
    },
    {
      "inputs": [
        {
          "internalType": "bytes32",
          "name": "role",
          "type": "bytes32"
        },
        {
          "internalType": "address",
          "name": "account",
          "type": "address"
        }
      ],
      "name": "revokeRole",
      "outputs": [],
      "stateMutability": "nonpayable",
      "type": "function"
    },
    {
      "inputs": [],
      "name": "salt",
      "outputs": [
        {
          "internalType": "uint256",
          "name": "",
          "type": "uint256"
        }
      ],
      "stateMutability": "view",
      "type": "function"
    },
    {
      "inputs": [
        {
          "internalType": "address",
          "name": "target",
          "type": "address"
        },
        {
          "internalType": "uint256",
          "name": "value",
          "type": "uint256"
        },
        {
          "internalType": "bytes",
          "name": "data",
          "type": "bytes"
        },
        {
          "internalType": "bytes32",
          "name": "predecessor",
          "type": "bytes32"
        },
        {
          "internalType": "bytes32",
          "name": "salt",
          "type": "bytes32"
        },
        {
          "internalType": "uint256",
          "name": "delay",
          "type": "uint256"
        }
      ],
      "name": "schedule",
      "outputs": [],
      "stateMutability": "nonpayable",
      "type": "function"
    },
    {
      "inputs": [
        {
          "internalType": "address[]",
          "name": "targets",
          "type": "address[]"
        },
        {
          "internalType": "uint256[]",
          "name": "values",
          "type": "uint256[]"
        },
        {
          "internalType": "bytes[]",
          "name": "payloads",
          "type": "bytes[]"
        },
        {
          "internalType": "bytes32",
          "name": "predecessor",
          "type": "bytes32"
        },
        {
          "internalType": "bytes32",
          "name": "salt",
          "type": "bytes32"
        },
        {
          "internalType": "uint256",
          "name": "delay",
          "type": "uint256"
        }
      ],
      "name": "scheduleBatch",
      "outputs": [],
      "stateMutability": "nonpayable",
      "type": "function"
    },
    {
      "inputs": [
        {
          "internalType": "address",
          "name": "target",
          "type": "address"
        },
        {
          "internalType": "string",
          "name": "functionSignature",
          "type": "string"
        },
        {
          "internalType": "bytes",
          "name": "data",
          "type": "bytes"
        }
      ],
      "name": "scheduleTask",
      "outputs": [],
      "stateMutability": "nonpayable",
      "type": "function"
    },
    {
      "inputs": [
        {
          "internalType": "uint256",
          "name": "maxDelay",
          "type": "uint256"
        }
      ],
      "name": "setMaxDelay",
      "outputs": [],
      "stateMutability": "nonpayable",
      "type": "function"
    },
    {
      "inputs": [
        {
          "internalType": "bytes4",
          "name": "interfaceId",
          "type": "bytes4"
        }
      ],
      "name": "supportsInterface",
      "outputs": [
        {
          "internalType": "bool",
          "name": "",
          "type": "bool"
        }
      ],
      "stateMutability": "view",
      "type": "function"
    },
    {
      "inputs": [
        {
          "internalType": "uint256",
          "name": "newDelay",
          "type": "uint256"
        }
      ],
      "name": "updateDelay",
      "outputs": [],
      "stateMutability": "nonpayable",
      "type": "function"
    },
    {
      "stateMutability": "payable",
      "type": "receive"
    }
  ],
  "transactionHash": "0x7f0c58864f0a37b551bdccc68478468412bd02c144e0d5293e67c6a33c5c4365",
  "args": [
    5,
    31536000,
    [
      "0xf4903f4544558515b26ec4C6D6e91D2293b27275"
    ],
    [
      "0xf4903f4544558515b26ec4C6D6e91D2293b27275"
    ]
  ],
  "numDeployments": 1,
  "solcInputHash": "cf147a5ab1fd9353d50bcc53fb5e486b",
  "bytecode": "0x608060405234801561001057600080fd5b506040516126d73803806126d783398101604081905261002f91610410565b838282600061003e81306101ef565b506001600160a01b0381161561005b576100596000826101ef565b505b60005b83518110156100de5761009e60008051602061269783398151915285838151811061008b5761008b610487565b60200260200101516101ef60201b60201c565b506100d57ffd643c72710c63c0180259aba6b2d05451e3591a24e58b62239378085726f78385838151811061008b5761008b610487565b5060010161005e565b5060005b82518110156101185761010f6000805160206126b783398151915284838151811061008b5761008b610487565b506001016100e2565b5060028490556040805160008152602081018690527f11c24f4ead16507c69ac467fbd5e4eed5fb5c699626d2cc6d66421df253886d5910160405180910390a15050505083610e1061016a919061049d565b83116101af5760405162461bcd60e51b815260206004820152601060248201526f696c6c6567616c206d617844656c617960801b604482015260640160405180910390fd5b60048390556101cc600080516020612697833981519152306101ef565b506101e56000805160206126b7833981519152306101ef565b50505050506104be565b60006101fb8383610204565b90505b92915050565b6000806102118484610239565b905080156101fb57600084815260036020526040902061023190846102e3565b509392505050565b6000828152602081815260408083206001600160a01b038516845290915281205460ff166102db576000838152602081815260408083206001600160a01b03861684529091529020805460ff191660011790556102933390565b6001600160a01b0316826001600160a01b0316847f2f8788117e7eff1d82e926ec794901d17c78024a50270940304540a733656f0d60405160405180910390a45060016101fe565b5060006101fe565b60006101fb836001600160a01b03841660008181526001830160205260408120546102db575081546001818101845560008481526020808220909301849055845484825282860190935260409020919091556101fe565b634e487b7160e01b600052604160045260246000fd5b80516001600160a01b038116811461036757600080fd5b919050565b600082601f83011261037d57600080fd5b815160206001600160401b03808311156103995761039961033a565b8260051b604051601f19603f830116810181811084821117156103be576103be61033a565b60405293845260208187018101949081019250878511156103de57600080fd5b6020870191505b84821015610405576103f682610350565b835291830191908301906103e5565b979650505050505050565b6000806000806080858703121561042657600080fd5b84516020860151604087015191955093506001600160401b038082111561044c57600080fd5b6104588883890161036c565b9350606087015191508082111561046e57600080fd5b5061047b8782880161036c565b91505092959194509250565b634e487b7160e01b600052603260045260246000fd5b808201808211156101fe57634e487b7160e01b600052601160045260246000fd5b6121ca806104cd6000396000f3fe6080604052600436106102085760003560e01c80638f2a0bb011610118578063c4d252f5116100a0578063e38335e51161006f578063e38335e51461064a578063f1eccc4c1461065d578063f23a6e611461067d578063f27a0c92146106a9578063f4b6fc13146106be57600080fd5b8063c4d252f5146105ca578063ca15c873146105ea578063d45c44351461060a578063d547741f1461062a57600080fd5b8063a217fddf116100e7578063a217fddf1461051f578063b08e51c014610534578063b1c5f42714610568578063bc197c8114610588578063bfa0b133146105b457600080fd5b80638f2a0bb0146104855780638f61f4f5146104a55780639010d07c146104c757806391d14854146104ff57600080fd5b80632ab0f5291161019b5780634125ff901161016a5780634125ff90146103e2578063584b153e146103f857806364d62353146104185780637958004c146104385780638065657f1461046557600080fd5b80632ab0f529146103625780632f2ff15d1461038257806331d50750146103a257806336568abe146103c257600080fd5b8063134008d3116101d7578063134008d3146102bb57806313bc9f20146102ce578063150b7a02146102ee578063248a9ca31461033257600080fd5b806301d5062a1461021457806301ffc9a71461023657806307bd02651461026b578063106ca3c31461029b57600080fd5b3661020f57005b600080fd5b34801561022057600080fd5b5061023461022f366004611736565b6106de565b005b34801561024257600080fd5b506102566102513660046117aa565b6107a2565b60405190151581526020015b60405180910390f35b34801561027757600080fd5b5061028d60008051602061217583398151915281565b604051908152602001610262565b3480156102a757600080fd5b506102346102b63660046117d4565b6107c2565b6102346102c93660046117ed565b61087a565b3480156102da57600080fd5b506102566102e93660046117d4565b61091d565b3480156102fa57600080fd5b5061031961030936600461190d565b630a85bd0160e11b949350505050565b6040516001600160e01b03199091168152602001610262565b34801561033e57600080fd5b5061028d61034d3660046117d4565b60009081526020819052604090206001015490565b34801561036e57600080fd5b5061025661037d3660046117d4565b610943565b34801561038e57600080fd5b5061023461039d366004611974565b61094c565b3480156103ae57600080fd5b506102566103bd3660046117d4565b610977565b3480156103ce57600080fd5b506102346103dd366004611974565b61099c565b3480156103ee57600080fd5b5061028d60045481565b34801561040457600080fd5b506102566104133660046117d4565b6109d4565b34801561042457600080fd5b506102346104333660046117d4565b610a1a565b34801561044457600080fd5b506104586104533660046117d4565b610a88565b60405161026291906119b6565b34801561047157600080fd5b5061028d6104803660046117ed565b610ad2565b34801561049157600080fd5b506102346104a0366004611a22565b610b11565b3480156104b157600080fd5b5061028d60008051602061215583398151915281565b3480156104d357600080fd5b506104e76104e2366004611ad3565b610c8d565b6040516001600160a01b039091168152602001610262565b34801561050b57600080fd5b5061025661051a366004611974565b610ca5565b34801561052b57600080fd5b5061028d600081565b34801561054057600080fd5b5061028d7ffd643c72710c63c0180259aba6b2d05451e3591a24e58b62239378085726f78381565b34801561057457600080fd5b5061028d610583366004611af5565b610cce565b34801561059457600080fd5b506103196105a3366004611c1c565b63bc197c8160e01b95945050505050565b3480156105c057600080fd5b5061028d60055481565b3480156105d657600080fd5b506102346105e53660046117d4565b610d13565b3480156105f657600080fd5b5061028d6106053660046117d4565b610dbe565b34801561061657600080fd5b5061028d6106253660046117d4565b610dd5565b34801561063657600080fd5b50610234610645366004611974565b610e01565b610234610658366004611af5565b610e26565b34801561066957600080fd5b50610234610678366004611cc5565b610f9b565b34801561068957600080fd5b50610319610698366004611d45565b63f23a6e6160e01b95945050505050565b3480156106b557600080fd5b5060025461028d565b3480156106ca57600080fd5b506102346106d9366004611cc5565b611064565b6000805160206121558339815191526106f6816110f5565b6000610706898989898989610ad2565b90506107128184611102565b6000817f4cf4410cc57040e44862ef0f45f3dd5a5e02db8eb8add648d4b0e236f1d07dca8b8b8b8b8b8a60405161074e96959493929190611dd2565b60405180910390a3831561079757807f20fda5fd27a1ea7bf5b9567f143ac5470bb059374a27e8f67cb44f946f6d03878560405161078e91815260200190565b60405180910390a25b505050505050505050565b60006107ad82611196565b806107bc57506107bc826111a1565b92915050565b6002546107d190610e10611e25565b81116108175760405162461bcd60e51b815260206004820152601060248201526f696c6c6567616c206d617844656c617960801b60448201526064015b60405180910390fd5b3330146108395760405163e2850c5960e01b815233600482015260240161080e565b60045460408051918252602082018390527f8494f77d4a61d84f47d72ac087b427d85a3c3783e2b970f0a142019b5d5e1b7e910160405180910390a1600455565b600080516020612175833981519152610894816000610ca5565b6108a2576108a281336111c6565b60006108b2888888888888610ad2565b90506108be8185611203565b6108ca88888888611251565b6000817fc2617efa69bab66782fa219543714338489c4e9e178271560a91b82c3f612b588a8a8a8a6040516109029493929190611e38565b60405180910390a3610913816112c9565b5050505050505050565b600060025b61092b83610a88565b600381111561093c5761093c6119a0565b1492915050565b60006003610922565b600082815260208190526040902060010154610967816110f5565b61097183836112f5565b50505050565b60008061098383610a88565b6003811115610994576109946119a0565b141592915050565b6001600160a01b03811633146109c55760405163334bd91960e11b815260040160405180910390fd5b6109cf8282611301565b505050565b6000806109e083610a88565b905060018160038111156109f6576109f66119a0565b1480610a1357506002816003811115610a1157610a116119a0565b145b9392505050565b33308114610a465760405163e2850c5960e01b81526001600160a01b038216600482015260240161080e565b60025460408051918252602082018490527f11c24f4ead16507c69ac467fbd5e4eed5fb5c699626d2cc6d66421df253886d5910160405180910390a150600255565b600080610a9483610dd5565b905080600003610aa75750600092915050565b60018103610ab85750600392915050565b42811115610ac95750600192915050565b50600292915050565b6000868686868686604051602001610aef96959493929190611dd2565b6040516020818303038152906040528051906020012090509695505050505050565b600080516020612155833981519152610b29816110f5565b8887141580610b385750888514155b15610b6a576040516001624fcdef60e01b03198152600481018a9052602481018690526044810188905260640161080e565b6000610b7c8b8b8b8b8b8b8b8b610cce565b9050610b888184611102565b60005b8a811015610c3e5780827f4cf4410cc57040e44862ef0f45f3dd5a5e02db8eb8add648d4b0e236f1d07dca8e8e85818110610bc857610bc8611e6a565b9050602002016020810190610bdd9190611e80565b8d8d86818110610bef57610bef611e6a565b905060200201358c8c87818110610c0857610c08611e6a565b9050602002810190610c1a9190611e9b565b8c8b604051610c2e96959493929190611dd2565b60405180910390a3600101610b8b565b508315610c8057807f20fda5fd27a1ea7bf5b9567f143ac5470bb059374a27e8f67cb44f946f6d038785604051610c7791815260200190565b60405180910390a25b5050505050505050505050565b6000828152600360205260408120610a13908361130d565b6000918252602082815260408084206001600160a01b0393909316845291905290205460ff1690565b60008888888888888888604051602001610cef989796959493929190611f77565b60405160208183030381529060405280519060200120905098975050505050505050565b7ffd643c72710c63c0180259aba6b2d05451e3591a24e58b62239378085726f783610d3d816110f5565b610d46826109d4565b610d825781610d556002611319565b610d5f6001611319565b604051635ead8eb560e01b8152600481019390935217602482015260440161080e565b6000828152600160205260408082208290555183917fbaa1eb22f2a492ba1a5fea61b8df4d27c6c8b5f3971e63bb58fa14ff72eedb7091a25050565b60008181526003602052604081206107bc9061133c565b600081815260016020526040812054600454610df19082611e25565b4211156107bc5750600092915050565b600082815260208190526040902060010154610e1c816110f5565b6109718383611301565b600080516020612175833981519152610e40816000610ca5565b610e4e57610e4e81336111c6565b8786141580610e5d5750878414155b15610e8f576040516001624fcdef60e01b0319815260048101899052602481018590526044810187905260640161080e565b6000610ea18a8a8a8a8a8a8a8a610cce565b9050610ead8185611203565b60005b89811015610f855760008b8b83818110610ecc57610ecc611e6a565b9050602002016020810190610ee19190611e80565b905060008a8a84818110610ef757610ef7611e6a565b9050602002013590503660008a8a86818110610f1557610f15611e6a565b9050602002810190610f279190611e9b565b91509150610f3784848484611251565b84867fc2617efa69bab66782fa219543714338489c4e9e178271560a91b82c3f612b5886868686604051610f6e9493929190611e38565b60405180910390a350505050806001019050610eb0565b50610f8f816112c9565b50505050505050505050565b600080516020612155833981519152610fb3816110f5565b60008585604051610fc5929190612018565b604051908190038120610fde9186908690602001612028565b60408051601f198184030181529190526005805491925060006110008361204c565b909155505060055460025460405162ea831560e11b815230926301d5062a92611036928c926000928892849291906004016120ab565b600060405180830381600087803b15801561105057600080fd5b505af1158015610c80573d6000803e3d6000fd5b60008051602061217583398151915261107e816000610ca5565b61108c5761108c81336111c6565b6000858560405161109e929190612018565b6040519081900381206110b79186908690602001612028565b60408051601f198184030181529082905260055463134008d360e01b8352909250309163134008d391611036918b91600091879183916004016120f0565b6110ff81336111c6565b50565b61110b82610977565b1561113d578161111b6000611319565b604051635ead8eb560e01b81526004810192909252602482015260440161080e565b600061114860025490565b90508082101561117557604051635433660960e01b8152600481018390526024810182905260440161080e565b61117f8242611e25565b600093845260016020526040909320929092555050565b60006107bc82611346565b60006001600160e01b03198216635a05180f60e01b14806107bc57506107bc82611196565b6111d08282610ca5565b6111ff5760405163e2517d3f60e01b81526001600160a01b03821660048201526024810183905260440161080e565b5050565b61120c8261091d565b61121b578161111b6002611319565b8015801590611230575061122e81610943565b155b156111ff5760405163121534c360e31b81526004810182905260240161080e565b600080856001600160a01b031685858560405161126f929190612018565b60006040518083038185875af1925050503d80600081146112ac576040519150601f19603f3d011682016040523d82523d6000602084013e6112b1565b606091505b50915091506112c0828261136b565b50505050505050565b6112d28161091d565b6112e1578061111b6002611319565b600090815260016020819052604090912055565b6000610a138383611387565b6000610a1383836113bc565b6000610a1383836113e9565b600081600381111561132d5761132d6119a0565b600160ff919091161b92915050565b60006107bc825490565b60006001600160e01b03198216630271189760e51b14806107bc57506107bc82611413565b6060826113805761137b82611448565b6107bc565b50806107bc565b6000806113948484611471565b90508015610a135760008481526003602052604090206113b49084611503565b509392505050565b6000806113c98484611518565b90508015610a135760008481526003602052604090206113b49084611583565b600082600001828154811061140057611400611e6a565b9060005260206000200154905092915050565b60006001600160e01b03198216637965db0b60e01b14806107bc57506301ffc9a760e01b6001600160e01b03198316146107bc565b8051156114585780518082602001fd5b604051630a12f52160e11b815260040160405180910390fd5b600061147d8383610ca5565b6114fb576000838152602081815260408083206001600160a01b03861684529091529020805460ff191660011790556114b33390565b6001600160a01b0316826001600160a01b0316847f2f8788117e7eff1d82e926ec794901d17c78024a50270940304540a733656f0d60405160405180910390a45060016107bc565b5060006107bc565b6000610a13836001600160a01b038416611598565b60006115248383610ca5565b156114fb576000838152602081815260408083206001600160a01b0386168085529252808320805460ff1916905551339286917ff6391f5c32d9c69d2a47ea670b442974b53935d1edc7fd64eb21e047a839171b9190a45060016107bc565b6000610a13836001600160a01b0384166115df565b60008181526001830160205260408120546114fb575081546001818101845560008481526020808220909301849055845484825282860190935260409020919091556107bc565b600081815260018301602052604081205480156116c857600061160360018361212b565b85549091506000906116179060019061212b565b905080821461167c57600086600001828154811061163757611637611e6a565b906000526020600020015490508087600001848154811061165a5761165a611e6a565b6000918252602080832090910192909255918252600188019052604090208390555b855486908061168d5761168d61213e565b6001900381819060005260206000200160009055905585600101600086815260200190815260200160002060009055600193505050506107bc565b60009150506107bc565b80356001600160a01b03811681146116e957600080fd5b919050565b60008083601f84011261170057600080fd5b5081356001600160401b0381111561171757600080fd5b60208301915083602082850101111561172f57600080fd5b9250929050565b600080600080600080600060c0888a03121561175157600080fd5b61175a886116d2565b96506020880135955060408801356001600160401b0381111561177c57600080fd5b6117888a828b016116ee565b989b979a50986060810135976080820135975060a09091013595509350505050565b6000602082840312156117bc57600080fd5b81356001600160e01b031981168114610a1357600080fd5b6000602082840312156117e657600080fd5b5035919050565b60008060008060008060a0878903121561180657600080fd5b61180f876116d2565b95506020870135945060408701356001600160401b0381111561183157600080fd5b61183d89828a016116ee565b979a9699509760608101359660809091013595509350505050565b634e487b7160e01b600052604160045260246000fd5b604051601f8201601f191681016001600160401b038111828210171561189657611896611858565b604052919050565b600082601f8301126118af57600080fd5b81356001600160401b038111156118c8576118c8611858565b6118db601f8201601f191660200161186e565b8181528460208386010111156118f057600080fd5b816020850160208301376000918101602001919091529392505050565b6000806000806080858703121561192357600080fd5b61192c856116d2565b935061193a602086016116d2565b92506040850135915060608501356001600160401b0381111561195c57600080fd5b6119688782880161189e565b91505092959194509250565b6000806040838503121561198757600080fd5b82359150611997602084016116d2565b90509250929050565b634e487b7160e01b600052602160045260246000fd5b60208101600483106119d857634e487b7160e01b600052602160045260246000fd5b91905290565b60008083601f8401126119f057600080fd5b5081356001600160401b03811115611a0757600080fd5b6020830191508360208260051b850101111561172f57600080fd5b600080600080600080600080600060c08a8c031215611a4057600080fd5b89356001600160401b0380821115611a5757600080fd5b611a638d838e016119de565b909b50995060208c0135915080821115611a7c57600080fd5b611a888d838e016119de565b909950975060408c0135915080821115611aa157600080fd5b50611aae8c828d016119de565b9a9d999c50979a969997986060880135976080810135975060a0013595509350505050565b60008060408385031215611ae657600080fd5b50508035926020909101359150565b60008060008060008060008060a0898b031215611b1157600080fd5b88356001600160401b0380821115611b2857600080fd5b611b348c838d016119de565b909a50985060208b0135915080821115611b4d57600080fd5b611b598c838d016119de565b909850965060408b0135915080821115611b7257600080fd5b50611b7f8b828c016119de565b999c989b509699959896976060870135966080013595509350505050565b600082601f830112611bae57600080fd5b813560206001600160401b03821115611bc957611bc9611858565b8160051b611bd882820161186e565b9283528481018201928281019087851115611bf257600080fd5b83870192505b84831015611c1157823582529183019190830190611bf8565b979650505050505050565b600080600080600060a08688031215611c3457600080fd5b611c3d866116d2565b9450611c4b602087016116d2565b935060408601356001600160401b0380821115611c6757600080fd5b611c7389838a01611b9d565b94506060880135915080821115611c8957600080fd5b611c9589838a01611b9d565b93506080880135915080821115611cab57600080fd5b50611cb88882890161189e565b9150509295509295909350565b600080600080600060608688031215611cdd57600080fd5b611ce6866116d2565b945060208601356001600160401b0380821115611d0257600080fd5b611d0e89838a016116ee565b90965094506040880135915080821115611d2757600080fd5b50611d34888289016116ee565b969995985093965092949392505050565b600080600080600060a08688031215611d5d57600080fd5b611d66866116d2565b9450611d74602087016116d2565b9350604086013592506060860135915060808601356001600160401b03811115611d9d57600080fd5b611cb88882890161189e565b81835281816020850137506000828201602090810191909152601f909101601f19169091010190565b60018060a01b038716815285602082015260a060408201526000611dfa60a083018688611da9565b60608301949094525060800152949350505050565b634e487b7160e01b600052601160045260246000fd5b808201808211156107bc576107bc611e0f565b60018060a01b0385168152836020820152606060408201526000611e60606083018486611da9565b9695505050505050565b634e487b7160e01b600052603260045260246000fd5b600060208284031215611e9257600080fd5b610a13826116d2565b6000808335601e19843603018112611eb257600080fd5b8301803591506001600160401b03821115611ecc57600080fd5b60200191503681900382131561172f57600080fd5b6000838385526020808601955060208560051b8301018460005b87811015611f6a57848303601f19018952813536889003601e19018112611f2157600080fd5b870184810190356001600160401b03811115611f3c57600080fd5b803603821315611f4b57600080fd5b611f56858284611da9565b9a86019a9450505090830190600101611efb565b5090979650505050505050565b60a0808252810188905260008960c08301825b8b811015611fb8576001600160a01b03611fa3846116d2565b16825260209283019290910190600101611f8a565b5083810360208501528881526001600160fb1b03891115611fd857600080fd5b8860051b9150818a602083013701828103602090810160408501526120009082018789611ee1565b60608401959095525050608001529695505050505050565b8183823760009101908152919050565b6001600160e01b031984168152818360048301376000910160040190815292915050565b60006001820161205e5761205e611e0f565b5060010190565b6000815180845260005b8181101561208b5760208185018101518683018201520161206f565b506000602082860101526020601f19601f83011685010191505092915050565b60018060a01b038716815285602082015260c0604082015260006120d260c0830187612065565b606083019590955250608081019290925260a0909101529392505050565b60018060a01b038616815284602082015260a06040820152600061211760a0830186612065565b606083019490945250608001529392505050565b818103818111156107bc576107bc611e0f565b634e487b7160e01b600052603160045260246000fdfeb09aa5aeb3702cfd50b6b62bc4532604938f21248a27a1d5ca736082b6819cc1d8aa0f3194971a2a116679f7c2090f6939c8d4e01a2a8d7e41d55e5351469e63a2646970667358221220fdbf72d138202a0485f71905569f6149bd0d828610b63cd7bbe13c5541f212de64736f6c63430008190033b09aa5aeb3702cfd50b6b62bc4532604938f21248a27a1d5ca736082b6819cc1d8aa0f3194971a2a116679f7c2090f6939c8d4e01a2a8d7e41d55e5351469e63",
  "devdoc": {
    "errors": {
      "AccessControlBadConfirmation()": [
        {
          "details": "The caller of a function is not the expected one. NOTE: Don't confuse with {AccessControlUnauthorizedAccount}."
        }
      ],
      "AccessControlUnauthorizedAccount(address,bytes32)": [
        {
          "details": "The `account` is missing a role."
        }
      ],
      "FailedInnerCall()": [
        {
          "details": "A call to an address target failed. The target may have reverted."
        }
      ],
      "TimelockInsufficientDelay(uint256,uint256)": [
        {
          "details": "The schedule operation doesn't meet the minimum delay."
        }
      ],
      "TimelockInvalidOperationLength(uint256,uint256,uint256)": [
        {
          "details": "Mismatch between the parameters length for an operation call."
        }
      ],
      "TimelockUnauthorizedCaller(address)": [
        {
          "details": "The caller account is not authorized."
        }
      ],
      "TimelockUnexecutedPredecessor(bytes32)": [
        {
          "details": "The predecessor to an operation not yet done."
        }
      ],
      "TimelockUnexpectedOperationState(bytes32,bytes32)": [
        {
          "details": "The current state of an operation is not as required. The `expectedStates` is a bitmap with the bits enabled for each OperationState enum position counting from right to left. See {_encodeStateBitmap}."
        }
      ]
    },
    "events": {
      "CallExecuted(bytes32,uint256,address,uint256,bytes)": {
        "details": "Emitted when a call is performed as part of operation `id`."
      },
      "CallSalt(bytes32,bytes32)": {
        "details": "Emitted when new proposal is scheduled with non-zero salt."
      },
      "CallScheduled(bytes32,uint256,address,uint256,bytes,bytes32,uint256)": {
        "details": "Emitted when a call is scheduled as part of operation `id`."
      },
      "Cancelled(bytes32)": {
        "details": "Emitted when operation `id` is cancelled."
      },
      "MinDelayChange(uint256,uint256)": {
        "details": "Emitted when the minimum delay for future operations is modified."
      },
      "RoleAdminChanged(bytes32,bytes32,bytes32)": {
        "details": "Emitted when `newAdminRole` is set as ``role``'s admin role, replacing `previousAdminRole` `DEFAULT_ADMIN_ROLE` is the starting admin for all roles, despite {RoleAdminChanged} not being emitted signaling this."
      },
      "RoleGranted(bytes32,address,address)": {
        "details": "Emitted when `account` is granted `role`. `sender` is the account that originated the contract call, an admin role bearer except when using {AccessControl-_setupRole}."
      },
      "RoleRevoked(bytes32,address,address)": {
        "details": "Emitted when `account` is revoked `role`. `sender` is the account that originated the contract call:   - if using `revokeRole`, it is the admin role bearer   - if using `renounceRole`, it is the role bearer (i.e. `account`)"
      }
    },
    "kind": "dev",
    "methods": {
      "cancel(bytes32)": {
        "details": "Cancel an operation. Requirements: - the caller must have the 'canceller' role."
      },
      "execute(address,uint256,bytes,bytes32,bytes32)": {
        "details": "Execute an (ready) operation containing a single transaction. Emits a {CallExecuted} event. Requirements: - the caller must have the 'executor' role."
      },
      "executeBatch(address[],uint256[],bytes[],bytes32,bytes32)": {
        "details": "Execute an (ready) operation containing a batch of transactions. Emits one {CallExecuted} event per transaction in the batch. Requirements: - the caller must have the 'executor' role."
      },
      "getMinDelay()": {
        "details": "Returns the minimum delay in seconds for an operation to become valid. This value can be changed by executing an operation that calls `updateDelay`."
      },
      "getOperationState(bytes32)": {
        "details": "Returns operation state."
      },
      "getRoleAdmin(bytes32)": {
        "details": "Returns the admin role that controls `role`. See {grantRole} and {revokeRole}. To change a role's admin, use {_setRoleAdmin}."
      },
      "getRoleMember(bytes32,uint256)": {
        "details": "Returns one of the accounts that have `role`. `index` must be a value between 0 and {getRoleMemberCount}, non-inclusive. Role bearers are not sorted in any particular way, and their ordering may change at any point. WARNING: When using {getRoleMember} and {getRoleMemberCount}, make sure you perform all queries on the same block. See the following https://forum.openzeppelin.com/t/iterating-over-elements-on-enumerableset-in-openzeppelin-contracts/2296[forum post] for more information."
      },
      "getRoleMemberCount(bytes32)": {
        "details": "Returns the number of accounts that have `role`. Can be used together with {getRoleMember} to enumerate all bearers of a role."
      },
      "getTimestamp(bytes32)": {
        "details": "Returns the timestamp at which an operation becomes ready (0 for unset operations, 1 for done operations)."
      },
      "grantRole(bytes32,address)": {
        "details": "Grants `role` to `account`. If `account` had not been already granted `role`, emits a {RoleGranted} event. Requirements: - the caller must have ``role``'s admin role. May emit a {RoleGranted} event."
      },
      "hasRole(bytes32,address)": {
        "details": "Returns `true` if `account` has been granted `role`."
      },
      "hashOperation(address,uint256,bytes,bytes32,bytes32)": {
        "details": "Returns the identifier of an operation containing a single transaction."
      },
      "hashOperationBatch(address[],uint256[],bytes[],bytes32,bytes32)": {
        "details": "Returns the identifier of an operation containing a batch of transactions."
      },
      "isOperation(bytes32)": {
        "details": "Returns whether an id corresponds to a registered operation. This includes both Waiting, Ready, and Done operations."
      },
      "isOperationDone(bytes32)": {
        "details": "Returns whether an operation is done or not."
      },
      "isOperationPending(bytes32)": {
        "details": "Returns whether an operation is pending or not. Note that a \"pending\" operation may also be \"ready\"."
      },
      "isOperationReady(bytes32)": {
        "details": "Returns whether an operation is ready for execution. Note that a \"ready\" operation is also \"pending\"."
      },
      "onERC721Received(address,address,uint256,bytes)": {
        "details": "See {IERC721Receiver-onERC721Received}. Always returns `IERC721Receiver.onERC721Received.selector`."
      },
      "renounceRole(bytes32,address)": {
        "details": "Revokes `role` from the calling account. Roles are often managed via {grantRole} and {revokeRole}: this function's purpose is to provide a mechanism for accounts to lose their privileges if they are compromised (such as when a trusted device is misplaced). If the calling account had been revoked `role`, emits a {RoleRevoked} event. Requirements: - the caller must be `callerConfirmation`. May emit a {RoleRevoked} event."
      },
      "revokeRole(bytes32,address)": {
        "details": "Revokes `role` from `account`. If `account` had been granted `role`, emits a {RoleRevoked} event. Requirements: - the caller must have ``role``'s admin role. May emit a {RoleRevoked} event."
      },
      "schedule(address,uint256,bytes,bytes32,bytes32,uint256)": {
        "details": "Schedule an operation containing a single transaction. Emits {CallSalt} if salt is nonzero, and {CallScheduled}. Requirements: - the caller must have the 'proposer' role."
      },
      "scheduleBatch(address[],uint256[],bytes[],bytes32,bytes32,uint256)": {
        "details": "Schedule an operation containing a batch of transactions. Emits {CallSalt} if salt is nonzero, and one {CallScheduled} event per transaction in the batch. Requirements: - the caller must have the 'proposer' role."
      },
      "updateDelay(uint256)": {
        "details": "Changes the minimum timelock duration for future operations. Emits a {MinDelayChange} event. Requirements: - the caller must be the timelock itself. This can only be achieved by scheduling and later executing an operation where the timelock is the target and the data is the ABI-encoded call to this function."
      }
    },
    "version": 1
  },
  "userdoc": {
    "kind": "user",
    "methods": {},
    "version": 1
  },
  "storageLayout": {
    "storage": [
      {
        "astId": 5221,
        "contract": "contracts/Timelock.sol:Timelock",
        "label": "_roles",
        "offset": 0,
        "slot": "0",
        "type": "t_mapping(t_bytes32,t_struct(RoleData)5216_storage)"
      },
      {
        "astId": 5931,
        "contract": "contracts/Timelock.sol:Timelock",
        "label": "_timestamps",
        "offset": 0,
        "slot": "1",
        "type": "t_mapping(t_bytes32,t_uint256)"
      },
      {
        "astId": 5933,
        "contract": "contracts/Timelock.sol:Timelock",
        "label": "_minDelay",
        "offset": 0,
        "slot": "2",
        "type": "t_uint256"
      },
      {
        "astId": 5743,
        "contract": "contracts/Timelock.sol:Timelock",
        "label": "_roleMembers",
        "offset": 0,
        "slot": "3",
        "type": "t_mapping(t_bytes32,t_struct(AddressSet)9851_storage)"
      },
      {
        "astId": 11791,
        "contract": "contracts/Timelock.sol:Timelock",
        "label": "MAX_DELAY",
        "offset": 0,
        "slot": "4",
        "type": "t_uint256"
      },
      {
        "astId": 11793,
        "contract": "contracts/Timelock.sol:Timelock",
        "label": "salt",
        "offset": 0,
        "slot": "5",
        "type": "t_uint256"
      }
    ],
    "types": {
      "t_address": {
        "encoding": "inplace",
        "label": "address",
        "numberOfBytes": "20"
      },
      "t_array(t_bytes32)dyn_storage": {
        "base": "t_bytes32",
        "encoding": "dynamic_array",
        "label": "bytes32[]",
        "numberOfBytes": "32"
      },
      "t_bool": {
        "encoding": "inplace",
        "label": "bool",
        "numberOfBytes": "1"
      },
      "t_bytes32": {
        "encoding": "inplace",
        "label": "bytes32",
        "numberOfBytes": "32"
      },
      "t_mapping(t_address,t_bool)": {
        "encoding": "mapping",
        "key": "t_address",
        "label": "mapping(address => bool)",
        "numberOfBytes": "32",
        "value": "t_bool"
      },
      "t_mapping(t_bytes32,t_struct(AddressSet)9851_storage)": {
        "encoding": "mapping",
        "key": "t_bytes32",
        "label": "mapping(bytes32 => struct EnumerableSet.AddressSet)",
        "numberOfBytes": "32",
        "value": "t_struct(AddressSet)9851_storage"
      },
      "t_mapping(t_bytes32,t_struct(RoleData)5216_storage)": {
        "encoding": "mapping",
        "key": "t_bytes32",
        "label": "mapping(bytes32 => struct AccessControl.RoleData)",
        "numberOfBytes": "32",
        "value": "t_struct(RoleData)5216_storage"
      },
      "t_mapping(t_bytes32,t_uint256)": {
        "encoding": "mapping",
        "key": "t_bytes32",
        "label": "mapping(bytes32 => uint256)",
        "numberOfBytes": "32",
        "value": "t_uint256"
      },
      "t_struct(AddressSet)9851_storage": {
        "encoding": "inplace",
        "label": "struct EnumerableSet.AddressSet",
        "members": [
          {
            "astId": 9850,
            "contract": "contracts/Timelock.sol:Timelock",
            "label": "_inner",
            "offset": 0,
            "slot": "0",
            "type": "t_struct(Set)9536_storage"
          }
        ],
        "numberOfBytes": "64"
      },
      "t_struct(RoleData)5216_storage": {
        "encoding": "inplace",
        "label": "struct AccessControl.RoleData",
        "members": [
          {
            "astId": 5213,
            "contract": "contracts/Timelock.sol:Timelock",
            "label": "hasRole",
            "offset": 0,
            "slot": "0",
            "type": "t_mapping(t_address,t_bool)"
          },
          {
            "astId": 5215,
            "contract": "contracts/Timelock.sol:Timelock",
            "label": "adminRole",
            "offset": 0,
            "slot": "1",
            "type": "t_bytes32"
          }
        ],
        "numberOfBytes": "64"
      },
      "t_struct(Set)9536_storage": {
        "encoding": "inplace",
        "label": "struct EnumerableSet.Set",
        "members": [
          {
            "astId": 9531,
            "contract": "contracts/Timelock.sol:Timelock",
            "label": "_values",
            "offset": 0,
            "slot": "0",
            "type": "t_array(t_bytes32)dyn_storage"
          },
          {
            "astId": 9535,
            "contract": "contracts/Timelock.sol:Timelock",
            "label": "_positions",
            "offset": 0,
            "slot": "1",
            "type": "t_mapping(t_bytes32,t_uint256)"
          }
        ],
        "numberOfBytes": "64"
      },
      "t_uint256": {
        "encoding": "inplace",
        "label": "uint256",
        "numberOfBytes": "32"
      }
    }
  }
}